:020000040800F2
:10000000F4480120D5060008310700083107000830
:100010003107000831070008310700080000000020
:100020000000000000000000000000003107000890
:100030003107000800000000310700083107000800
:1000400031070008310700083107000831070008B0
:1000500031070008310700083107000831070008A0
:100060003107000831070008310700083107000890
:100070003107000831070008310700083107000880
:100080003107000831070008310700083107000870
:100090003107000831070008310700083107000860
:1000A0003107000831070008310700083107000850
:1000B000F114000831070008310700083107000873
:1000C0003107000831070008310700083107000830
:1000D0003107000831070008310700083107000820
:1000E0003107000831070008310700083107000810
:1000F0003107000831070008310700083107000800
:1001000031070008310700083107000831070008EF
:1001100031070008310700083107000831070008DF
:1001200031070008310700083107000831070008CF
:1001300031070008310700083107000831070008BF
:1001400031070008310700083107000831070008AF
:10015000A915000831070008310700083107000819
:10016000310700083107000831070008310700088F
:10017000310700083107000831070008310700087F
:10018000310700083107000880B58AB000AF07F1D9
:100190001003184600F000FB3B697B627B6A114A42
:1001A00082FB03129211DB17D31A7B8402200121F8
:1001B00000F0BAFB7B8CBB800023FB8045F6C0536C
:1001C000BB600023BB810023BB733B1D064819465F
:1001D00001F06EFA0448012101F00EFB2837BD46FC
:1001E00080BD00BFD34D62100004004080B582B0D6
:1001F00000AF78600748002101F0C4FA00BF05484D
:1002000001F0CEFA02467B689A42F8D30837BD4621
:1002100080BD00BF0004004080B584B000AFF8800E
:10022000B980FA70BB700023FB600DE0F988BA88D2
:10023000BB78084611461A4601F008F8FB680133FE
:10024000FB60BB880133BB80FA78FB689A42EDDC27
:100250001037BD4680BD00BFF0B585B000AFF88057
:10026000B9807A803B800023FB60294B00221A6012
:1002700044E0274B1A68264B1B689BB2F988CB1ABF
:100280009BB299B2234B23F812107A88204B1B683B
:100290001A44F9887B880B4499B21D4B1B689BB2AA
:1002A000CB1A9BB299B21B4B23F812107B885A00D1
:1002B000174B1B681A44164B1B6899B2FB880B44FA
:1002C0009BB299B2134B23F812107A8813465B0045
:1002D0001A440F4B1B681A44F9887B88CB1A99B2D1
:1002E0000B4B1B689BB20B449BB299B2094B23F892
:1002F0001210074B1B685A1C054B1A607A88044B76
:100300001B689A42B5DA024B00221A60F6E000BF81
:100310004404002024390120944B1E68BB881846F1
:1003200001F09AFE04460D463B883A8802FB03F230
:100330003B88398801FB03F38C4909688B480068C6
:1003400000FB01F101FB03F17B88788800FB03F3DC
:1003500091FBF3F3D31A184601F07EFE02460B46DA
:100360001046194601F0E6FB02460B462046294698
:1003700001F024FD02460B461046194602F06CF9C6
:1003800003469AB27A4B23F816207B885A00774BA3
:100390001B68D61ABB88184601F05EFE04460D465F
:1003A0003B883A8802FB03F23B88398801FB03F360
:1003B0006E4909686D48006800FB01F101FB03F11B
:1003C0007B88788800FB03F391FBF3F3D31A18467C
:1003D00001F042FE02460B461046194601F0AAFB08
:1003E00002460B462046294601F0E8FC02460B4631
:1003F0001046194602F030F903469AB25C4B23F8D6
:1004000016207B885A00594B1B68D618BB881846A3
:1004100001F022FE04460D463B883A8802FB03F2B7
:100420003B88398801FB03F3504909684F4800684D
:1004300000FB01F101FB03F17B88788800FB03F3EB
:1004400091FBF3F3D31A184601F006FE02460B4661
:100450001046194601F06EFB02460B46204629461F
:1004600001F0AEFC02460B461046194602F0F4F8C5
:1004700003469AB23E4B23F816207B889A003B4BEA
:100480001B68D61ABB88184601F0E6FD04460D46E7
:100490003B883A8802FB03F23B88398801FB03F36F
:1004A000324909683148006800FB01F101FB03F1A2
:1004B0007B88788800FB03F391FBF3F3D31A18468B
:1004C00001F0CAFD02460B461046194601F032FB08
:1004D00002460B462046294601F072FC02460B46B6
:1004E0001046194602F0B8F803469AB2204B23F89A
:1004F00016201E4B1B685A1C1C4B1A607A881B4B1B
:100500001B689A42BFF608AFB7F92830002B79D1A3
:10051000BB8D012B53D9154B00221A601BE0134BE6
:100520001A68144B33F8123098B2104B1A68104BFB
:1005300033F812309AB2BB8D5B089BB2134499B268
:10054000BB8DDAB23B8EDBB2FFF766FE074B1B6852
:100550005A1C064B1A607B885A00044B1B689A424F
:10056000DDDC7B885A00014B1A6021E04404002046
:1005700054310120243901204C4B1A684C4B33F87C
:10058000123098B2494B1A684A4B33F812309AB27B
:10059000BB8D5B089BB2D31A99B2BB8DDAB23B8E8E
:1005A000DBB2FFF739FE414B1B685A1C3F4B1A6008
:1005B0007B889A003D4B1B689A42DDDC72E03B4B26
:1005C00000221A6017E0394B1A68394B33F81230A1
:1005D00099B2364B1A68374B33F812309AB23B8EC9
:1005E000DBB2084611461A4600F030FE2F4B1B685E
:1005F0005A1C2E4B1A607B889A002C4B1B689A421F
:10060000E1DC4FE0294B00221A601FE0BA88274B3B
:100610001968284B33F811301BB2D31AFB60234BF7
:100620001A68234B33F8123098B2204B1A68214BCA
:1006300033F8123099B2FB68DAB23B8EDBB2FFF7C7
:10064000EBFD1A4B1B685A1C184B1A607B885A002A
:10065000164B1B689A42D9DC7B885A00134B1A60F0
:100660001AE0124B1A68134B33F812301AB2BB88D7
:10067000D31AFB600D4B1A680D4B33F8123098B249
:10068000FB68DAB23B8EDBB2B988FFF7C5FD074BDA
:100690001B685A1C054B1A607B889A00034B1B6829
:1006A0009A42DEDA1437BD46F0BD00BF4404002094
:1006B000243901205431012080B582B000AF0346B7
:1006C000FB80FB88DBB2184600F09CFD0837BD4676
:1006D00080BD00BF80B582B000AF104B7B60104B77
:1006E0003B6007E03B681A1D3A607A68111D79602B
:1006F00012681A603A680B4B9A42F3D30A480B49C6
:100700004FF000028842B8BF40F8042BFFF6FAAF62
:1007100000F012F80837BD4680BD00BFC0260008B3
:10072000000000204404002044040020F440012084
:1007300080B400AFFEE700BF80B584B004AF00F026
:1007400077FA00F01FFD00F0FFF9FFF71DFD002311
:100750000093022301930323029350207821322235
:100760003223FFF779FD4FF47A70FFF73FFD012345
:10077000009300230193E0230293F0207821462286
:100780001E23FFF769FD41F28830FFF72FFD00209F
:10079000FFF792FFDBE700BF80B489B000AF78605D
:1007A0000023BB6100237B610023FB6102233B61CB
:1007B0000023FB600223BB60484B9B6803F00C03E3
:1007C000BB61BB69042B07D0082B09D0002B3FD19C
:1007D0007B68434A1A603FE07B68424A1A603BE00C
:1007E0003E4B5B6803F480039B0DFB603B4B5B68F7
:1007F00003F03F03BB60FB68002B0DD0394ABB6898
:10080000B2FBF3F2354B596847F6C0730B409B09B6
:1008100003FB02F3FB610CE0314ABB68B2FBF3F26D
:100820002E4B596847F6C0730B409B0903FB02F33C
:10083000FB612A4B5B6803F440331B0C01335B0004
:100840003B61FA693B69B2FBF3F27B681A6003E033
:100850007B68234A1A6000BF204B9B6803F0F003BB
:10086000BB61BB691B09BB611F4ABB6913441B7891
:10087000DBB27B617B681A687B69DA407B685A600F
:10088000164B9B6803F4E053BB61BB699B0ABB61D9
:10089000154ABB6913441B78DBB27B617B685A68DD
:1008A0007B69DA407B689A600C4B9B6803F4604379
:1008B000BB61BB695B0BBB610B4ABB6913441B7813
:1008C000DBB27B617B685A687B69DA407B68DA60FF
:1008D0002437BD465DF8047B704700BF00380240F6
:1008E0000024F40000127A000000002080B483B0DD
:1008F00000AF78600B46FB70FB78002B06D0094BED
:10090000084A116B7A680A431A6306E0054B054AE8
:10091000116B7A68D2430A401A630C37BD465DF802
:10092000047B70470038024080B483B000AF786029
:100930000B46FB70FB78002B06D0094B084A116C64
:100940007A680A431A6406E0054B054A116C7A6816
:10095000D2430A401A640C37BD465DF8047B7047E9
:100960000038024080B483B000AF78600B46FB7063
:10097000FB78002B06D0094B084A516C7A680A4371
:100980005A6406E0054B054A516C7A68D2430A4026
:100990005A640C37BD465DF8047B7047003802404E
:1009A00080B487B000AF7860396000237B6100239A
:1009B0003B610023FB6000237B6176E07B690122C1
:1009C00002FA03F33B613B681A683B691340FB6022
:1009D000FA683B699A4265D17B681A687B695B005B
:1009E000032101FA03F3DB431A407B681A607B683A
:1009F0001A683B681B7919467B695B0001FA03F3AF
:100A00001A437B681A603B681B79012B03D03B6853
:100A10001B79022B2ED17B689A687B695B000321CE
:100A200001FA03F3DB431A407B689A607B689A689B
:100A30003B685B7919467B695B0001FA03F31A4353
:100A40007B689A607B685A687B699BB2012101FAD6
:100A500003F3DB431A407B685A607B685A683B6843
:100A60009B7919467B699BB201FA03F39BB21A4347
:100A70007B685A607B68DA687B699BB25B00032104
:100A800001FA03F3DB431A407B68DA607B68DA68BB
:100A90003B68DB7919467B695B0001FA03F31A4373
:100AA0007B68DA607B6901337B617B690F2B85D9B9
:100AB0001C37BD465DF8047B704700BF80B485B02D
:100AC00000AF786013460A467A807B700023FB6093
:100AD0000023BB607A787B8803F007039B0002FA4F
:100AE00003F3FB607B88DB089BB21A467B88DB083C
:100AF0009BB219467B68083153F821107B8803F0BC
:100B000007039B000F2000FA03F3DB4319407B68C7
:100B1000083243F822107B88DB089BB21A467B68B8
:100B2000083253F82220FB681343BB607B88DB0844
:100B30009BB21A467B680832B96843F82210143712
:100B4000BD465DF8047B704780B584B000AF3B467E
:100B50001846FFF721FE3B681A46314B1A60304BAE
:100B60001B68184601F078FA02460B4610461946F3
:100B70004FF000022B4B01F0D5FA02460B4610460F
:100B8000194623A3D3E9002301F0F6FB02460B46E6
:100B9000104619464FF000024FF0804301F0ECFB85
:100BA00002460B461046194601F056FD02461E4B02
:100BB0001A601B4B1B68184601F04EFA02460B46A2
:100BC000104619464FF00002164B01F0ABFA0246F0
:100BD0000B461046194610A3D3E9002301F0CCFBC5
:100BE00002460B46104619464FF000024FF0804374
:100BF00001F0C2FB02460B461046194601F02CFDDF
:100C000002460A4B1A601037BD4680BDAFF3008024
:100C1000000000002A759541000000046BF4344286
:100C20004C0400200000F43F500400205404002035
:100C300080B500AF114B114A126842F001021A60F0
:100C40000E4B00229A600D4A0C4B1B6823F08473F4
:100C500023F480331360094B094A5A60074B074A53
:100C6000126822F480221A60044B0022DA6000F03D
:100C70000BF8044B4FF000629A6080BD00380240D0
:100C80001030002400ED00E080B483B000AF0023FA
:100C90007B6000233B60354B344A126842F480325B
:100CA0001A60324B1B6803F400333B607B680133EE
:100CB0007B603B68002B03D17B68B3F5A06FF0D15C
:100CC0002A4B1B6803F40033002B02D001233B6046
:100CD00001E000233B603B68012B42D1234B234AB8
:100CE000126C42F080521A64214B214A126842F47D
:100CF00080421A601D4B1D4A92689A601B4B1B4A2A
:100D0000926842F400429A60184B184A926842F482
:100D1000A0529A60154B174A5A60144B134A126836
:100D200042F080721A6000BF104B1B6803F0007322
:100D3000002BF9D0104B40F205621A600B4B0B4AA6
:100D4000926822F003029A60084B084A926842F0C7
:100D500002029A6000BF054B9B6803F00C03082B4E
:100D6000F9D10C37BD465DF8047B7047003802406E
:100D70000070004008544007003C024080B483B03B
:100D800000AF78607B681B6823F001027B681A6003
:100D90007B6800221A607B6800225A607B68002210
:100DA0009A607B680022DA607B6800221A617B68A7
:100DB00021225A617A68454B9A4203D1444B3D2225
:100DC0009A607EE07A68434B9A4204D1404B4FF4DC
:100DD00074629A6075E07A683F4B9A4204D13C4B4A
:100DE0004FF474129A606CE07A683C4B9A4204D1DA
:100DF000374B4FF074629A6063E07A68384B9A42DE
:100E000003D1334B374ADA605BE07A68364B9A425B
:100E100003D12F4B354ADA6053E07A68344B9A425B
:100E200003D12B4B334ADA604BE07A68324B9A425B
:100E300004D1274B4FF03D52DA6042E07A682F4BE5
:100E40009A4203D12E4B3D229A603AE07A682D4BAC
:100E50009A4204D12A4B4FF474629A6031E07A6866
:100E6000294B9A4204D1264B4FF474129A6028E021
:100E70007A68264B9A4204D1214B4FF074629A60F3
:100E80001FE07A68224B9A4203D11D4B154ADA6063
:100E900017E07A681F4B9A4203D1194B134ADA6064
:100EA0000FE07A681C4B9A4203D1154B114ADA6065
:100EB00007E07A68194B9A4203D1114B4FF03D522B
:100EC000DA600C37BD465DF8047B70471060024065
:100ED00000600240286002404060024058600240CA
:100EE000706002403D00002088600240400F0020FA
:100EF000A060024000003D20B86002401064024043
:100F00000064024028640240406402405864024089
:100F10007064024088640240A0640240B8640240E9
:100F200080B485B000AF786039600023FB607B68D7
:100F30001B68FB60FA68244B1340FB603B681A682F
:100F40003B68DB681A433B685B691A433B689B69F3
:100F50001A433B68DB691A433B681B6A1A433B68C8
:100F60005B6A1A433B689B6A1A433B685B6B1A4394
:100F70003B689B6B1343FA681343FB607B68FA681A
:100F80001A607B685B69FB60FB6823F00703FB600A
:100F90003B68DA6A3B681B6B1343FA681343FB60D8
:100FA0007B68FA685A613B681A697B685A603B68DB
:100FB0005A687B689A603B689A687B68DA60143785
:100FC000BD465DF8047B70473F801CF080B483B061
:100FD00000AF78600B46FB70FB78002B06D07B6877
:100FE0001B6843F001027B681A6005E07B681B68A0
:100FF00023F001027B681A600C37BD465DF8047B64
:10100000704700BF80B485B000AFF860B960134688
:10101000FB71BB6803F08003002B0FD0FB79002B22
:1010200006D0FB685B6943F08002FB685A6105E00B
:10103000FB685B6923F08002FB685A61BB68802B08
:1010400014D0FB79002B08D0FB681A68BB6803F04A
:101050001E031A43FB681A6008E0FB681A68BB6845
:1010600003F01E03DB431A40FB681A601437BD46C9
:101070005DF8047B704700BF80B487B000AF786034
:1010800039600023FB750023FB600023BB607A6896
:10109000224B9A4202D8224B3B6101E0214B3B613B
:1010A0003B6823F0F02323F0C313002B0AD03B68E6
:1010B000DB0A03F01E03FB607B681A68FB681340C1
:1010C000BB6004E07B685B6903F08003BB603B6846
:1010D00003F00053002B03D03B695B68FB6002E028
:1010E0003B691B68FB60FB6823F0F02323F082134D
:1010F000FB60FA683B681340002B05D0BB68002BEF
:1011000002D00123FB7501E00023FB75FB7D18462F
:101110001C37BD465DF8047B704700BF0F6402407A
:10112000006002400064024080B485B000AF786087
:1011300039607A68104B9A4202D8104BFB6001E08C
:101140000F4BFB603B6803F00053002B07D03B685C
:1011500023F0F02323F08213FA68D36006E03B68A3
:1011600023F0F02323F08213FA6893601437BD460E
:101170005DF8047B704700BF0F64024000600240CE
:101180000064024080B582B000AF1B4B00221A8081
:10119000194B00225A60184B00229A600023BB8032
:1011A00017E00023FB800DE0BA8813469B00134430
:1011B0009B011A44FB881344104A0021D154FB8838
:1011C0000133FB80FB88B3F5A07FEDD9BB880133E9
:1011D000BB80BB88EF2BE4D900F05EF800F0B0F8DC
:1011E00000F03EF900F010F9054B1A68024B9A60C6
:1011F0000837BD4680BD00BF5804002064040020AD
:101200008864024080B584B000AF0346FB710023C0
:10121000BB8114E00023FB810AE0F989BA89FB79DC
:10122000084611461A4600F011F8FB890133FB818C
:10123000FB89B3F5A07FF0D3BB890133BB81BB89A8
:10124000EF2BE7D91037BD4680BD00BF80B483B017
:1012500000AF13460246FA800A46BA80FB70FB884C
:10126000B3F5A07F01D30023FB80BB88EF2B01D90E
:101270000023BB80BA8813469B0013449B011A4489
:10128000FB881344034AF978D1540C37BD465DF806
:10129000047B70476404002080B582B000AF10204A
:1012A0000121FFF723FB4FF47F433B6001233B7198
:1012B0000023BB710123FB7103237B713B461E4856
:1012C0001946FFF76DFB1C4B4FF47F425A830220F7
:1012D0000121FFF70BFB4FF400633B6002233B71DE
:1012E00003237B710023BB710123FB713B46134831
:1012F0001946FFF755FB11480B210122FFF7DEFBD2
:1013000002200121FFF7F2FA4FF480533B600123E2
:101310003B710023BB710123FB7103237B713B46AF
:1013200006481946FFF73CFB044B4FF480521A83E2
:101330000837BD4680BD00BF0010024000040240D7
:1013400080B588B000AF01200121FFF70BFB0B2314
:10135000BB610023BB820023BB830023FB8207F118
:1013600014032848194600F0A3F901200121FFF7D2
:10137000DBFA40F66B23BB610023BB820023BB83F7
:101380000023FB8207F114034FF08040194600F060
:101390008FF960233B8001237B804FF4D273BB60C5
:1013A0000223BB813B464FF08040194600F044FACF
:1013B0004FF08040082100F02BFB60233B8001238D
:1013C0007B804FF4A073BB600223BB813B464FF090
:1013D0008040194600F0B6FA4FF08040082100F036
:1013E00033FB0848012100F0E7F94FF0804001216C
:1013F00000F0E2F94FF08040012100F0FDF92037C4
:10140000BD4680BD0000014080B582B000AF1348EA
:1014100010210122FFF7F6FD44233B7100237B716D
:101420000023BB710123FB713B1D184600F0E2F85D
:101430004FF080400821012200F024FB1C233B7167
:1014400000237B710023BB710123FB713B1D1846F8
:1014500000F0D0F80837BD4680BD00BF8864024068
:1014600080B590B000AF4FF480000121FFF73EFA45
:101470001B480021FFF7AAFD1948FFF77FFC4FF03A
:1014800040637B60174BBB60174BFB6040233B61A5
:1014900040F241137B610023BB614FF48063FB6129
:1014A00000233B6200237B620023BB624FF4403386
:1014B000FB6200233B6301237B630023BB630023A8
:1014C000FB633B1D06481946FFF72AFD07484FF40A
:1014D0008071012200F00AFB4037BD4680BD00BF8D
:1014E000886402401510024064040020000001409E
:1014F00080B500AF4FF08040082100F0E7FA254B9F
:101500001B8801339AB2234B1A80224B1B88B3F5F8
:10151000037F05D91F4B00221A801F4A1D4B5A60BA
:101520001C4B1B88012B04D81C4B4FF480525A8350
:1015300003E01A4B4FF480521A83164B1B88232B5F
:1015400027D9144B1A8840F202239A4221D8144B0F
:10155000104A92681A60124B0E4A5268DA60114BB8
:10156000104A128892B242F0010292B21A800C4BD9
:101570000B4A126842F001021A60064B1B8803F006
:101580000103002B05D0034B5B6803F24112014BB2
:101590005A6080BD5804002064040020000402400A
:1015A000886402400000014080B500AF0D480E493C
:1015B000FFF762FD0346002B12D00A480A49FFF7E5
:1015C000B3FD0A4B094A128892B222F0010292B28C
:1015D0001A80044B00221A60054B4FF47F425A8355
:1015E00080BD00BF886402400088002000000140E8
:1015F0000010024080B485B000AF78600023FB7318
:101600000023BB730F237B737B68DB78002B37D001
:10161000254BDB68DB4303F4E0631B0AFB73FB7BB6
:10162000C3F10403BB737A7BFB7B42FA03F37B7346
:101630007B685B781A46BB7B02FA03F3FB737B681B
:101640009A787B7B1340DAB2FB7B1343FB73FB7B03
:101650001B01FB73154A7B681B781344FA7B83F8E4
:101660000023124B7A6812785209D2B2796809784D
:1016700001F01F01012000FA01F143F822100EE0F1
:101680000A4B7A6812785209D2B27968097801F067
:101690001F01012000FA01F1203243F82210143713
:1016A000BD465DF8047B704700ED00E000E100E01E
:1016B00080B485B000AF786039600023FB817B681F
:1016C0001B88FB817A68284B9A4213D07A68274B93
:1016D0009A420FD07B68B3F1804F0BD07A68244BCD
:1016E0009A4207D07A68234B9A4203D07A68224BF9
:1016F0009A4208D1FB8923F07003FB813B685A882A
:10170000FB891343FB817A681C4B9A420CD07A68A0
:101710001B4B9A4208D0FB8923F44073FB813B6842
:101720001A89FB891343FB817B68FA891A803B681D
:101730005A687B68DA623B681A887B681A857A681F
:10174000094B9A4203D07A68084B9A4204D13B680D
:101750009B7A1A467B681A867B6801229A82143724
:10176000BD465DF8047B7047000001400004014065
:101770000004004000080040000C00400010004041
:101780000014004080B483B000AF786039607B689B
:101790003A685A620C37BD465DF8047B704700BF5B
:1017A00080B483B000AF78607B685B6A18460C3702
:1017B000BD465DF8047B704780B483B000AF7860AD
:1017C0000B46FB70FB78002B08D07B681B889BB214
:1017D00043F080039AB27B681A8007E07B681B881D
:1017E0009BB223F080039AB27B681A800C37BD4607
:1017F0005DF8047B704700BF80B483B000AF7860B1
:101800000B46FB70FB78002B08D07B681B889BB2D3
:1018100043F001039AB27B681A8007E07B681B885B
:101820009BB223F001039AB27B681A800C37BD4645
:101830005DF8047B704700BF80B485B000AF78606E
:10184000396000237B810023FB810023BB817B68FF
:101850001B8C9BB223F480739AB27B681A847B68DA
:101860001B8CFB817B689B88BB817B689B8B7B810E
:101870007B8923F070037B817B8923F003037B81C9
:101880003B681A887B8913437B81FB8923F40073AF
:10189000FB813B689B891B029AB2FB891343FB8146
:1018A0003B685B881B029AB2FB891343FB817A6811
:1018B000224B9A4203D07A68214B9A422BD1FB8962
:1018C00023F40063FB813B68DB891B029AB2FB892E
:1018D0001343FB81FB8923F48063FB813B689B8876
:1018E0001B029AB2FB891343FB81BB8923F480530B
:1018F000BB81BB8923F40053BB813B681B8A1B015E
:101900009AB2BB891343BB813B685B8A1B019AB2C5
:10191000BB891343BB817B68BA899A807B687A89CB
:101920009A833B689A687B68DA637B68FA891A84D1
:101930001437BD465DF8047B704700BF00000140CE
:101940000004014080B485B000AF786039600023A6
:10195000BB8100237B810023FB817B681B8C9BB2B6
:1019600023F480539AB27B681A847B681B8C7B813A
:101970007B689B88FB817B689B8BBB81BB8923F445
:10198000E043BB81BB8923F44073BB813B681B8868
:101990001B029AB2BB891343BB817B8923F400539A
:1019A0007B813B689B891B039AB27B8913437B81B4
:1019B0003B685B881B039AB27B8913437B817A68FF
:1019C000114B9A4203D07A68104B9A420AD1FB8994
:1019D00023F48043FB813B681B8A9B019AB2FB89FD
:1019E0001343FB817B68FA899A807B68BA899A8362
:1019F0003B689A687B681A647B687A891A84143712
:101A0000BD465DF8047B70470000014000040140C2
:101A100080B485B000AF78600B467B800023FB81EB
:101A20007B689B8BFB81FB8923F00803FB81FA8990
:101A30007B881343FB817B68FA899A831437BD4600
:101A40005DF8047B704700BF80B485B000AF78605C
:101A50000B467B800023FB817B689B8BFB81FB8992
:101A600023F40063FB817B881B029AB2FB8913433A
:101A7000FB817B68FA899A831437BD465DF8047B45
:101A8000704700BF80B483B000AF786013460A4649
:101A90007A807B707B78002B08D07B689B899AB218
:101AA0007B8813439AB27B689A8109E07B689B89A3
:101AB0009AB27B88DB439BB213409AB27B689A81CF
:101AC0000C37BD465DF8047B704700BF80B483B01F
:101AD00000AF78600B467B807B88DB439AB27B68E3
:101AE0001A820C37BD465DF8047B704780B483B022
:101AF00000AF786013460A467A807B707B78002BB3
:101B000008D07B689B899AB27B8813439AB27B6822
:101B10009A8109E07B689B899AB27B88DB439BB200
:101B200013409AB27B689A810C37BD465DF8047BFE
:101B3000704700BF2DE9F047DFF8A0A08AB0044647
:101B40000D4600F04DF89AF90030013306460F4675
:101B50000FD02046294600F003F950B14FF000089D
:101B60004FF0000942464B462046294600F04CFD06
:101B700020B9304639460AB0BDE8F087164B9AF8CE
:101B80000060019301220023CDE90445CDE902451F
:101B90000092089366B9CDE90689684600F008F915
:101BA00080B1089B9BB9DDE906010AB0BDE8F0876A
:101BB0004046494642464B4600F0DEFB022ECDE948
:101BC0000601EAD100F070FD21230360E9E700F08F
:101BD0006BFD089B0360E6E7B426000810000020B8
:101BE00021F0004C2DE9F8434FEA1C5CDFF86C81D2
:101BF0004FEA0C5CC44506460F460B46024600F011
:101C00008F8000296FDD0F1578D0A7F2FF37C3F35F
:101C10001303F90743F4801360D4D10F4FF0000C85
:101C200001EB43037F105200654616204FF400116C
:101C30006C189C424FEAD2764FEA420202DC1B1B30
:101C400065188C44013806EB43034FEA5101EFD18C
:101C5000804620264FF0004109E023D0D40F013EFA
:101C60004FEA510104EB43034FEA42021ED0AB425C
:101C700001EB0804F1DD04F00049B9F1004F04EB79
:101C8000010809D0A9465B1B944288BF03F1FF33CA
:101C9000121B08444D46E1E7B8F1000FF2DB05F1F5
:101CA0000109F0E79442E6D91D46D7E71A4304D06C
:101CB000431C41D000F00103184446084FEA6C036E
:101CC0001CF0010F03F17F5303F5001318BF46F01A
:101CD000004603EB07513046BDE8F883D10F01EB16
:101CE0004303520099E721F00043034322D051BB44
:101CF0000F46D30A153F5205002BFAD013F480117A
:101D00001DD15B00D80201F10101FAD5C1F101003A
:101D1000C1F1200422FA04F4234307448A4074E703
:101D200002460B4600F0FEF932463B4600F048F80A
:101D3000BDE8F883BDE8F8830CF1010CBEE7202470
:101D400001200021E6E702460B4600F037F8024684
:101D50000B4600F011FBBDE8F88300BF0000F07FE8
:101D600031F0004310B408D00F4AA3F58014944218
:101D70000AD804205DF8044B704700280CBF0220ED
:101D800003205DF8044B7047B3F5801F01D2032098
:101D9000F7E7064A934201D00020F2E7D0F10100B4
:101DA00038BF0020EDE700BFFFFFDF7F0000F07FBE
:101DB0000020704781F0004102E000BF83F0004343
:101DC00030B54FEA41044FEA430594EA050F08BFD6
:101DD00090EA020F1FBF54EA000C55EA020C7FEA9A
:101DE000645C7FEA655C00F0E2804FEA5454D4EB17
:101DF0005555B8BF6D420CDD2C4480EA020281EAE1
:101E0000030382EA000083EA010180EA020281EA18
:101E10000303362D88BF30BD11F0004F4FEA01316A
:101E20004FF4801C4CEA113102D0404261EB410179
:101E300013F0004F4FEA03334CEA133302D05242FF
:101E400063EB430394EA050F00F0A780A4F10104BB
:101E5000D5F1200E0DDB02FA0EFC22FA05F28018F5
:101E600041F1000103FA0EF2801843FA05F35941DB
:101E70000EE0A5F120050EF1200E012A03FA0EFC5A
:101E800028BF4CF0020C43FA05F3C01851EBE37184
:101E900001F0004507D54FF0000EDCF1000C7EEBA1
:101EA00000006EEB0101B1F5801F1BD3B1F5001FDF
:101EB0000CD349085FEA30004FEA3C0C04F10104FE
:101EC0004FEA445212F5800F80F09A80BCF1004F27
:101ED00008BF5FEA500C50F1000041EB045141EAA9
:101EE000050130BD5FEA4C0C404141EB010111F4AA
:101EF000801FA4F10104E9D191F0000F04BF014655
:101F00000020B1FA81F308BF2033A3F10B03B3F132
:101F100020020CDA0C3208DD02F1140CC2F10C02C2
:101F200001FA0CF021FA02F10CE002F11402D8BF20
:101F3000C2F1200C01FA02F120FA0CFCDCBF41EAEC
:101F40000C019040E41AA2BF01EB0451294330BDBB
:101F50006FEA04041F3C1CDA0C340EDC04F1140498
:101F6000C4F1200220FA04F001FA02F340EA03006F
:101F700021FA04F345EA030130BDC4F10C04C4F1B5
:101F8000200220FA02F001FA04F340EA0300294695
:101F900030BD21FA04F0294630BD94F0000F83F4DF
:101FA000801306BF81F480110134013D4EE77FEAC2
:101FB000645C18BF7FEA655C29D094EA050F08BF0E
:101FC00090EA020F05D054EA000C04BF19461046EF
:101FD00030BD91EA030F1EBF0021002030BD5FEA33
:101FE000545C05D14000494128BF41F0004130BD5B
:101FF00014F580043CBF01F5801130BD01F00045AF
:1020000045F0FE4141F470014FF0000030BD7FEA21
:10201000645C1ABF194610467FEA655C1CBF0B461C
:10202000024650EA013406BF52EA033591EA030F33
:1020300041F4002130BD00BF90F0000F04BF00212B
:10204000704730B54FF4806404F132044FF000055E
:102050004FF0000150E700BF90F0000F04BF0021D7
:10206000704730B54FF4806404F1320410F000453D
:1020700048BF40424FF000013EE700BF42004FEA38
:10208000E2014FEA31014FEA02701FBF12F07F43B5
:1020900093F07F4F81F06051704792F0000F14BFB2
:1020A00093F07F4F704730B54FF4607401F00045F6
:1020B00021F0004120E700BF50EA010208BF70474D
:1020C00030B54FF000050AE050EA010208BF704742
:1020D00030B511F0004502D5404261EB41014FF4AB
:1020E000806404F132045FEA915C3FF4DCAE4FF0AF
:1020F00003025FEADC0C18BF03325FEADC0C18BF96
:10210000033202EBDC02C2F1200300FA03FC20FAE6
:1021100002F001FA03FE40EA0E0021FA02F1144433
:10212000C1E600BF70B54FF0FF0C4CF4E06C1CEA48
:1021300011541DBF1CEA135594EA0C0F95EA0C0FBD
:1021400000F0DEF82C4481EA030621EA4C5123EA30
:102150004C5350EA013518BF52EA033541F480115F
:1021600043F4801338D0A0FB02CE4FF00005E1FB12
:1021700002E506F00042E0FB03E54FF00006E1FB5C
:1021800003569CF0000F18BF4EF0010EA4F1FF049F
:10219000B6F5007F64F5407404D25FEA4E0E6D41DF
:1021A00046EB060642EAC62141EA55514FEAC520F0
:1021B00040EA5E504FEACE2EB4F1FD0C88BFBCF56C
:1021C000E06F1ED8BEF1004F08BF5FEA500E50F11D
:1021D000000041EB045170BD06F0004646EA0101E3
:1021E00040EA020081EA0301B4EB5C04C2BFD4EB15
:1021F0000C0541EA045170BD41F480114FF0000E0E
:10220000013C00F3AB8014F1360FDEBF002001F07B
:10221000004170BDC4F10004203C35DA0C341BDCF5
:1022200004F11404C4F1200500FA05F320FA04F0C7
:1022300001FA05F240EA020001F0004221F00041FB
:1022400010EBD37021FA04F642EB06015EEA430E6E
:1022500008BF20EAD37070BDC4F10C04C4F120059E
:1022600000FA04F320FA05F001FA04F240EA020051
:1022700001F0004110EBD37041F100015EEA430E22
:1022800008BF20EAD37070BDC4F1200500FA05F242
:102290004EEA020E20FA04F301FA05F243EA0203C1
:1022A00021FA04F001F0004121FA04F220EA0200D0
:1022B00000EBD3705EEA430E08BF20EAD37070BD16
:1022C00094F0000F0FD101F00046400041EB0101F6
:1022D00011F4801F08BF013CF7D041EA060195F0D8
:1022E000000F18BF704703F00046520043EB030392
:1022F00013F4801F08BF013DF7D043EA060370477F
:1023000094EA0C0F0CEA135518BF95EA0C0F0CD089
:1023100050EA410618BF52EA4306D1D181EA0301CF
:1023200001F000414FF0000070BD50EA410606BFC9
:102330001046194652EA430619D094EA0C0F02D10E
:1023400050EA013613D195EA0C0F05D152EA033653
:102350001CBF104619460AD181EA030101F0004171
:1023600041F0FE4141F470014FF0000070BD41F0BA
:10237000FE4141F4780170BD70B54FF0FF0C4CF494
:10238000E06C1CEA11541DBF1CEA135594EA0C0FB3
:1023900095EA0C0F00F0A7F8A4EB050481EA030E00
:1023A00052EA03354FEA013100F088804FEA0333E7
:1023B0004FF0805545EA131343EA12634FEA0222B5
:1023C00045EA111545EA10654FEA00260EF0004176
:1023D0009D4208BF964244F1FD0404F5407402D2C8
:1023E0005B084FEA3202B61A65EB03055B084FEA59
:1023F00032024FF480104FF4002CB6EB020E75EB56
:10240000030E22BFB61A754640EA0C005B084FEA7D
:102410003202B6EB020E75EB030E22BFB61A7546FA
:1024200040EA5C005B084FEA3202B6EB020E75EB45
:10243000030E22BFB61A754640EA9C005B084FEABD
:102440003202B6EB020E75EB030E22BFB61A7546CA
:1024500040EADC0055EA060E18D04FEA051545EAB9
:1024600016754FEA06164FEAC30343EA52734FEA62
:10247000C2025FEA1C1CC0D111F4801F0BD141EADB
:1024800000014FF000004FF0004CB6E711F4801F40
:1024900004BF01430020B4F1FD0C88BFBCF5E06F20
:1024A0003FF6AFAEB5EB030C04BFB6EB020C5FEA30
:1024B000500C50F1000041EB045170BD0EF0004E85
:1024C0004EEA113114EB5C04C2BFD4EB0C0541EAB7
:1024D000045170BD41F480114FF0000E013C90E6B4
:1024E00045EA060E8DE60CEA135594EA0C0F08BF78
:1024F00095EA0C0F3FF43BAF94EA0C0F0AD150EA77
:1025000001347FF434AF95EA0C0F7FF425AF104609
:1025100019462CE795EA0C0F06D152EA03353FF431
:10252000FDAE1046194622E750EA410618BF52EAAE
:1025300043067FF4C5AE50EA41047FF40DAF52EA82
:1025400043057FF4EBAE12E74FF0FF3C06E000BF1F
:102550004FF0010C02E000BF4FF0010C4DF804CD2C
:102560004FEA410C7FEA6C5C4FEA430C18BF7FEAEC
:102570006C5C1BD001B050EA410C0CBF52EA430C1A
:1025800091EA030F02BF90EA020F0020704710F19A
:10259000000F91EA030F58BF994208BF90422CBF29
:1025A000D8176FEAE37040F0010070474FEA410C22
:1025B0007FEA6C5C02D150EA013C07D14FEA430C40
:1025C0007FEA6C5CD6D152EA033CD3D05DF8040BB1
:1025D000704700BF8446104662468C4619466346E3
:1025E00000E000BF01B5FFF7B7FF002848BF10F1BA
:1025F000000F01BD4DF808EDFFF7F4FF0CBF0120FF
:1026000000205DF808FB00BF4DF808EDFFF7EAFF7A
:1026100034BF012000205DF808FB00BF4DF808ED35
:10262000FFF7E0FF94BF012000205DF808FB00BF2A
:102630004DF808EDFFF7CEFF94BF012000205DF8B4
:1026400008FB00BF4DF808EDFFF7C4FF34BF0120C1
:1026500000205DF808FB00BF4FEA410212F50012AE
:1026600015D211D56FF47873B3EB625212D94FEAD9
:10267000C12343F0004343EA505311F0004F23FAC3
:1026800002F018BF404270474FF00000704750EA18
:10269000013005D111F0004008BF6FF000407047D5
:1026A0004FF00000704700BF014B1868704700BF33
:1026B00040040020737172740000000043000000A9
:1026C00000000000010203040102030406070809D8
:1026D00001000000000000000000000004030020D2
:1026E0006C030020D4030020000000000000000064
:1026F00000000000000000000000000000000000DA
:10270000000000000000000000000000BC260008DF
:1027100000000000000000000000000000000000B9
:1027200000000000000000000000000000000000A9
:102730000000000000000000000000000000000099
:102740000000000000000000000000000000000089
:102750000000000000000000000000000000000079
:102760000000000000000000000000000000000069
:102770000000000000000000000000000000000059
:1027800001000000000000000E33CDAB34126DE6F6
:10279000ECDE05000B00000000000000000000005F
:1027A0000000000000000000000000000000000029
:1027B0000000000000000000000000000000000019
:1027C0000000000000000000000000000000000009
:1027D00000000000000000000000000000000000F9
:042B00001800002099
:0400000508000000EF
:00000001FF
