:020000040800F2
:10000000843E012035340008913400089134000802
:100010009134000891340008913400080000000079
:100020000000000000000000000000009134000803
:100030009134000800000000913400089134000859
:10004000913400089134000891340008913400087C
:10005000913400089134000891340008913400086C
:10006000913400089134000891340008913400085C
:10007000913400089134000891340008913400084C
:10008000913400089134000891340008913400083C
:10009000913400089134000891340008913400082C
:1000A000913400089134000891340008913400081C
:1000B000B5420008913400089134000891340008DA
:1000C00091340008913400089134000891340008FC
:1000D000913400089134000831320008913400084E
:1000E00091340008913400089134000891340008DC
:1000F00091340008913400089134000891340008CC
:1001000091340008913400089134000891340008BB
:1001100091340008913400089134000891340008AB
:10012000913400089134000891340008913400089B
:10013000913400089134000891340008913400088B
:10014000913400089134000891340008913400087B
:100150006D43000891340008913400089134000880
:10016000913400089134000891340008913400085B
:10017000913400089134000891340008913400084B
:10018000913400089134000880B588B000AFF86061
:100190007A603B600B46FB720023BB6100237B61EE
:1001A000FB68FB6108E0FB6900221A70FB69013300
:1001B000FB61BB690133BB61FB7AF869194605F045
:1001C0004BFFF861FB69002BEDD1BB6901339B004C
:1001D0000120194605F0F2FB03463B613B69002B09
:1001E00002D14FF0FF3324E0FB68FB6100237B6109
:1001F00014E0FB691B78002B05D07B699B003A69F2
:100200001344FA691A60F869002105F025FFF861C6
:10021000FB690133FB617B6901337B617A69BB69EF
:100220009A42E6DD7B683A691A603B68BA691A60EF
:10023000002318462037BD4680BD00BF80B58AB078
:1002400004AF78607B681B681846A04905F07EFF04
:100250000346002B40F074829D4802F0CFFF7B687C
:1002600004331B68184605F0A5FB03463B823B8A16
:10027000184603F035F8974802F0C0FF7B68083352
:100280001B68184605F096FB0346FB81FB89184660
:1002900003F026F88F4802F0B1FF7B6810331B682B
:1002A00018468D4905F052FF0346002B02D100236A
:1002B000FB75BDE07B6810331B681846874905F065
:1002C00045FF0346002B02D10223FB75B0E07B689B
:1002D00010331B681846824905F038FF0346002B8F
:1002E00002D10923FB75A3E07B6810331B68184615
:1002F0007C4905F02BFF0346002B02D11C23FB7524
:1003000096E07B6810331B681846774905F01EFF9E
:100310000346002B02D19D23FB7589E07B681033D7
:100320001B681846714905F011FF0346002B02D1E6
:100330001A23FB757CE07B6810331B6818466C49F8
:1003400005F004FF0346002B02D15F23FB756FE02D
:100350007B6810331B681846664905F0F7FE0346B4
:10036000002B02D1E023FB7562E07B6810331B6831
:100370001846614905F0EAFE0346002B02D1ED2341
:10038000FB7555E07B6810331B6818465B4905F028
:10039000DDFE0346002B02D1E323FB7548E07B68BA
:1003A00010331B681846564905F0D0FE0346002B53
:1003B00002D1EE23FB753BE07B6810331B681846C7
:1003C000504905F0C3FE0346002B02D1B123FB7553
:1003D0002EE07B6810331B6818464B4905F0B6FECB
:1003E0000346002B02D1FC23FB7521E07B68103310
:1003F0001B681846454905F0A9FE0346002B02D1AB
:100400009223FB7514E07B6810331B681846404943
:1004100005F09CFE0346002B02D1FF23FB7507E08D
:100420007B6810331B68184605F0C4FA0346FB7559
:100430007B6818331B68184602F0E0FE254802F07E
:10044000DDFE7B6814331B681846324905F07EFEDA
:100450000346002B02D100233B750BE07B6814336D
:100460001B6818462C4905F071FE0346002B01D18C
:1004700001233B757B6818331B681846274905F034
:1004800065FE0346002B02D10023FB740BE07B6862
:1004900018331B681846224905F058FE0346002B06
:1004A00001D10123FB747B681C331B6818461D496E
:1004B00005F04CFE0346002B36D17B681C331B68CD
:1004C000184605F077FA03467B7552E06CAA0008DF
:1004D00074AA000894AA000898AA0008A0AA000814
:1004E000A8AA0008B4AA0008BCAA0008C8AA000864
:1004F000D0AA0008DCAA0008E4AA0008F0AA0008B4
:10050000F8AA000808AB000810AB000818AB0008F8
:1005100020AB000824AB000834AB00083CAB00085B
:1005200044AB00084CAB00087B681C331B681846C2
:10053000854905F00BFE0346002B08D17B681C3370
:100540001B68184605F036FA03467B7511E07B6898
:100550001C331B6818467D4905F0F8FD0346002B47
:1005600007D17B681C331B68184605F023FA034645
:100570007B757B6820331B681846754905F0E6FDDE
:100580000346002B02D10023BB75BDE07B682033FE
:100590001B6818466F4905F0D9FD0346002B02D1B0
:1005A0000223BB75B0E07B6820331B6818466A499C
:1005B00005F0CCFD0346002B02D10923BB75A3E057
:1005C0007B6820331B681846644905F0BFFD03466D
:1005D000002B02D11C23BB7596E07B6820331B687F
:1005E00018465F4905F0B2FD0346002B02D19D235A
:1005F000BB7589E07B6820331B681846594905F0B4
:10060000A5FD0346002B02D11A23BB757CE07B6855
:1006100020331B681846544905F098FD0346002B0B
:1006200002D15F23BB756FE07B6820331B681846DF
:100630004E4905F08BFD0346002B02D1E023BB752C
:1006400062E07B6820331B681846494905F07EFD4F
:100650000346002B02D1ED23BB7555E07B682033A8
:100660001B681846434905F071FD0346002B02D173
:10067000E323BB7548E07B6820331B6818463E497E
:1006800005F064FD0346002B02D11C23BB753BE043
:100690007B6820331B681846384905F057FD034630
:1006A000002B02D1B123BB752EE07B6820331B6881
:1006B0001846334905F04AFD0346002B02D1FC23BE
:1006C000BB7521E07B6820331B6818462D4905F077
:1006D0003DFD0346002B02D1FF23BB7514E07B6870
:1006E00020331B681846284905F030FD0346002BCF
:1006F00002D1FF23BB7507E07B6810331B681846E7
:1007000005F058F90346BB757B6820331B68184613
:1007100002F074FD1D4802F071FD7B68DB68BB6070
:10072000398AFA89FB7D387D0090F87C0190787DCC
:100730000290B87D039008461146BA6802F04CFB5F
:100740001837BD4680BD00BF50AB000854AB000851
:1007500098AA0008A0AA0008A8AA0008B4AA00083D
:10076000BCAA0008C8AA0008D0AA0008DCAA000891
:10077000E4AA0008F0AA0008F8AA000808AB0008DC
:1007800010AB000818AB000820AB000858AB0008FD
:1007900090B58BB004AF7860E023FB750123BB827A
:1007A00002237B829F4802F029FD7B6804331B688B
:1007B000184605F0FFF803463B823B8A184602F0D4
:1007C0008FFD994802F01AFD7B6808331B681846B4
:1007D00005F0F0F80346FB81FB89184602F080FD26
:1007E000914802F00BFD7B680C331B68184605F03E
:1007F000E1F80346BB81BB89184602F071FD8A48C7
:1008000002F0FCFC7B6810331B68184605F0D2F838
:1008100003467B817B89184602F062FD824802F024
:10082000EDFC7B6814331B68184605F0C3F80346DB
:10083000BB82BB8A184602F053FD7B4802F0DEFC07
:100840007B6818331B68184605F0B4F803467B82B2
:100850007B8A184602F044FD734802F0CFFC7B68A7
:100860001C331B681846714905F070FC0346002BC9
:1008700002D10023FB75BDE07B681C331B68184662
:100880006B4905F063FC0346002B02D10223FB7584
:10089000B0E07B681C331B681846664905F056FCBF
:1008A0000346002B02D10923FB75A3E07B681C33B0
:1008B0001B681846604905F049FC0346002B02D12D
:1008C0001C23FB7596E07B681C331B6818465B494C
:1008D00005F03CFC0346002B02D19D23FB7589E00B
:1008E0007B681C331B681846554905F02FFC0346EE
:1008F000002B02D11A23FB757CE07B681C331B683C
:100900001846504905F022FC0346002B02D15F2314
:10091000FB756FE07B681C331B6818464A4905F07D
:1009200015FC0346002B02D1E023FB7562E07B68D7
:100930001C331B681846454905F008FC0346002B8C
:1009400002D1ED23FB7555E07B681C331B6818460C
:100950003F4905F0FBFB0346002B02D1E323FB7567
:1009600048E07B681C331B6818463A4905F0EEFBEB
:100970000346002B02D1EE23FB753BE07B681C3362
:100980001B681846344905F0E1FB0346002B02D1F1
:10099000B123FB752EE07B681C331B6818462F497A
:1009A00005F0D4FB0346002B02D1FC23FB7521E0AC
:1009B0007B681C331B681846294905F0C7FB0346B2
:1009C000002B02D19223FB7514E07B681C331B685B
:1009D0001846244905F0BAFB0346002B02D1FF2339
:1009E000FB7507E07B681C331B68184604F0E2FFC8
:1009F0000346FB757B681C331B68184602F0FEFB40
:100A0000194802F0FBFB388AF989BA897B89BC8ACC
:100A100000947C8A0194FC7D029401F09DFC1C37BB
:100A2000BD4690BD5CAB000894AA000898AA0008D7
:100A3000A0AA0008A8AA0008B4AA0008BCAA000836
:100A4000C8AA0008D0AA0008DCAA0008E4AA000886
:100A5000F0AA0008F8AA000808AB000810AB0008CC
:100A600018AB000820AB000858AB000890B589B05F
:100A700002AF7860E023FB750123BB75974802F055
:100A8000BDFB7B6804331B68184604F093FF0346E4
:100A9000BB82BB8A184602F023FC914802F0AEFBF1
:100AA0007B6808331B68184604F084FF03467B828A
:100AB0007B8A184602F014FC894802F09FFB7B6891
:100AC0000C331B68184604F075FF03463B823B8AD3
:100AD000184602F005FC824802F090FB7B68103358
:100AE0001B68184604F066FF0346FB81FB89184625
:100AF00002F0F6FB7A4802F081FB7B6814331B6836
:100B0000184604F057FF0346BB75BB7D184602F03C
:100B1000E7FB734802F072FB7B6818331B681846CA
:100B2000704905F013FB0346002B02D10023FB752F
:100B3000BDE07B6818331B6818466B4905F006FB5F
:100B40000346002B02D10223FB75B0E07B6818330B
:100B50001B681846654905F0F9FA0346002B02D1D7
:100B60000923FB75A3E07B6818331B6818466049AE
:100B700005F0ECFA0346002B02D11C23FB7596E02E
:100B80007B6818331B6818465A4905F0DFFA03469C
:100B9000002B02D19D23FB7589E07B6818331B680D
:100BA0001846554905F0D2FA0346002B02D11A2304
:100BB000FB757CE07B6818331B6818464F4905F0CD
:100BC000C5FA0346002B02D15F23FB756FE07B68FB
:100BD00018331B6818464A4905F0B8FA0346002B3B
:100BE00002D1E023FB7562E07B6818331B6818466E
:100BF000444905F0ABFA0346002B02D1ED23FB7507
:100C000055E07B6818331B6818463F4905F09EFA8B
:100C10000346002B02D1E323FB7548E07B681833C1
:100C20001B681846394905F091FA0346002B02D19A
:100C3000EE23FB753BE07B6818331B68184634498C
:100C400005F084FA0346002B02D1B123FB752EE098
:100C50007B6818331B6818462E4905F077FA03465F
:100C6000002B02D1FC23FB7521E07B6818331B6845
:100C70001846294905F06AFA0346002B02D192234F
:100C8000FB7514E07B6818331B681846234905F090
:100C90005DFA0346002B02D1FF23FB7507E07B685A
:100CA00018331B68184604F085FE0346FB757B6805
:100CB00018331B68184602F0A1FA194802F09EFA90
:100CC000B88A798A3A8AFB89BC7D0094FC7D0194BC
:100CD00000F046FF1C37BD4690BD00BF80AB00084A
:100CE00094AA000898AA0008A0AA0008A8AA0008C8
:100CF000B4AA0008BCAA0008C8AA0008D0AA000824
:100D0000DCAA0008E4AA0008F0AA0008F8AA000873
:100D100008AB000810AB000818AB000820AB0008B7
:100D200058AB000890B58BB004AF7860E023FB753A
:100D30000123BB7501237B759F4802F05FFA7B6836
:100D400004331B68184604F035FE03467B827B8A19
:100D5000184602F0C5FA994802F050FA7B68083349
:100D60001B68184604F026FE03463B823B8A184661
:100D700002F0B6FA914802F041FA7B680C331B6826
:100D8000184604F017FE0346FB73FB7B184602F07F
:100D9000A7FA8A4802F032FA7B6810331B681846BB
:100DA00004F008FE0346BB73BB7B184602F098FABA
:100DB000824802F023FA7B6814331B68184604F05B
:100DC000F9FD03467B75BB7B184602F089FA7B4828
:100DD00002F014FA7B6818331B68184604F0EAFD29
:100DE0000346BB75BB7B184602F07AFA734802F0E3
:100DF00005FA7B681C331B681846714905F0A6F993
:100E00000346002B02D10023FB75BDE07B681C3339
:100E10001B6818466B4905F099F90346002B02D16F
:100E20000223FB75B0E07B681C331B6818466649DB
:100E300005F08CF90346002B02D10923FB75A3E0D2
:100E40007B681C331B681846604905F07FF9034630
:100E5000002B02D11C23FB7596E07B681C331B68BA
:100E600018465B4905F072F90346002B02D19D2319
:100E7000FB7589E07B681C331B681846554905F0F3
:100E800065F90346002B02D11A23FB757CE07B68D1
:100E90001C331B681846504905F058F90346002BCF
:100EA00002D15F23FB756FE07B681C331B6818461B
:100EB0004A4905F04BF90346002B02D1E023FB75AC
:100EC00062E07B681C331B681846454905F03EF913
:100ED0000346002B02D1ED23FB7555E07B681C33E4
:100EE0001B6818463F4905F031F90346002B02D133
:100EF000E323FB7548E07B681C331B6818463A49BE
:100F000005F024F90346002B02D1EE23FB753BE0EC
:100F10007B681C331B681846344905F017F90346F3
:100F2000002B02D1B123FB752EE07B681C331B68BC
:100F300018462F4905F00AF90346002B02D1FC237D
:100F4000FB7521E07B681C331B681846294905F0B6
:100F5000FDF80346002B02D19223FB7514E07B6859
:100F60001C331B681846244905F0F0F80346002B93
:100F700002D1FF23FB7507E07B681C331B68184612
:100F800004F018FD0346FB757B681C331B6818468C
:100F900002F034F9194802F031F9788A398AFA7B7B
:100FA000BB7B7C7D0094BC7D0194FC7D029400F0B1
:100FB000C5FF1C37BD4690BDA0AB000894AA000831
:100FC00098AA0008A0AA0008A8AA0008B4AA0008C5
:100FD000BCAA0008C8AA0008D0AA0008DCAA000819
:100FE000E4AA0008F0AA0008F8AA000808AB000864
:100FF00010AB000818AB000820AB000858AB000885
:10100000B0B58CB006AF7860E023FB750123BB75EB
:1010100001237B759E4802F0F1F87B6804331B685E
:10102000184604F0C7FC03467B827B8A184602F010
:1010300057F9984802F0E2F87B6808331B681846B5
:1010400004F0B8FC03463B823B8A184602F048F99C
:10105000904802F0D3F87B680C331B68184604F004
:10106000A9FC0346FB81FB89184602F039F989483F
:1010700002F0C4F87B6810331B68184604F09AFC31
:101080000346BB81BB89184602F02AF9814802F069
:10109000B5F87B6814331B68184604F08BFC0346D4
:1010A0007B817B89184602F01BF97A4802F0A6F88A
:1010B0007B6818331B68184604F07CFC03463B81B0
:1010C0003B89184602F00CF9724802F097F87B68E9
:1010D0001C331B68184604F06DFC0346BB75BB7DD2
:1010E000184602F0FDF86B4802F088F87B68203360
:1010F0001B68184604F05EFC03467B75BB7D1846F2
:1011000002F0EEF8634802F079F87B6824331B683C
:101110001846614905F01AF80346002B02D1002356
:10112000FB75DFE07B6824331B6818465B4905F0DC
:101130000DF80346002B02D10223FB75D2E07B6839
:1011400024331B681846564905F000F80346002B67
:1011500002D10923FB75C5E07B6824331B68184660
:10116000504904F0F3FF0346002B02D11C23FB750A
:10117000B8E07B6824331B6818464B4904F0E6FF4F
:101180000346002B02D19D23FB75ABE07B68243323
:101190001B681846454904F0D9FF0346002B02D1CD
:1011A0001A23FB759EE07B6824331B681846404970
:1011B00004F0CCFF0346002B02D15F23FB7591E0C6
:1011C0007B6824331B6818463A4904F0BFFF034686
:1011D000002B02D1E023FB7584E07B6824331B687D
:1011E0001846354904F0B2FF0346002B02D1ED2327
:1011F000FB7577E07B6824331B6818462F4904F0A1
:10120000A5FF0346002B02D1E323FB756AE07B6850
:1012100024331B6818462A4904F098FF0346002B24
:1012200002D1EE23FB755DE07B6824331B68184612
:10123000244904F08BFF0346002B02D1B123FB7538
:1012400050E07B6824331B6818461F4904F07EFF7A
:101250000346002B02D1FC23FB7543E07B6824335B
:101260001B681846194904F071FF0346002B02D190
:101270009223FB7536E07B6824331B6818461449BB
:1012800004F064FF0346002B24D1FF23FB7529E003
:10129000CCAB000894AA000898AA0008A0AA0008ED
:1012A000A8AA0008B4AA0008BCAA0008C8AA000896
:1012B000D0AA0008DCAA0008E4AA0008F0AA0008E6
:1012C000F8AA000808AB000810AB000818AB00082B
:1012D00020AB00087B6824331B68184604F06AFBC7
:1012E0000346FB757B6824331B68184601F086FFB4
:1012F0000A4801F083FFBC7D788A398AFA89BB8964
:101300007D8900953D89019502947C7D0394FC7D47
:10131000049400F081FE1837BD46B0BD58AB0008FC
:1013200080B584B000AF78600D4801F067FF7B683E
:1013300004331B68184604F03DFBF860FB68184650
:1013400001F0CEFF074801F059FF074801F056FFB2
:10135000FB68184600F0EEFB1037BD4680BD00BFAD
:10136000F0AB000894AA000810AC000880B584B067
:1013700000AF78606E4801F041FF7B6804331B6862
:1013800018466C4904F0E2FE0346002B02D100230C
:10139000FB73BDE07B6804331B681846664904F0A4
:1013A000D5FE0346002B02D10223FB73B0E07B681D
:1013B00004331B681846614904F0C8FE0346002B3D
:1013C00002D10923FB73A3E07B6804331B68184632
:1013D0005B4904F0BBFE0346002B02D11C23FB73C8
:1013E00096E07B6804331B681846564904F0AEFE4D
:1013F0000346002B02D19D23FB7389E07B680433F5
:101400001B681846504904F0A1FE0346002B02D188
:101410001A23FB737CE07B6804331B6818464B4936
:1014200004F094FE0346002B02D15F23FB736FE0B0
:101430007B6804331B681846454904F087FE034661
:10144000002B02D1E023FB7362E07B6804331B684E
:101450001846404904F07AFE0346002B02D1ED23E2
:10146000FB7355E07B6804331B6818463A4904F067
:101470006DFE0346002B02D1E323FB7348E07B683B
:1014800004331B681846354904F060FE0346002B00
:1014900002D1EE23FB733BE07B6804331B681846E4
:1014A0002F4904F053FE0346002B02D1B123FB73F6
:1014B0002EE07B6804331B6818462A4904F046FE78
:1014C0000346002B02D1FC23FB7321E07B6804332D
:1014D0001B681846244904F039FE0346002B02D14C
:1014E0009223FB7314E07B6804331B6818461F4982
:1014F00004F02CFE0346002B02D1FF23FB7307E010
:101500007B6804331B68184604F054FA0346FB73E7
:101510007B6804331B68184601F070FE144801F024
:101520006DFEFB7B184601F089F91037BD4680BD82
:1015300014AC000898AA0008A0AA0008A8AA0008ED
:10154000B4AA0008BCAA0008C8AA0008D0AA0008CB
:10155000DCAA0008E4AA0008F0AA0008F8AA00081B
:1015600008AB000810AB000818AB000820AB00085F
:1015700058AB000880B584B000AF78601F4801F018
:101580003DFE7B6804331B68184604F013FA0346DB
:10159000FB81FB89184601F0A3FE194801F02EFEDD
:1015A0007B6808331B68184604F004FA03467B7313
:1015B0007B7B184601F094FE114801F01FFE7B680A
:1015C0000C331B68184604F0F5F903467B817B7BDE
:1015D000184601F085FE0A4801F010FE094801F0A6
:1015E0000DFEFB89D9B27B89DBB27A7B08461146B6
:1015F0001A4601F02FFC1037BD4680BD3CAC0008F8
:1016000094AA000810AC000880B500AF014801F0B2
:10161000F5FD80BD5CAC000880B582B000AF78609D
:101620007B681B6818463D4904F090FD0346002B7B
:1016300003D17868FEF702FE6AE07B681B681846F3
:10164000374904F083FD0346002B03D17868FFF788
:101650009FF85DE07B681B681846324904F076FD10
:101660000346002B03D17868FFF75CFB50E07B68F2
:101670001B6818462C4904F069FD0346002B03D172
:101680007868FFF7BDFC43E07B681B681846274974
:1016900004F05CFD0346002B03D17868FFF7E6F900
:1016A00036E07B681B681846214904F04FFD03466D
:1016B000002B03D17868FFF733FE29E07B681B68B5
:1016C00018461C4904F042FD0346002B03D17868FC
:1016D000FFF74CFE1CE07B681B681846164904F0B7
:1016E00035FD0346002B03D17868FFF743FF0FE079
:1016F0007B681B681846114904F028FD0346002B3F
:1017000003D10F4801F07AFD02E00E4801F076FDAA
:1017100000237B600837BD4680BD00BF6CAA00086F
:1017200024B700082CB7000838B7000844B70008F1
:101730004CB7000854B7000860B7000868B7000845
:1017400070B7000888B7000880B58AB000AF78602D
:10175000396000237B6200233B620023FB6100238E
:10176000BB617B681B8A9BB27B627B6A23F440531C
:101770007B623B68DB887A6A13437B627B6A9AB23E
:101780007B681A827B689B899BB27B627B6A23F4AD
:10179000B05323F00C037B623B689A883B681B893B
:1017A00013439AB23B685B8913439BB27A6A134333
:1017B0007B627B6A9AB27B689A817B689B8A9BB2C8
:1017C0007B627B6A23F440737B623B689B897A6A05
:1017D00013437B627B6A9AB27B689A8207F10803A3
:1017E000184601F0BDFE7A68314B9A4203D07A6800
:1017F000304B9A4202D17B693B6201E03B693B621C
:101800007B689B899BB29BB21BB2002B0CDA3A6AB5
:1018100013469B0013449A001A443B681B685B0004
:10182000B2FBF3F3FB610BE03A6A13469B001344EF
:101830009A001A443B681B689B00B2FBF3F3FB6100
:10184000FA691D4BA3FB02135B091B017B627B6AD8
:101850001B09642202FB03F3FA69D31ABB617B689C
:101860009B899BB29BB21BB2002B0DDABB69DB00DC
:1018700003F13202104BA3FB02135B0903F00703D1
:101880007A6A13437B620CE0BB691B0103F13202ED
:10189000094BA3FB02135B0903F00F037A6A13439E
:1018A0007B627B6A9AB27B681A812837BD4680BD0D
:1018B00000100140001401401F85EB5180B483B03B
:1018C00000AF78600B46FB70FB78002B08D07B687C
:1018D0009B899BB243F400539AB27B689A8107E0DC
:1018E0007B689B899BB223F400539AB27B689A81F0
:1018F0000C37BD465DF8047B704700BF80B483B0F1
:1019000000AF78600B467B807B88C3F308039AB2F4
:101910007B689A800C37BD465DF8047B704700BF3A
:1019200080B487B000AF786013460A467A807B7037
:1019300000233B610023FB600023BB6000237B612D
:101940007B687B617B88DBB25B09DBB23B617B88B8
:1019500003F01F03FB60FB68012202FA03F3BB6084
:101960003B69012B03D17B690C337B6109E03B6947
:10197000022B03D17B6910337B6102E07B69143356
:101980007B617B78002B06D07B697A691168BA6825
:101990000A431A6006E07B697A691168BA68D24323
:1019A0000A401A601C37BD465DF8047B704700BFD3
:1019B00080B485B000AF78600B467B800023FB735A
:1019C0007B681B889AB27B8813409BB2002B02D0A5
:1019D0000123FB7301E00023FB73FB7B18461437E4
:1019E000BD465DF8047B704780B487B000AF786077
:1019F0000B467B800023FB6000237B610023BB60E0
:101A00000023FB747B88DBB25B09DBB2BB607B88A5
:101A100003F01F037B617B69012202FA03F37B6100
:101A2000BB68012B06D17B689B899BB27A69134006
:101A30007B610FE0BB68022B06D17B681B8A9BB2DF
:101A40007A6913407B6105E07B689B8A9BB27A6967
:101A500013407B617B881B0A9BB2FB60FB68012201
:101A600002FA03F3FB607B681B889BB2FA681340A1
:101A7000FB607B69002B05D0FB68002B02D00123A3
:101A8000FB7401E00023FB74FB7C18461C37BD4649
:101A90005DF8047B704700BF80B485B000AF78600C
:101AA0000B467B800023FB810023BB817B881B0AC4
:101AB000FB81FB89012202FA03F3BB81BB89DB4373
:101AC0009AB27B681A801437BD465DF8047B704774
:101AD00080B58AB000AF07F11003184601F040FD51
:101AE0003B697B627B6A114A82FB03129211DB170E
:101AF000D31A7B840220012101F0FAFD7B8CBB808C
:101B00000023FB8045F6C053BB600023BB8100234C
:101B1000BB733B1D0648194602F0ACFC044801218A
:101B200002F04CFD2837BD4680BD00BFD34D62108A
:101B30000004004080B582B000AF78600748002103
:101B400002F002FD00BF054802F00CFD02467B6872
:101B50009A42F8D30837BD4680BD00BF000400405C
:101B60002DE9B0438AB000AFF880B9807A803B801D
:101B70007A88FB88D31A7B623A88BB88D31A3B6287
:101B8000786A03F04BF902460B46904623F0004971
:101B90004046494603F042FC0346FB61386A03F0C5
:101BA0003DF902460B46144623F0004520462946DF
:101BB00003F034FC0346BB61FA69BB699A42C0F288
:101BC000B280386A03F02CFD0446786A03F028FDE1
:101BD00003462046194603F02BFE03467B617B6AD1
:101BE000002B54DB894B00221A604AE0FA88874BAD
:101BF0001B6813443B61864B00221A6036E0834B1E
:101C00001B68184603F00CFD03461846796903F07B
:101C10005BFD03461C46BB88184603F001FD0346E6
:101C20002046194603F048FC03461C46784B1B68C7
:101C3000184603F0F5FC03462046194603F03CFC29
:101C40000346184603F090FE0346FB603B6999B2D9
:101C5000FB689AB297F84430084611461A4602F0DB
:101C6000D7F96B4B1B685A1C694B1A6097F84020D8
:101C7000674B1B689A42C2DC644B1B685A1C634B5F
:101C80001A60624B1A687B6A9A42AFD149E05F4B97
:101C900000221A6040E0FA885C4B1B68D31A3B6153
:101CA0005B4B00221A602CE0BA88594B1B68134426
:101CB000184603F0B5FC0446544B1B68184603F065
:101CC000AFFC03461846796903F0FEFC0346204644
:101CD000194603F0EFFB0346184603F045FE0346A2
:101CE000FB603B6999B2FB689AB297F844300846AA
:101CF00011461A4602F08CF9454B1B685A1C444B9E
:101D00001A6097F84020424B1B689A42CCDC3F4B4C
:101D10001B685A1C3D4B1A603C4B1A68FB699A427F
:101D2000B9D1FB69B4E0786A03F07AFC0446386AFA
:101D300003F076FC03462046194603F079FD03467E
:101D40007B613B6A002B54DB304B00221A604AE077
:101D5000BA882E4B1B681344FB602D4B00221A607F
:101D600036E02A4B1B68184603F05AFC0346184617
:101D7000796903F0A9FC03461C46FB88184603F06A
:101D80004FFC03462046194603F096FB03461C46CB
:101D90001F4B1B68184603F043FC034620461946B8
:101DA00003F08AFB0346184603F0DEFD03463B6161
:101DB0003B6999B2FB689AB297F8443008461146DD
:101DC0001A4602F025F9124B1B685A1C104B1A6078
:101DD00097F840200E4B1B689A42C2DC0B4B1B68E5
:101DE0005A1C0A4B1A60094B1A683B6A9A42AFD1D7
:101DF0004DE0064B00221A6044E0BA88034B1B6892
:101E0000D31AFB60024B00221A6030E0C8080020A1
:101E1000CC080020FA88214B1B681344184603F0B5
:101E2000FFFB04461E4B1B68184603F0F9FB0346F4
:101E30001846796903F048FC03462046194603F02A
:101E400039FB0346184603F08FFD03463B613B69AF
:101E500099B2FB689AB297F84430084611461A4680
:101E600002F0D6F80D4B1B685A1C0C4B1A6097F801
:101E700040200A4B1B689A42CCDC094B1B685A1C59
:101E8000074B1A60064B1A68BB699A42B5D1BB6909
:101E900018462837BD46BDE8B08300BFCC080020F7
:101EA000C808002080B582B000AFF880B980FA7011
:101EB000BB700E4B00221A600FE0F988BA88BB781D
:101EC000084611461A4602F0A3F8084B1B685A1C34
:101ED000064B1A60FB880133FB80FA78034B1B68C2
:101EE0009A42EADC0837BD4680BD00BFD00800201A
:101EF00080B582B000AFF880B980FA70BB700E4B2D
:101F000000221A600FE0F988BA88BB7808461146AB
:101F10001A4602F07DF8084B1B685A1C064B1A60E3
:101F2000BB880133BB80FA78034B1B689A42EADC1A
:101F30000837BD4680BD00BFD008002080B586B000
:101F400000AFF880B980FA70BB7097F82430002B8E
:101F500049D100237B6140E0FB880133FB80BB88D3
:101F60000133BB807B69DBB21A46D201D31A5B0016
:101F7000DAB2FB781344FB737B69DBB21A46D201F9
:101F8000D31A5B00DAB2BB781344BB73F888B98804
:101F9000FA7B97F82830FFF785FFFB7B9AB2FB8826
:101FA000134498B2B988BA7B97F82830FFF7A0FF9E
:101FB000BB7B9AB2BB88134499B2F888FA7B97F836
:101FC0002830FFF76FFFF888B988BA7B97F8283078
:101FD000FFF78EFF7B6901337B6197F820207B69D7
:101FE0009A42B9DC14E000233B610DE03B699AB2F0
:101FF000BB88134499B2F888FA7897F82830FFF72D
:1020000051FF3B6901333B61BA783B699A42EDDC91
:102010001837BD4680BD00BF2DE9F04391B002AF37
:10202000F880B9807A803B80FA887B881A44B7F8B8
:1020300058301344904A82FB0312DB17D31AFB83F8
:10204000BA883B881A44B7F85C3013448A4A82FB4A
:102050000312DB17D31ABB83F888B9887A883B88C8
:1020600097F86460009697F868600196FFF778FD2E
:1020700078883988B7F85820B7F85C3097F86460EA
:10208000009697F868600196FFF76AFDB7F8580068
:10209000B7F85C10FA88BB8897F86460009697F8E8
:1020A00068600196FFF75CFD3B6E012B40F05081AC
:1020B00000233B6248E13B6A002B0CD17A88FB8805
:1020C000D31AFB623A88BB88D31ABB62FB887B6356
:1020D000BB883B6324E03B6A012B0ED1B7F8582044
:1020E0007B88D31AFB62B7F85C203B88D31ABB62AB
:1020F0007B887B633B883B6312E03B6A022B0FD1FA
:10210000FA88B7F85830D31AFB62BA88B7F85C304F
:10211000D31ABB62B7F858307B63B7F85C303B63C7
:10212000F86A02F07BFE02460B46144623F0004597
:102130002046294603F072F90346BB61B86A02F0F3
:102140006DFE02460B46904623F000494046494644
:1021500003F064F903467B61BA697B699A4277DBD5
:10216000B86A03F05DFA0646F86A03F059FA0346C6
:102170003046194603F05CFB03463B61FB6A002BCB
:1021800033DB00237B622BE07A6A7B6B1344FB60BA
:10219000786A03F045FA03461846396903F094FA61
:1021A00003461E46386B03F03BFA03463046194699
:1021B00003F082F90346184603F0D6FB0346BB60E2
:1021C000FB689AB2BB689BB2F88BB98B012600966C
:1021D00097F868600196FFF7C3FC7B6A01337B6266
:1021E0007A6AFB6A9A42CFD1ABE000237B622AE095
:1021F0007A6B7B6AD31AFB60386B03F011FA0646E0
:10220000786A03F00DFA03461846396903F05CFA60
:1022100003463046194603F04DF90346184603F0CD
:10222000A3FB0346BB60FB689AB2BB689BB2F88B0A
:10223000B98B0126009697F868600196FFF790FC2D
:102240007B6A01337B627A6ABB699A42D0D178E0BB
:10225000F86A03F0E5F90646B86A03F0E1F90346C7
:102260003046194603F0E4FA03463B61BB6A002B93
:1022700035DB00237B622DE056555555786A03F017
:10228000CFF903461846396903F01EFA03461E4685
:10229000786B03F0C5F903463046194603F00CF994
:1022A0000346184603F060FB0346FB603A6B7B6A0B
:1022B0001344BB60FB689AB2BB689BB2F88BB98BC6
:1022C0000126009697F868600196FFF749FC7B6A43
:1022D00001337B627A6ABB6A9A42CFD131E0002334
:1022E0007B622AE0786B03F09BF90646786A03F07C
:1022F00097F903461846396903F0E6F90346304674
:10230000194603F0D7F80346184603F02DFB0346A1
:10231000FB603A6B7B6AD31ABB60FB689AB2BB68FE
:102320009BB2F88BB98B0126009697F868600196EE
:10233000FFF716FC7B6A01337B627A6A7B699A42FB
:10234000D0D13B6A01333B623B6A022B7FF7B3AECD
:102350003C37BD46BDE8F083F0B5ADF6B47D00AFC7
:102360000446084611461A46BB1D1C803B1D1880BA
:10237000BB1C19803B461A800023C7F8AC3F2E4B8C
:1023800000221A604DE02C4B1A682B4B1B689BB245
:10239000B91D0988CB1A99B207F2DC7323F8121021
:1023A000BB1C1A88244B1B681A44B91DBB1C098826
:1023B0001B880B4499B2204B1B689BB2CB1A99B275
:1023C00007F2DC7323F81210BB1C1B885A001A4B4F
:1023D0001B681A44184B1B6899B2BB1D1B880B4421
:1023E00099B207F2DC7323F81210BB1C1A8813464B
:1023F0005B001A44104B1B681A44B91DBB1C0988AA
:102400001B88CB1A99B20C4B1B689BB20B4499B238
:1024100007F2DC7323F81210074B1B685A1C064B9B
:102420001A60BB1C1A88044B1B689A42ABDA024B39
:1024300000221A6017E100BFC8080020934B1E68F5
:102440003B1D1B88184602F0E9FC04460D463B463E
:102450001B883A46128802FB03F23B461B8839462A
:10246000098801FB03F3894909688848006800FB73
:1024700001F101FB03F1BB1C1B88B81C008800FBA9
:1024800003F391FBF3F3D31A184602F0C7FC02469C
:102490000B461046194602F02FFA02460B4620461C
:1024A000294602F06DFB02460B461046194602F023
:1024B000DDFF03469AB207F10C0323F81620BB1C7C
:1024C0001B885A00714B1B68D61A3B1D1B88184687
:1024D00002F0A4FC04460D463B461B883A4612888F
:1024E00002FB03F23B461B883946098801FB03F3D4
:1024F000664909686548006800FB01F101FB03F1CA
:10250000BB1C1B88B81C008800FB03F391FBF3F392
:10251000D31A184602F082FC02460B4610461946B2
:1025200002F0EAF902460B462046294602F028FB53
:1025300002460B461046194602F098FF03469AB22F
:1025400007F10C0323F81620BB1C1B885A004F4BC5
:102550001B68D6183B1D1B88184602F05FFC04461A
:102560000D463B461B883A46128802FB03F23B4667
:102570001B883946098801FB03F34449096843482D
:10258000006800FB01F101FB03F1BB1C1B88B81CB8
:10259000008800FB03F391FBF3F3D31A184602F013
:1025A0003DFC02460B461046194602F0A5F90246CC
:1025B0000B462046294602F0E5FA02460B46104635
:1025C000194602F053FF03469AB207F10C0323F8B1
:1025D0001620BB1C1B889A002C4B1B68D61A3B1D6F
:1025E0001B88184602F01AFC04460D463B461B8821
:1025F0003A46128802FB03F23B461B88394609889B
:1026000001FB03F3214909682048006800FB01F140
:1026100001FB03F1BB1C1B88B81C008800FB03F303
:1026200091FBF3F3D31A184602F0F8FB02460B466F
:102630001046194602F060F902460B46204629462C
:1026400002F0A0FA02460B461046194602F00EFFB1
:1026500003469AB207F10C0323F816200B4B1B68B4
:102660005A1C0A4B1A60BB1C1A88084B1B689A42FA
:10267000BFF6E4AEB7F8C83F002B7ED1B7F8CC3F29
:10268000012B56D9014B00221A601FE0C808002018
:10269000694B1A6807F2DC7333F81200664B1A684C
:1026A00007F10C0333F81220B7F8CC3F5B089BB25C
:1026B000134499B2B7F8CC3FDAB297F8D03FFFF79E
:1026C00017FC5D4B1B685A1C5B4B1A60BB1C1B88BC
:1026D0005A00594B1B689A42DADCBB1C1B885A0013
:1026E000554B1A601DE0544B1A6807F2DC7333F83F
:1026F0001200514B1A6807F10C0333F81220B7F897
:10270000CC3F5B089BB2D31A99B2B7F8CC3FDAB290
:1027100097F8D03FFFF7ECFB474B1B685A1C464B22
:102720001A60BB1C1B889A00434B1B689A42DADC78
:102730007EE0414B00221A6017E03F4B1A6807F217
:10274000DC7333F812103C4B1A6807F10C0333F8B2
:10275000122097F8D03F084611461A4601F058FC5F
:10276000354B1B685A1C344B1A60BB1C1B889A00E3
:10277000314B1B689A42E0DC5AE02F4B00221A6072
:1027800022E03B1D1A882C4B196807F10C0333F823
:102790001130D31AC7F8AC3F274B1A6807F2DC7325
:1027A00033F81200244B1A6807F10C0333F81210A7
:1027B000D7F8AC3FDAB297F8D03FFFF799FB1E4B42
:1027C0001B685A1C1C4B1A60BB1C1B885A001A4BF6
:1027D0001B689A42D5DCBB1C1B885A00164B1A603A
:1027E0001FE0154B1A6807F10C0333F812301A4634
:1027F0003B1D1B88D31AC7F8AC3F0F4B1A6807F272
:10280000DC7333F81200D7F8AC3FDAB23B1D1988FD
:1028100097F8D03FFFF76CFB074B1B685A1C064B21
:102820001A60BB1C1B889A00034B1B689A42D8DABB
:1028300007F6B477BD46F0BDC808002080B582B069
:1028400000AF0346FB71FB79184601F0BDFB08376A
:10285000BD4680BD80B58CB000AFBA600246FA813B
:102860000A46BA81FB71002387F8213001237B845B
:102870000823FB830023BB8397F83830002B24D137
:1028800097F83C30002B20D197F84030082B1CD112
:102890009D4BDB88FB849C4B9A69BB6813441B7877
:1028A000FB76994B5A69FB7E13441B7887F82530D9
:1028B000954B1A69FB7E9B0013441B687B61924B0E
:1028C000DA687B691344BB62D1E197F83830002B9A
:1028D00024D197F83C30002B20D197F840300C2BB6
:1028E0001CD18A4BDB88FB84884B9A69BB681344F4
:1028F0001B78FB76854B5A69FB7E13441B7887F85F
:102900002530824B1A69FB7E9B0013441B687B6158
:102910007E4BDA687B691344BB62A8E197F83830D4
:10292000002B24D197F83C30002B20D197F8403071
:10293000142B1CD1764BDB88FB84754B9A69BB68E2
:1029400013441B78FB76724B5A69FB7E13441B7849
:1029500087F825306E4B1A69FB7E9B0013441B6879
:102960007B616B4BDA687B691344BB627FE197F84C
:102970003830002B24D197F83C30012B20D197F828
:102980004030082B1CD1634BDB88FB84614B9A6978
:10299000BB6813441B78FB765E4B5A69FB7E13447D
:1029A0001B7887F825305B4B1A69FB7E9B0013442C
:1029B0001B687B61574BDA687B691344BB6256E145
:1029C00097F83830002B24D197F83C30012B20D1D8
:1029D00097F840300C2B1CD14F4BDB88FB844E4BBF
:1029E0009A69BB6813441B78FB764B4B5A69FB7E94
:1029F00013441B7887F82530474B1A69FB7E9B00F0
:102A000013441B687B61444BDA687B691344BB62E7
:102A10002DE197F83830002B24D197F83C30012B6A
:102A200020D197F84030142B1CD13C4BDB88FB8421
:102A30003A4B9A69BB6813441B78FB76374B5A694B
:102A4000FB7E13441B7887F82530344B1A69FB7ED4
:102A50009B0013441B687B61304BDA687B6913442D
:102A6000BB6204E197F83830012B24D197F83C3051
:102A7000002B20D197F84030082B1CD1284BDB8845
:102A8000FB84274B9A69BB6813441B78FB76244B65
:102A90005A69FB7E13441B7887F82530204B1A694E
:102AA000FB7E9B0013441B687B611D4BDA687B69CE
:102AB0001344BB62DBE097F83830012B34D197F830
:102AC0003C30002B30D197F840300C2B2CD1154BDB
:102AD000DB88FB84134B9A69BB6813441B78FB7635
:102AE000104B5A69FB7E13441B7887F825300D4B39
:102AF0001A69FB7E9B0013441B687B61094BDA68F3
:102B00007B691344BB62B2E0D4C90008C8D6000890
:102B1000607C01084CFA01086CB80108A8F10108B2
:102B200048C10008545F010897F83830012B24D1C0
:102B300097F83C30002B20D197F84030142B1CD153
:102B4000A14BDB88FB84A04B9A69BB6813441B78BC
:102B5000FB769D4B5A69FB7E13441B7887F8253022
:102B6000994B1A69FB7E9B0013441B687B61964B53
:102B7000DA687B691344BB6279E097F83830012B3F
:102B800024D197F83C30012B20D197F84030082B06
:102B90001CD18E4BDB88FB848C4B9A69BB68134439
:102BA0001B78FB76894B5A69FB7E13441B7887F8A8
:102BB0002530864B1A69FB7E9B0013441B687B61A2
:102BC000824BDA687B691344BB6250E097F8383077
:102BD000012B24D197F83C30012B20D197F84030BD
:102BE0000C2B1CD17A4BDB88FB84794B9A69BB6830
:102BF00013441B78FB76764B5A69FB7E13441B7893
:102C000087F82530724B1A69FB7E9B0013441B68C2
:102C10007B616F4BDA687B691344BB6227E097F8EE
:102C20003830012B23D197F83C30012B1FD197F876
:102C30004030142B1BD1674BDB88FB84654B9A69B2
:102C4000BB6813441B78FB76624B5A69FB7E1344C6
:102C50001B7887F825305F4B1A69FB7E9B00134475
:102C60001B687B615B4BDA687B691344BB6297F836
:102C70002520FB8B92FBF3F37B8497F82530FA8BAE
:102C800093FBF2F102FB01F29B1ABB83BB8B002B7F
:102C900002D07B8C01337B84002387F82F3085E0C2
:102CA000002387F82E3076E097F82F307A8C02FBDD
:102CB00003F31A4697F82E301344BA6A13441B786C
:102CC000FB74002387F82D305AE0FA7CF98B97F8D3
:102CD0002D30DB430B4442FA03F3DBB203F0010374
:102CE00087F8213097F82E30FA8B02FB03F297F821
:102CF0002D301A4497F825309A4200DB46E097F8C9
:102D00002130012B1BD197F82E309BB2FA8B02FB9E
:102D100003F39AB2FB8913449AB297F82D309BB211
:102D2000134499B297F82F309AB2BB8913449AB2E0
:102D3000FB79084611461A4601F06AF91BE097F83C
:102D40002E309BB2FA8B02FB03F39AB2FB89134439
:102D50009AB297F82D309BB2134499B297F82F305E
:102D60009AB2BB8913449AB297F844300846114688
:102D70001A4601F04DF997F82D30013387F82D30C0
:102D800097F82D309BB2FA8B9A429ED897F82E3046
:102D9000013387F82E3097F82E309BB27A8C9A4206
:102DA00082D897F82F30013387F82F3097F82F30DB
:102DB0009BB2FA8C9A423FF673AF97F825309BB2DC
:102DC00018463037BD4680BDDC9D0108B85001086B
:102DD000B0AB010830D6010890B58DB004AFBA6031
:102DE0000246FA810A46BA81FB710023FB61002387
:102DF000FB76B86803F0B8FA03467B610023FB61F9
:102E000021E0FB7E9AB2FB891344FB81FB69BA681F
:102E100013441B781A46F889B989FB7997F8304032
:102E2000009497F83440019497F83840029497F84A
:102E30003C400394FFF70EFD03467B827B8AFB76C2
:102E4000FB690133FB61FA697B699A42D9DD24375A
:102E5000BD4690BD80B584B000AF13460246FA71FE
:102E60000A46BA717B7100237B810023FB8100231A
:102E7000BB817B79F02B02D98D4803F0C7F8FB7931
:102E8000013B052B00F24B8101A252F823F000BF59
:102E9000A92E00080D2F0008712F0008D52F00085B
:102EA000393000089D300008824B00221A607B797F
:102EB000FB8125E0BB79BB811AE07B891A46920031
:102EC00013441B019AB2BB89134499B2794B1B6816
:102ED000794AD35CFA89084611461A4601F098F8F7
:102EE000744B1B685A1C734B1A60BB890133BB813E
:102EF000BA89BB7950339A42DFDBFB890133FB810E
:102F0000FA897B793C339A42D4DB0CE1694B00228D
:102F10001A607B79FB8125E0BB79BB811AE07B8954
:102F20001A46920013441B019AB2BB89134499B20A
:102F3000604B1B68614AD35CFA89084611461A4601
:102F400001F066F85B4B1B685A1C5A4B1A60BB8930
:102F50000133BB81BA89BB7950339A42DFDBFB89ED
:102F60000133FB81FA897B793C339A42D4DBDAE086
:102F7000504B00221A607B79FB8125E0BB79BB8135
:102F80001AE07B891A46920013441B019AB2BB894E
:102F9000134499B2474B1B68494AD35CFA890846E7
:102FA00011461A4601F034F8424B1B685A1C414B3B
:102FB0001A60BB890133BB81BA89BB7950339A420D
:102FC000DFDBFB890133FB81FA897B793C339A4251
:102FD000D4DBA8E0374B00221A607B79FB8125E027
:102FE000BB79BB811AE07B891A46920013441B010E
:102FF0009AB2BB89134499B22E4B1B68314AD35CF9
:10300000FA89084611461A4601F002F8294B1B6856
:103010005A1C284B1A60BB890133BB81BA89BB7922
:1030200050339A42DFDBFB890133FB81FA897B79DC
:103030003C339A42D4DB76E01E4B00221A607B7947
:10304000FB8125E0BB79BB811AE07B891A4692009F
:1030500013441B019AB2BB89134499B2154B1B68E8
:10306000194AD35CFA89084611461A4600F0D0FF87
:10307000104B1B685A1C0F4B1A60BB890133BB8174
:10308000BA89BB7950339A42DFDBFB890133FB817C
:10309000FA897B793C339A42D4DB44E0054B002229
:1030A0001A607B79FB8134E0BB79BB8129E000BFEA
:1030B00064470108C8080020E4D60008A4E9000815
:1030C00064FC0008240F0108E42101087B891A46EA
:1030D000920013441B019AB2BB89134499B2134B5B
:1030E0001B68134AD35CFA89084611461A4600F059
:1030F0008FFF0E4B1B685A1C0C4B1A60BB890133A7
:10310000BB81BA89BB7950339A42DFDBFB8901333B
:10311000FB81FA897B793C339A42C5DB03E00548A1
:1031200000F06CF800BF1037BD4680BDC808002015
:10313000A43401089C47010880B586B000AF4FF465
:103140000030012100F0D4FA0120012100F0B2FA90
:103150000C233B6102233B750023BB750123FB75E8
:1031600002237B7507F110031648194600F0FCFA9C
:1031700014480221072200F085FB12480321072290
:1031800000F080FB4FF4E1333B600023BB80002361
:10319000FB8000233B810023BB810C237B813B46CA
:1031A00009481946FEF7D0FA074840F22551012296
:1031B000FEF7B6FB04480121FEF780FB1837BD4639
:1031C00080BD00BF000002400044004080B582B0D6
:1031D00000AF0346FB7100BF07488021FEF7E8FB04
:1031E0000346002BF8D0FB799BB203481946FEF743
:1031F00085FB0837BD4680BD0044004080B584B0E3
:1032000000AF78600023FB6009E0FB687A68134434
:103210001B781846FFF7DAFFFB680133FB60FB6899
:103220007A6813441B78002BEFD11037BD4680BD60
:1032300080B582B000AF274840F22551FEF7D4FB9D
:103240000346002B43D0234840F22551FEF724FCCF
:10325000204B9B889BB2FB70FB78402B05D9FB78F9
:103260005A2B02D8FB782033FB70FB780D2B1CD82F
:1032700000237B600AE0184A7B6813441B781548DA
:103280001946FEF73BFB7B6801337B60134B1B68E1
:103290007A689A42EFDB114B00221A60FB789BB2EE
:1032A0000C481946FEF72AFB09E00C4B1B680A4A3A
:1032B000F978D154094B1B685A1C084B1A6000BF9F
:1032C00004484021FEF774FB0346002BF8D0083772
:1032D000BD4680BD004400401C360120D4080020BB
:1032E00080B582B000AF786078680A2100F004F8F9
:1032F0000837BD4680BD00BF80B588B000AF78609C
:103300000B46FB700F23FB617B68002B09D107F193
:103310000802FB69134430221A70FB69013BFB6110
:1033200022E01EE0FA787B68B3FBF2F102FB01F2C7
:103330009B1ABB61FB787A68B2FBF3F37B60194A96
:10334000BB6913441B78DAB207F10801FB690B442F
:103350001A70FB69013BFB61FB69002B01D1002363
:103360007B607B68002BDDD115E0FB690133FB61DD
:1033700000BF0D488021FEF71BFB0346002BF8D051
:1033800007F10802FB6913441B785BB29BB2064845
:103390001946FEF7B3FAFB690E2BE6DD2037BD4672
:1033A00080BD00BF000000200044004080B582B016
:1033B00000AFFF23FB7108482021FEF7F9FA03460E
:1033C000012B03D1044B9B889BB2FB71FB79184600
:1033D0000837BD4680BD00BF0044004080B582B0C4
:1033E00000AF78603960FFF7E1FF03461A467B685B
:1033F0001A707B681B78FF2B03D07B681B780A2B25
:1034000001D100BFEFE73B68002B04D07B681B783D
:103410001846FFF7DBFE7B681B780D2B03D17B681A
:1034200000221A7003E07B6801337B60DBE708371A
:10343000BD4680BD80B582B000AF104B7B60104BA5
:103440003B6007E03B681A1D3A607A68111D79609D
:1034500012681A603A680B4B9A42F3D30A480B4938
:103460004FF000028842B8BF40F8042BFFF6FAAFD5
:1034700000F012F80837BD4680BD00BF00FD01080E
:1034800000000020C8080020C80800208436012061
:1034900080B400AFFEE700BF80B594B000AF00F08D
:1034A00037FA00F051FD002000F08EFDFEF710FB12
:1034B000FFF742FEFEF7A8F80023BB6007F10C02FD
:1034C0003C23104600211A4602F052FD0023FB6403
:1034D0002C2387F84B3007F1080318460021FFF72B
:1034E0007DFF07F1080097F84B103A463B1DFCF7AB
:1034F0004BFE0023FB641FE0FB6C1846FFF7F0FE59
:103500001348FFF77BFE3A68FB6C9B0013441B6873
:10351000002B0BD03A68FB6C9B0013441B681846C9
:10352000FFF76CFE0B48FFF769FE02E00A48FFF761
:1035300065FEFB6C0133FB647B68FA6C9A42DBDD51
:103540000648FFF75BFE3B681846FEF765F8C2E7E2
:103550007C7C0108807C0108847C01088C7C01084B
:1035600080B489B000AF78600023BB6100237B6129
:103570000023FB6102233B610023FB600223BB604D
:10358000484B9B6803F00C03BB61BB69042B07D05D
:10359000082B09D0002B3FD17B68434A1A603FE0DB
:1035A0007B68424A1A603BE03E4B5B6803F4800351
:1035B0009B0DFB603B4B5B6803F03F03BB60FB680C
:1035C000002B0DD0394ABB68B2FBF3F2354B59687A
:1035D00047F6C0730B409B0903FB02F3FB610CE051
:1035E000314ABB68B2FBF3F22E4B596847F6C07301
:1035F0000B409B0903FB02F3FB612A4B5B6803F45E
:1036000040331B0C01335B003B61FA693B69B2FB41
:10361000F3F27B681A6003E07B68234A1A6000BFFC
:10362000204B9B6803F0F003BB61BB691B09BB61C6
:103630001F4ABB6913441B78DBB27B617B681A6845
:103640007B69DA407B685A60164B9B6803F4E05351
:10365000BB61BB699B0ABB61154ABB6913441B78FC
:10366000DBB27B617B685A687B69DA407B689A6071
:103670000C4B9B6803F46043BB61BB695B0BBB6194
:103680000B4ABB6913441B78DBB27B617B685A68C9
:103690007B69DA407B68DA602437BD465DF8047BDD
:1036A000704700BF003802400024F40000127A0086
:1036B0001000002080B483B000AF78600B46FB7030
:1036C000FB78002B06D0094B084A116B7A680A4335
:1036D0001A6306E0054B054A116B7A68D2430A402B
:1036E0001A630C37BD465DF8047B70470038024012
:1036F00080B483B000AF78600B46FB70FB78002B82
:1037000006D0094B084A116C7A680A431A6406E02D
:10371000054B054A116C7A68D2430A401A640C378B
:10372000BD465DF8047B70470038024080B483B02A
:1037300000AF78600B46FB70FB78002B06D0094B7E
:10374000084A516C7A680A435A6406E0054B054AF8
:10375000516C7A68D2430A405A640C37BD465DF812
:10376000047B70470038024080B487B000AF7860B7
:10377000396000237B6100233B610023FB60002351
:103780007B6176E07B69012202FA03F33B613B68CF
:103790001A683B691340FB60FA683B699A4265D13D
:1037A0007B681A687B695B00032101FA03F3DB4342
:1037B0001A407B681A607B681A683B681B79194657
:1037C0007B695B0001FA03F31A437B681A603B686C
:1037D0001B79012B03D03B681B79022B2ED17B6810
:1037E0009A687B695B00032101FA03F3DB431A400B
:1037F0007B689A607B689A683B685B7919467B694D
:103800005B0001FA03F31A437B689A607B685A688D
:103810007B699BB2012101FA03F3DB431A407B6809
:103820005A607B685A683B689B7919467B699BB2F2
:1038300001FA03F39BB21A437B685A607B68DA682B
:103840007B699BB25B00032101FA03F3DB431A405F
:103850007B68DA607B68DA683B68DB7919467B69EC
:103860005B0001FA03F31A437B68DA607B6901337A
:103870007B617B690F2B85D91C37BD465DF8047BC6
:10388000704700BF80B485B000AF786013460A4629
:103890007A807B700023FB600023BB607A787B8892
:1038A00003F007039B0002FA03F3FB607B88DB084D
:1038B0009BB21A467B88DB089BB219467B680831AD
:1038C00053F821107B8803F007039B000F2000FAB8
:1038D00003F3DB4319407B68083243F822107B88EE
:1038E000DB089BB21A467B68083253F82220FB683B
:1038F0001343BB607B88DB089BB21A467B680832A7
:10390000B96843F822101437BD465DF8047B704750
:1039100080B500AF114B114A126842F001021A60E3
:103920000E4B00229A600D4A0C4B1B6823F08473E7
:1039300023F480331360094B094A5A60074B074A46
:10394000126822F480221A60044B0022DA6000F030
:103950000BF8044B4FF000629A6080BD00380240C3
:103960001030002400ED00E080B483B000AF0023ED
:103970007B6000233B60354B344A126842F480324E
:103980001A60324B1B6803F400333B607B680133E1
:103990007B603B68002B03D17B68B3F5A06FF0D14F
:1039A0002A4B1B6803F40033002B02D001233B6039
:1039B00001E000233B603B68012B42D1234B234AAB
:1039C000126C42F080521A64214B214A126842F470
:1039D00080421A601D4B1D4A92689A601B4B1B4A1D
:1039E000926842F400429A60184B184A926842F476
:1039F000A0529A60154B174A5A60144B134A12682A
:103A000042F080721A6000BF104B1B6803F0007315
:103A1000002BF9D0104B40F205621A600B4B0B4A99
:103A2000926822F003029A60084B084A926842F0BA
:103A300002029A6000BF054B9B6803F00C03082B41
:103A4000F9D10C37BD465DF8047B70470038024061
:103A50000070004008544007003C024080B485B02C
:103A600000AF78600B4B1B68002B02D1094B0A4A50
:103A70001A60084B1B68FB60064B1A687B681A4487
:103A8000044B1A60FB6818461437BD465DF8047B8A
:103A9000704700BFD80800208436012080B483B06E
:103AA00000AF78604FF0FF3318460C37BD465DF825
:103AB000047B704780B483B000AF786039603B68A6
:103AC0004FF400525A60002318460C37BD465DF88B
:103AD000047B704780B483B000AF78600123184640
:103AE0000C37BD465DF8047B704700BF80B485B0DD
:103AF00000AFF860B9607A60002318461437BD46FD
:103B00005DF8047B704700BF80B485B000AFF860FB
:103B1000B9607A607B6818461437BD465DF8047B4F
:103B2000704700BF80B485B000AFF860B9607A60BC
:103B30007B6818461437BD465DF8047B704700BFAC
:103B400080B483B000AF78607B681B6823F001020B
:103B50007B681A607B6800221A607B6800225A60CA
:103B60007B6800229A607B680022DA607B68002212
:103B70001A617B6821225A617A68454B9A4203D1C7
:103B8000444B3D229A607EE07A68434B9A4204D1CE
:103B9000404B4FF474629A6075E07A683F4B9A42EA
:103BA00004D13C4B4FF474129A606CE07A683C4B41
:103BB0009A4204D1374B4FF074629A6063E07A689E
:103BC000384B9A4203D1334B374ADA605BE07A686C
:103BD000364B9A4203D12F4B354ADA6053E07A686C
:103BE000344B9A4203D12B4B334ADA604BE07A686C
:103BF000324B9A4204D1274B4FF03D52DA6042E0FB
:103C00007A682F4B9A4203D12E4B3D229A603AE0BC
:103C10007A682D4B9A4204D12A4B4FF474629A6011
:103C200031E07A68294B9A4204D1264B4FF4741242
:103C30009A6028E07A68264B9A4204D1214B4FF0D3
:103C400074629A601FE07A68224B9A4203D11D4B3E
:103C5000154ADA6017E07A681F4B9A4203D1194B74
:103C6000134ADA600FE07A681C4B9A4203D1154B75
:103C7000114ADA6007E07A68194B9A4203D1114B76
:103C80004FF03D52DA600C37BD465DF8047B70475B
:103C90001060024000600240286002404060024024
:103CA00058600240706002403D0000208860024081
:103CB000400F0020A060024000003D20B86002409C
:103CC00010640240006402402864024040640240E4
:103CD000586402407064024088640240A06402405C
:103CE000B864024080B485B000AF786039600023CA
:103CF000FB607B681B68FB60FA68244B1340FB6029
:103D00003B681A683B68DB681A433B685B691A4387
:103D10003B689B691A433B68DB691A433B681B6A33
:103D20001A433B685B6A1A433B689B6A1A433B68C9
:103D30005B6B1A433B689B6B1343FA681343FB604E
:103D40007B68FA681A607B685B69FB60FB6823F03C
:103D50000703FB603B68DA6A3B681B6B1343FA6836
:103D60001343FB607B68FA685A613B681A697B6899
:103D70005A603B685A687B689A603B689A687B68BF
:103D8000DA601437BD465DF8047B70473F801CF055
:103D900080B483B000AF78600B46FB70FB78002BDB
:103DA00006D07B681B6843F001027B681A6005E05F
:103DB0007B681B6823F001027B681A600C37BD46E4
:103DC0005DF8047B704700BF80B485B000AFF86039
:103DD000B9601346FB71BB6803F08003002B0FD062
:103DE000FB79002B06D0FB685B6943F08002FB681F
:103DF0005A6105E0FB685B6923F08002FB685A6149
:103E0000BB68802B14D0FB79002B08D0FB681A68A4
:103E1000BB6803F01E031A43FB681A6008E0FB68E6
:103E20001A68BB6803F01E03DB431A40FB681A6084
:103E30001437BD465DF8047B704700BF80B487B07F
:103E400000AF786039600023FB750023FB6000231E
:103E5000BB607A68224B9A4202D8224B3B6101E058
:103E6000214B3B613B6823F0F02323F0C313002B6D
:103E70000AD03B68DB0A03F01E03FB607B681A680C
:103E8000FB681340BB6004E07B685B6903F0800360
:103E9000BB603B6803F00053002B03D03B695B68B9
:103EA000FB6002E03B691B68FB60FB6823F0F023CA
:103EB00023F08213FB60FA683B681340002B05D0A7
:103EC000BB68002B02D00123FB7501E00023FB75CA
:103ED000FB7D18461C37BD465DF8047B704700BF6C
:103EE0000F640240006002400064024080B485B06C
:103EF00000AF786039607A68104B9A4202D8104B54
:103F0000FB6001E00F4BFB603B6803F00053002BAC
:103F100007D03B6823F0F02323F08213FA68D360C4
:103F200006E03B6823F0F02323F08213FA689360E5
:103F30001437BD465DF8047B704700BF0F64024034
:103F4000006002400064024080B582B000AF1B4BAD
:103F500000221A80194B00225A60184B00229A60E6
:103F60000023BB8017E00023FB800DE0BA881346D6
:103F70009B0013449B011A44FB881344104A002100
:103F8000D154FB880133FB80FB88B3F5A07FEDD9CA
:103F9000BB880133BB80BB88EF2BE4D900F05EF80F
:103FA00000F0B0F800F03EF900F010F9054B1A6887
:103FB000024B9A600837BD4680BD00BF1C09002037
:103FC000280900208864024080B584B000AF034611
:103FD000FB710023BB8114E00023FB810AE0F98917
:103FE000BA89FB79084611461A4600F011F8FB8998
:103FF0000133FB81FB89B3F5A07FF0D3BB8901338B
:10400000BB81BB89EF2BE7D91037BD4680BD00BF10
:1040100080B483B000AF13460246FA800A46BA80E5
:10402000FB70FB88B3F5A07F01D30023FB80BB8826
:10403000EF2B01D90023BB80BA8813469B001344A1
:104040009B011A44FB881344034AF978D1540C3776
:10405000BD465DF8047B70472809002080B582B01A
:1040600000AF10200121FFF725FB4FF47F433B6099
:1040700001233B710023BB710123FB7103237B717F
:104080003B461E481946FFF76FFB1C4B4FF47F421F
:104090005A8302200121FFF70DFB4FF400633B60C0
:1040A00002233B7103237B710023BB710123FB714E
:1040B0003B4613481946FFF757FB11480B210122D5
:1040C000FFF7E0FB02200121FFF7F4FA4FF48053E1
:1040D0003B6001233B710023BB710123FB71032370
:1040E0007B713B4606481946FFF73EFB044B4FF4F5
:1040F00080521A830837BD4680BD00BF00100240C1
:104100000004024080B588B000AF01200121FFF714
:104110000DFB0B23BB610023BB820023BB83002369
:10412000FB8207F114032848194600F0A3F9012087
:104130000121FFF7DDFA40F66B23BB610023BB8250
:104140000023BB830023FB8207F114034FF0804060
:10415000194600F08FF960233B8001237B804FF4E8
:10416000D273BB600223BB813B464FF080401946AF
:1041700000F044FA4FF08040082100F02BFB602350
:104180003B8001237B804FF4A073BB600223BB8183
:104190003B464FF08040194600F0B6FA4FF08040A1
:1041A000082100F033FB0848012100F0E7F94FF047
:1041B0008040012100F0E2F94FF08040012100F041
:1041C000FDF92037BD4680BD0000014080B582B0BA
:1041D00000AF134810210122FFF7F6FD44233B7185
:1041E00000237B710023BB710123FB713B1D18462B
:1041F00000F0E2F84FF080400821012200F024FB9B
:104200001C233B7100237B710023BB710123FB71D5
:104210003B1D184600F0D0F80837BD4680BD00BFF2
:104220008864024080B590B000AF4FF48000012157
:10423000FFF740FA1B480021FFF7AAFD1948FFF7D6
:104240007FFC4FF040637B60174BBB60174BFB60FC
:1042500040233B6140F241137B610023BB614FF47B
:104260008063FB6100233B6200237B620023BB620F
:104270004FF44033FB6200233B6301237B63002345
:10428000BB630023FB633B1D06481946FFF72AFD6D
:1042900007484FF48071012200F00AFB4037BD4609
:1042A00080BD00BF8864024015100240280900202C
:1042B0000000014080B500AF4FF08040082100F0C1
:1042C000E7FA254B1B8801339AB2234B1A80224B05
:1042D0001B88B3F5037F05D91F4B00221A801F4AA4
:1042E0001D4B5A601C4B1B88012B04D81C4B4FF4F0
:1042F00080525A8303E01A4B4FF480521A83164BB4
:104300001B88232B27D9144B1A8840F202239A4288
:1043100021D8144B104A92681A60124B0E4A526808
:10432000DA60114B104A128892B242F0010292B246
:104330001A800C4B0B4A126842F001021A60064BBD
:104340001B8803F00103002B05D0034B5B6803F2CD
:104350004112014B5A6080BD1C0900202809002031
:1043600000040240886402400000014080B500AFB4
:104370000D480E49FFF762FD0346002B12D00A4894
:104380000A49FFF7B3FD0A4B094A128892B222F09C
:10439000010292B21A80044B00221A60054B4FF4BE
:1043A0007F425A8380BD00BF88640240008800209D
:1043B000000001400010024080B485B000AF78607A
:1043C0000023FB730023BB730F237B737B68DB78B5
:1043D000002B37D0254BDB68DB4303F4E0631B0A7B
:1043E000FB73FB7BC3F10403BB737A7BFB7B42FA59
:1043F00003F37B737B685B781A46BB7B02FA03F39B
:10440000FB737B689A787B7B1340DAB2FB7B1343A8
:10441000FB73FB7B1B01FB73154A7B681B78134402
:10442000FA7B83F80023124B7A6812785209D2B2D1
:104430007968097801F01F01012000FA01F143F8C1
:1044400022100EE00A4B7A6812785209D2B27968CB
:10445000097801F01F01012000FA01F1203243F830
:1044600022101437BD465DF8047B704700ED00E074
:1044700000E100E080B485B000AF786039600023CF
:10448000FB817B681B88FB817A68284B9A4213D09A
:104490007A68274B9A420FD07B68B3F1804F0BD0DC
:1044A0007A68244B9A4207D07A68234B9A4203D009
:1044B0007A68224B9A4208D1FB8923F07003FB8172
:1044C0003B685A88FB891343FB817A681C4B9A42EC
:1044D0000CD07A681B4B9A4208D0FB8923F44073B6
:1044E000FB813B681A89FB891343FB817B68FA894E
:1044F0001A803B685A687B68DA623B681A887B6876
:104500001A857A68094B9A4203D07A68084B9A4216
:1045100004D13B689B7A1A467B681A867B68012225
:104520009A821437BD465DF8047B70470000014055
:10453000000401400004004000080040000C00405E
:10454000001000400014004080B483B000AF7860D9
:1045500039607B683A685A620C37BD465DF8047B67
:10456000704700BF80B483B000AF78607B685B6A3F
:1045700018460C37BD465DF8047B704780B483B0A5
:1045800000AF78600B46FB70FB78002B08D07B688F
:104590001B889BB243F080039AB27B681A8007E0C5
:1045A0007B681B889BB223F080039AB27B681A80D9
:1045B0000C37BD465DF8047B704700BF80B483B004
:1045C00000AF78600B46FB70FB78002B08D07B684F
:1045D0001B889BB243F001039AB27B681A8007E004
:1045E0007B681B889BB223F001039AB27B681A8018
:1045F0000C37BD465DF8047B704700BF80B485B0C2
:1046000000AF7860396000237B810023FB810023A9
:10461000BB817B681B8C9BB223F480739AB27B684E
:104620001A847B681B8CFB817B689B88BB817B68C1
:104630009B8B7B817B8923F070037B817B8923F0BB
:1046400003037B813B681A887B8913437B81FB8949
:1046500023F40073FB813B689B891B029AB2FB89A0
:104660001343FB813B685B881B029AB2FB891343AF
:10467000FB817A68224B9A4203D07A68214B9A4296
:104680002BD1FB8923F40063FB813B68DB891B0290
:104690009AB2FB891343FB81FB8923F48063FB817E
:1046A0003B689B881B029AB2FB891343FB81BB8941
:1046B00023F48053BB81BB8923F40053BB813B6847
:1046C0001B8A1B019AB2BB891343BB813B685B8A7F
:1046D0001B019AB2BB891343BB817B68BA899A805C
:1046E0007B687A899A833B689A687B68DA637B681F
:1046F000FA891A841437BD465DF8047B704700BF01
:10470000000001400004014080B485B000AF786033
:1047100039600023BB8100237B810023FB817B6800
:104720001B8C9BB223F480539AB27B681A847B68FB
:104730001B8C7B817B689B88FB817B689B8BBB810F
:10474000BB8923F4E043BB81BB8923F44073BB8165
:104750003B681B881B029AB2BB891343BB817B89D0
:1047600023F400537B813B689B891B039AB27B89AE
:1047700013437B813B685B881B039AB27B8913439D
:104780007B817A68114B9A4203D07A68104B9A4227
:104790000AD1FB8923F48043FB813B681B8A9B0180
:1047A0009AB2FB891343FB817B68FA899A807B6804
:1047B000BA899A833B689A687B681A647B687A89AD
:1047C0001A841437BD465DF8047B70470000014031
:1047D0000004014080B485B000AF78600B467B8058
:1047E0000023FB817B689B8BFB81FB8923F0080303
:1047F000FB81FA897B881343FB817B68FA899A8362
:104800001437BD465DF8047B704700BF80B485B0A7
:1048100000AF78600B467B800023FB817B689B8B1D
:10482000FB81FB8923F40063FB817B881B029AB226
:10483000FB891343FB817B68FA899A831437BD4651
:104840005DF8047B704700BF80B483B000AF786030
:1048500013460A467A807B707B78002B08D07B68F1
:104860009B899AB27B8813439AB27B689A8109E04C
:104870007B689B899AB27B88DB439BB213409AB2D8
:104880007B689A810C37BD465DF8047B704700BF9A
:1048900080B483B000AF78600B467B807B88DB43BD
:1048A0009AB27B681A820C37BD465DF8047B70476C
:1048B00080B483B000AF786013460A467A807B707C
:1048C0007B78002B08D07B689B899AB27B88134346
:1048D0009AB27B689A8109E07B689B899AB27B884F
:1048E000DB439BB213409AB27B689A810C37BD467A
:1048F0005DF8047B704700BF2DE9F047DFF8A0A00A
:104900008AB004460D4600F04DF89AF900300133A4
:1049100006460F460FD02046294600F003F950B155
:104920004FF000084FF0000942464B46204629460A
:1049300000F04CFD20B9304639460AB0BDE8F0879A
:10494000164B9AF80060019301220023CDE904453B
:10495000CDE902450092089366B9CDE9068968461B
:1049600000F008F980B1089B9BB9DDE906010AB0A7
:10497000BDE8F0874046494642464B4600F0DEFB24
:10498000022ECDE90601EAD101F050F8212303609F
:10499000E9E701F04BF8089B0360E6E768FA0108D5
:1049A0002000002021F0004C2DE9F8434FEA1C5C68
:1049B000DFF86C814FEA0C5CC44506460F460B4697
:1049C000024600F08F8000296FDD0F1578D0A7F226
:1049D000FF37C3F31303F90743F4801360D4D10FF7
:1049E0004FF0000C01EB43037F1052006546162088
:1049F0004FF400116C189C424FEAD2764FEA420203
:104A000002DC1B1B65188C44013806EB43034FEA9C
:104A10005101EFD1804620264FF0004109E023D01C
:104A2000D40F013E4FEA510104EB43034FEA420227
:104A30001ED0AB4201EB0804F1DD04F00049B9F1EE
:104A4000004F04EB010809D0A9465B1B944288BFC4
:104A500003F1FF33121B08444D46E1E7B8F1000FA4
:104A6000F2DB05F10109F0E79442E6D91D46D7E7EC
:104A70001A4304D0431C41D000F0010318444608F7
:104A80004FEA6C031CF0010F03F17F5303F5001391
:104A900018BF46F0004603EB07513046BDE8F883E7
:104AA000D10F01EB4303520099E721F00043034388
:104AB00022D051BB0F46D30A153F5205002BFAD026
:104AC00013F480111DD15B00D80201F10101FAD568
:104AD000C1F10100C1F1200422FA04F42343074488
:104AE0008A4074E702460B4600F0FEF932463B4628
:104AF00000F048F8BDE8F883BDE8F8830CF1010C3C
:104B0000BEE7202401200021E6E702460B4600F024
:104B100037F802460B4600F011FBBDE8F88300BFF2
:104B20000000F07F31F0004310B408D00F4AA3F525
:104B3000801494420AD804205DF8044B7047002882
:104B40000CBF022003205DF8044B7047B3F5801FB3
:104B500001D20320F7E7064A934201D00020F2E792
:104B6000D0F1010038BF0020EDE700BFFFFFDF7F7D
:104B70000000F07F0020704781F0004102E000BF9C
:104B800083F0004330B54FEA41044FEA430594EA0D
:104B9000050F08BF90EA020F1FBF54EA000C55EA48
:104BA000020C7FEA645C7FEA655C00F0E2804FEA19
:104BB0005454D4EB5555B8BF6D420CDD2C4480EAFB
:104BC000020281EA030382EA000083EA010180EA2B
:104BD000020281EA0303362D88BF30BD11F0004F79
:104BE0004FEA01314FF4801C4CEA113102D04042AF
:104BF00061EB410113F0004F4FEA03334CEA1333EA
:104C000002D0524263EB430394EA050F00F0A78001
:104C1000A4F10104D5F1200E0DDB02FA0EFC22FAFC
:104C200005F2801841F1000103FA0EF2801843FAF0
:104C300005F359410EE0A5F120050EF1200E012AE1
:104C400003FA0EFC28BF4CF0020C43FA05F3C0181F
:104C500051EBE37101F0004507D54FF0000EDCF198
:104C6000000C7EEB00006EEB0101B1F5801F1BD341
:104C7000B1F5001F0CD349085FEA30004FEA3C0C45
:104C800004F101044FEA445212F5800F80F09A803B
:104C9000BCF1004F08BF5FEA500C50F1000041EB3F
:104CA000045141EA050130BD5FEA4C0C404141EB43
:104CB000010111F4801FA4F10104E9D191F0000F6A
:104CC00004BF01460020B1FA81F308BF2033A3F1ED
:104CD0000B03B3F120020CDA0C3208DD02F1140CE4
:104CE000C2F10C0201FA0CF021FA02F10CE002F11F
:104CF0001402D8BFC2F1200C01FA02F120FA0CFC18
:104D0000DCBF41EA0C019040E41AA2BF01EB045160
:104D1000294330BD6FEA04041F3C1CDA0C340EDC5E
:104D200004F11404C4F1200220FA04F001FA02F3A1
:104D300040EA030021FA04F345EA030130BDC4F15F
:104D40000C04C4F1200220FA02F001FA04F340EA54
:104D50000300294630BD21FA04F0294630BD94F005
:104D6000000F83F4801306BF81F480110134013DEC
:104D70004EE77FEA645C18BF7FEA655C29D094EA5D
:104D8000050F08BF90EA020F05D054EA000C04BFDB
:104D90001946104630BD91EA030F1EBF00210020C6
:104DA00030BD5FEA545C05D14000494128BF41F065
:104DB000004130BD14F580043CBF01F5801130BDC9
:104DC00001F0004545F0FE4141F470014FF0000054
:104DD00030BD7FEA645C1ABF194610467FEA655C05
:104DE0001CBF0B46024650EA013406BF52EA0335A7
:104DF00091EA030F41F4002130BD00BF90F0000F95
:104E000004BF0021704730B54FF4806404F13204D0
:104E10004FF000054FF0000150E700BF90F0000F89
:104E200004BF0021704730B54FF4806404F13204B0
:104E300010F0004548BF40424FF000013EE700BF80
:104E400042004FEAE2014FEA31014FEA02701FBF10
:104E500012F07F4393F07F4F81F06051704792F0E2
:104E6000000F14BF93F07F4F704730B54FF460745C
:104E700001F0004521F0004120E700BF50EA0102A7
:104E800008BF704730B54FF000050AE050EA010254
:104E900008BF704730B511F0004502D5404261EBC4
:104EA00041014FF4806404F132045FEA915C3FF405
:104EB000DCAE4FF003025FEADC0C18BF03325FEA9E
:104EC000DC0C18BF033202EBDC02C2F1200300FA53
:104ED00003FC20FA02F001FA03FE40EA0E0021FA78
:104EE00002F11444C1E600BF70B54FF0FF0C4CF462
:104EF000E06C1CEA11541DBF1CEA135594EA0C0F18
:104F000095EA0C0F00F0DEF82C4481EA030621EA52
:104F10004C5123EA4C5350EA013518BF52EA03358D
:104F200041F4801143F4801338D0A0FB02CE4FF03F
:104F30000005E1FB02E506F00042E0FB03E54FF06F
:104F40000006E1FB03569CF0000F18BF4EF0010E67
:104F5000A4F1FF04B6F5007F64F5407404D25FEA63
:104F60004E0E6D4146EB060642EAC62141EA555116
:104F70004FEAC52040EA5E504FEACE2EB4F1FD0C58
:104F800088BFBCF5E06F1ED8BEF1004F08BF5FEAD6
:104F9000500E50F1000041EB045170BD06F0004688
:104FA00046EA010140EA020081EA0301B4EB5C0435
:104FB000C2BFD4EB0C0541EA045170BD41F480112D
:104FC0004FF0000E013C00F3AB8014F1360FDEBF52
:104FD000002001F0004170BDC4F10004203C35DA2E
:104FE0000C341BDC04F11404C4F1200500FA05F3B1
:104FF00020FA04F001FA05F240EA020001F0004252
:1050000021F0004110EBD37021FA04F642EB0601C7
:105010005EEA430E08BF20EAD37070BDC4F10C04F1
:10502000C4F1200500FA04F320FA05F001FA04F2B5
:1050300040EA020001F0004110EBD37041F10001A1
:105040005EEA430E08BF20EAD37070BDC4F12005AC
:1050500000FA05F24EEA020E20FA04F301FA05F214
:1050600043EA020321FA04F001F0004121FA04F2BC
:1050700020EA020000EBD3705EEA430E08BF20EA8C
:10508000D37070BD94F0000F0FD101F000464000C6
:1050900041EB010111F4801F08BF013CF7D041EA48
:1050A000060195F0000F18BF704703F0004652004C
:1050B00043EB030313F4801F08BF013DF7D043EA1D
:1050C0000603704794EA0C0F0CEA135518BF95EAD3
:1050D0000C0F0CD050EA410618BF52EA4306D1D15A
:1050E00081EA030101F000414FF0000070BD50EA79
:1050F000410606BF1046194652EA430619D094EA03
:105100000C0F02D150EA013613D195EA0C0F05D1EC
:1051100052EA03361CBF104619460AD181EA030140
:1051200001F0004141F0FE4141F470014FF00000F8
:1051300070BD41F0FE4141F4780170BD70B54FF093
:10514000FF0C4CF4E06C1CEA11541DBF1CEA135513
:1051500094EA0C0F95EA0C0F00F0A7F8A4EB0504F5
:1051600081EA030E52EA03354FEA013100F08880EC
:105170004FEA03334FF0805545EA131343EA1263B5
:105180004FEA022245EA111545EA10654FEA00266A
:105190000EF000419D4208BF964244F1FD0404F523
:1051A000407402D25B084FEA3202B61A65EB03057F
:1051B0005B084FEA32024FF480104FF4002CB6EB3C
:1051C000020E75EB030E22BFB61A754640EA0C00BC
:1051D0005B084FEA3202B6EB020E75EB030E22BFFC
:1051E000B61A754640EA5C005B084FEA3202B6EB3D
:1051F000020E75EB030E22BFB61A754640EA9C00FC
:105200005B084FEA3202B6EB020E75EB030E22BFCB
:10521000B61A754640EADC0055EA060E18D04FEA89
:10522000051545EA16754FEA06164FEAC30343EA29
:1052300052734FEAC2025FEA1C1CC0D111F4801FF6
:105240000BD141EA00014FF000004FF0004CB6E7EF
:1052500011F4801F04BF01430020B4F1FD0C88BF8E
:10526000BCF5E06F3FF6AFAEB5EB030C04BFB6EB99
:10527000020C5FEA500C50F1000041EB045170BD8C
:105280000EF0004E4EEA113114EB5C04C2BFD4EBB9
:105290000C0541EA045170BD41F480114FF0000E3D
:1052A000013C90E645EA060E8DE60CEA135594EAB9
:1052B0000C0F08BF95EA0C0F3FF43BAF94EA0C0FBC
:1052C0000AD150EA01347FF434AF95EA0C0F7FF431
:1052D00025AF104619462CE795EA0C0F06D152EA85
:1052E00003353FF4FDAE1046194622E750EA410669
:1052F00018BF52EA43067FF4C5AE50EA41047FF47A
:105300000DAF52EA43057FF4EBAE12E74FF0FF3CDE
:1053100006E000BF4FF0010C02E000BF4FF0010CAF
:105320004DF804CD4FEA410C7FEA6C5C4FEA430C28
:1053300018BF7FEA6C5C1BD001B050EA410C0CBF77
:1053400052EA430C91EA030F02BF90EA020F0020D9
:10535000704710F1000F91EA030F58BF994208BF40
:1053600090422CBFD8176FEAE37040F001007047FD
:105370004FEA410C7FEA6C5C02D150EA013C07D154
:105380004FEA430C7FEA6C5CD6D152EA033CD3D09F
:105390005DF8040B704700BF8446104662468C4699
:1053A0001946634600E000BF01B5FFF7B7FF0028CC
:1053B00048BF10F1000F01BD4DF808EDFFF7F4FFF5
:1053C0000CBF012000205DF808FB00BF4DF808ED80
:1053D000FFF7EAFF34BF012000205DF808FB00BFA3
:1053E0004DF808EDFFF7E0FF94BF012000205DF8C5
:1053F00008FB00BF4DF808EDFFF7CEFF94BF01207A
:1054000000205DF808FB00BF4DF808EDFFF7C4FF72
:1054100034BF012000205DF808FB00BF4FEA4102C5
:1054200012F5001215D211D56FF47873B3EB6252F6
:1054300012D94FEAC12343F0004343EA505311F01D
:10544000004F23FA02F018BF404270474FF00000AF
:10545000704750EA013005D111F0004008BF6FF0ED
:10546000004070474FF00000704700BF4A0011D263
:1054700012F5001211D20DD56FF47873B3EB6252AE
:105480000ED44FEAC12343F0004343EA505323FABA
:1054900002F070474FF00000704750EA013002D12F
:1054A0004FF0FF3070474FF00000704780F0004031
:1054B00002E000BF81F0004142001FBF5FEA4103EC
:1054C00092EA030F7FEA226C7FEA236C6AD04FEAEC
:1054D0001262D2EB1363C1BFD21841404840414031
:1054E000B8BF5B42192B88BF704710F0004F40F4E3
:1054F000000020F07F4018BF404211F0004F41F4FF
:10550000000121F07F4118BF494292EA030F3FD0CA
:10551000A2F1010241FA03FC10EB0C00C3F12003DD
:1055200001FA03F100F0004302D5494260EB40006C
:10553000B0F5000F13D3B0F1807F06D340084FEAD7
:10554000310102F10102FE2A51D2B1F1004F40EBCC
:10555000C25008BF20F0010040EA03007047490034
:1055600040EB000010F4000FA2F10102EDD1B0FAFF
:1055700080FCACF1080CB2EB0C0200FA0CF0AABFF4
:1055800000EBC25052421843BCBFD0401843704792
:1055900092F0000F81F4000106BF80F40000013298
:1055A000013BB5E74FEA41037FEA226C18BF7FEA6F
:1055B000236C21D092EA030F04D092F0000F08BFB1
:1055C0000846704790EA010F1CBF0020704712F098
:1055D0007F4F04D1400028BF40F00040704712F1D7
:1055E00000723CBF00F50000704700F0004343F03C
:1055F000FE4040F4000070477FEA226216BF084672
:105600007FEA23630146420206BF5FEA412390EA34
:10561000010F40F4800070474FF0000304E000BF2A
:1056200010F0004348BF40425FEA000C08BF7047DB
:1056300043F0964301464FF000001CE050EA01029F
:1056400008BF70474FF000030AE000BF50EA0102B4
:1056500008BF704711F0004302D5404261EB4101A1
:105660005FEA010C02BF84460146002043F0B643C6
:1056700008BFA3F18053A3F50003BCFA8CF2083AEB
:10568000A3EBC25310DB01FA02FC634400FA02FCF4
:10569000C2F12002BCF1004F20FA02F243EB0200FB
:1056A00008BF20F00100704702F1200201FA02FC5D
:1056B000C2F1200250EA4C0021FA02F243EB020050
:1056C00008BF20EADC7070474FF0FF0C1CEAD05294
:1056D0001EBF1CEAD15392EA0C0F93EA0C0F6FD055
:1056E0001A4480EA010C400218BF5FEA41211ED033
:1056F0004FF0006343EA501043EA5111A0FB01311F
:105700000CF00040B1F5000F3EBF490041EAD371F3
:105710005B0040EA010062F17F02FD2A1DD8B3F16F
:10572000004F40EBC25008BF20F00100704790F0DE
:10573000000F0CF0004C08BF49024CEA502040EA30
:1057400051207F3AC2BFD2F1FF0340EAC2507047F6
:1057500040F400004FF00003013A5DDC12F1190F34
:10576000DCBF00F000407047C2F10002410021FAA6
:1057700002F1C2F1200200FA02FC5FEA310040F1BE
:10578000000053EA4C0308BF20EADC70704792F037
:10579000000F00F0004C02BF400010F4000F013A6F
:1057A000F9D040EA0C0093F0000F01F0004C02BF6A
:1057B000490011F4000F013BF9D041EA0C018FE7D9
:1057C0000CEAD15392EA0C0F18BF93EA0C0F0AD0DF
:1057D00030F0004C18BF31F0004CD8D180EA010005
:1057E00000F00040704790F0000F17BF90F0004F9E
:1057F000084691F0000F91F0004F14D092EA0C0F80
:1058000001D142020FD193EA0C0F03D14B0218BF12
:10581000084608D180EA010000F0004040F0FE4058
:1058200040F40000704740F0FE4040F440007047F4
:105830004FF0FF0C1CEAD0521EBF1CEAD15392EA73
:105840000C0F93EA0C0F69D0A2EB030280EA010C63
:1058500049024FEA402037D04FF0805343EA1111FC
:1058600043EA10130CF000408B4238BF5B0042F15A
:105870007D024FF4000C8B4224BF5B1A40EA0C00FF
:10588000B3EB510F24BFA3EB510340EA5C00B3EB31
:10589000910F24BFA3EB910340EA9C00B3EBD10F1F
:1058A00024BFA3EBD10340EADC001B0118BF5FEA71
:1058B0001C1CE0D1FD2A3FF650AF8B4240EBC2509A
:1058C00008BF20F0010070470CF0004C4CEA50205B
:1058D0007F32C2BFD2F1FF0340EAC250704740F4AA
:1058E00000004FF00003013A37E792F0000F00F09C
:1058F000004C02BF400010F4000F013AF9D040EA1A
:105900000C0093F0000F01F0004C02BF490011F4AD
:10591000000F013BF9D041EA0C0195E70CEAD153A5
:1059200092EA0C0F08D142027FF47DAF93EA0C0F8C
:105930007FF470AF084676E793EA0C0F04D14B0270
:105940003FF44CAF08466EE730F0004C18BF31F022
:10595000004CCAD130F000427FF45CAF31F000431C
:105960007FF43CAF5FE700BF4FEA4002B2F1FE4F69
:105970000FD34FF09E03B3EB12620DD94FEA002311
:1059800043F0004310F0004F23FA02F018BF4042EA
:1059900070474FF00000704712F1610F01D14202D1
:1059A00005D110F0004008BF6FF0004070474FF085
:1059B0000000704700210A2200F090BD024B0A4609
:1059C0000146186800F002B85004002010B502FB30
:1059D00001F100F031F8044668B150F8042C22F0CF
:1059E0000302043A242A18D8132A06D803460022B0
:1059F0001A605A609A60204610BD00231B2A03607B
:105A000043600FD9242A8360C36005BF03614361EB
:105A100000F1100300F11803E9E7002100F0A8FAF3
:105A2000204610BD00F10803E1E700BF014B1868F4
:105A3000704700BF500400202DE9F04F01F10B0525
:105A4000162D83B0064627D935F0070527D4A9427D
:105A500025D8304600F0D6FAB5F5FC7F26D2C14FE6
:105A60004FEAD50C07EBCC03DC689C4200F0D281F6
:105A70006368E268A16823F00303234430465D684D
:105A8000CA6045F0010591605D6000F0BDFA083420
:105A9000204603B0BDE8F08F1025A942D9D90024D3
:105AA0000C232046336003B0BDE8F08F5FEA552C2D
:105AB00000F08A80BCF1040F00F260814FEA951C6F
:105AC0000CF1380C4FEA4C01A64F07EB8101CC6872
:105AD000A14205D10CE0002B7ADAE468A14207D09C
