:020000040800F2
:100000007C3501201D0700087907000879070008E2
:100010007907000879070008790700080000000048
:100020000000000000000000000000007907000848
:100030007907000800000000790700087907000828
:100040007907000879070008790700087907000890
:100050007907000879070008790700087907000880
:100060007907000879070008790700087907000870
:100070007907000879070008790700087907000860
:100080007907000879070008790700087907000850
:100090007907000879070008790700087907000840
:1000A0007907000879070008790700087907000830
:1000B0006D1400087907000879070008790700081F
:1000C0007907000879070008790700087907000810
:1000D00079070008790700086D060008790700080D
:1000E00079070008790700087907000879070008F0
:1000F00079070008790700087907000879070008E0
:1001000079070008790700087907000879070008CF
:1001100079070008790700087907000879070008BF
:1001200079070008790700087907000879070008AF
:10013000790700087907000879070008790700089F
:10014000790700087907000879070008790700088F
:1001500025150008790700087907000879070008C5
:10016000790700087907000879070008790700086F
:10017000790700087907000879070008790700085F
:10018000790700087907000880B58AB000AF786069
:10019000396000237B6200233B620023FB61002364
:1001A000BB617B681B8A9BB27B627B6A23F44053F2
:1001B0007B623B68DB887A6A13437B627B6A9AB214
:1001C0007B681A827B689B899BB27B627B6A23F483
:1001D000B05323F00C037B623B689A883B681B8911
:1001E00013439AB23B685B8913439BB27A6A134309
:1001F0007B627B6A9AB27B689A817B689B8A9BB29E
:100200007B627B6A23F440737B623B689B897A6ADA
:1002100013437B627B6A9AB27B689A8207F1080378
:10022000184600F0BFFA7A68314B9A4203D07A68D8
:10023000304B9A4202D17B693B6201E03B693B62F1
:100240007B689B899BB29BB21BB2002B0CDA3A6A8B
:1002500013469B0013449A001A443B681B685B00DA
:10026000B2FBF3F3FB610BE03A6A13469B001344C5
:100270009A001A443B681B689B00B2FBF3F3FB61D6
:10028000FA691D4BA3FB02135B091B017B627B6AAE
:100290001B09642202FB03F3FA69D31ABB617B6872
:1002A0009B899BB29BB21BB2002B0DDABB69DB00B2
:1002B00003F13202104BA3FB02135B0903F00703A7
:1002C0007A6A13437B620CE0BB691B0103F13202C3
:1002D000094BA3FB02135B0903F00F037A6A134374
:1002E0007B627B6A9AB27B681A812837BD4680BDE3
:1002F00000100140001401401F85EB5180B483B011
:1003000000AF78600B46FB70FB78002B08D07B6851
:100310009B899BB243F400539AB27B689A8107E0B1
:100320007B689B899BB223F400539AB27B689A81C5
:100330000C37BD465DF8047B704700BF80B483B0C6
:1003400000AF78600B467B807B88C3F308039AB2CA
:100350007B689A800C37BD465DF8047B704700BF10
:1003600080B487B000AF786013460A467A807B700D
:1003700000233B610023FB600023BB6000237B6103
:100380007B687B617B88DBB25B09DBB23B617B888E
:1003900003F01F03FB60FB68012202FA03F3BB605A
:1003A0003B69012B03D17B690C337B6109E03B691D
:1003B000022B03D17B6910337B6102E07B6914332C
:1003C0007B617B78002B06D07B697A691168BA68FB
:1003D0000A431A6006E07B697A691168BA68D243F9
:1003E0000A401A601C37BD465DF8047B704700BFA9
:1003F00080B485B000AF78600B467B800023FB7330
:100400007B681B889AB27B8813409BB2002B02D07A
:100410000123FB7301E00023FB73FB7B18461437B9
:10042000BD465DF8047B704780B487B000AF78604C
:100430000B467B800023FB6000237B610023BB60B5
:100440000023FB747B88DBB25B09DBB2BB607B887B
:1004500003F01F037B617B69012202FA03F37B61D6
:10046000BB68012B06D17B689B899BB27A691340DC
:100470007B610FE0BB68022B06D17B681B8A9BB2B5
:100480007A6913407B6105E07B689B8A9BB27A693D
:1004900013407B617B881B0A9BB2FB60FB680122D7
:1004A00002FA03F3FB607B681B889BB2FA68134077
:1004B000FB607B69002B05D0FB68002B02D0012379
:1004C000FB7401E00023FB74FB7C18461C37BD461F
:1004D0005DF8047B704700BF80B485B000AF7860E2
:1004E0000B467B800023FB810023BB817B881B0A9A
:1004F000FB81FB89012202FA03F3BB81BB89DB4349
:100500009AB27B681A801437BD465DF8047B704749
:1005100080B58AB000AF07F11003184600F042F929
:100520003B697B627B6A114A82FB03129211DB17E3
:10053000D31A7B840220012100F0FCF97B8CBB8064
:100540000023FB8045F6C053BB600023BB81002322
:10055000BB733B1D0648194601F068F804480121A9
:1005600001F0EEF82837BD4680BD00BFD34D6210C4
:100570000004004080B586B000AF4FF40030012188
:1005800000F0D8F90120012100F0B6F90C233B61FD
:1005900002233B750023BB750123FB7502237B758A
:1005A00007F110031648194600F000FA144802211A
:1005B000072200F089FA12480321072200F084FA8A
:1005C0004FF4E1333B600023BB800023FB8000231A
:1005D0003B810023BB810C237B813B4609481946A4
:1005E000FFF7D2FD074840F225510122FFF7B8FE80
:1005F00004480121FFF782FE1837BD4680BD00BFC9
:10060000000002400044004080B582B000AF0346C5
:10061000FB7100BF07488021FFF7EAFE0346002B6D
:10062000F8D0FB799BB203481946FFF787FE0837DD
:10063000BD4680BD0044004080B584B000AF786006
:100640000023FB6009E0FB687A6813441B781846B6
:10065000FFF7DAFFFB680133FB60FB687A6813443D
:100660001B78002BEFD11037BD4680BD80B582B01E
:1006700000AF274840F22551FFF7D6FE0346002B76
:1006800043D0234840F22551FFF726FF204B9B889B
:100690009BB2FB70FB78402B05D9FB785A2B02D814
:1006A000FB782033FB70FB780D2B1CD800237B607C
:1006B0000AE0184A7B6813441B7815481946FFF76F
:1006C0003DFE7B6801337B60134B1B687A689A425E
:1006D000EFDB114B00221A60FB789BB20C481946E5
:1006E000FFF72CFE09E00C4B1B680A4AF978D1543D
:1006F000094B1B685A1C084B1A6000BF0448402174
:10070000FFF776FE0346002BF8D00837BD4680BDC4
:10071000004400401C2D01201000002080B582B054
:1007200000AF104B7B60104B3B6007E03B681A1D2D
:100730003A607A68111D796012681A603A680B4B4A
:100740009A42F3D30A480B494FF000028842B8BFDF
:1007500040F8042BFFF6FAAF00F012F80837BD4658
:1007600080BD00BF602A00080000002010000020AB
:1007700010000020802D012080B400AFFEE700BFF4
:1007800080B500AF00F05CFA00F004FD00F0E4F981
:10079000FFF7BEFEFFF7EEFE0148FFF74DFFFEE755
:1007A000582A000880B489B000AF78600023BB618C
:1007B00000237B610023FB6102233B610023FB607C
:1007C0000223BB60484B9B6803F00C03BB61BB6911
:1007D000042B07D0082B09D0002B3FD17B68434A5C
:1007E0001A603FE07B68424A1A603BE03E4B5B6820
:1007F00003F480039B0DFB603B4B5B6803F03F03FE
:10080000BB60FB68002B0DD0394ABB68B2FBF3F22A
:10081000354B596847F6C0730B409B0903FB02F345
:10082000FB610CE0314ABB68B2FBF3F22E4B596816
:1008300047F6C0730B409B0903FB02F3FB612A4B95
:100840005B6803F440331B0C01335B003B61FA69C6
:100850003B69B2FBF3F27B681A6003E07B68234AD2
:100860001A6000BF204B9B6803F0F003BB61BB69BB
:100870001B09BB611F4ABB6913441B78DBB27B6158
:100880007B681A687B69DA407B685A60164B9B6804
:1008900003F4E053BB61BB699B0ABB61154ABB69AA
:1008A00013441B78DBB27B617B685A687B69DA4052
:1008B0007B689A600C4B9B6803F46043BB61BB6927
:1008C0005B0BBB610B4ABB6913441B78DBB27B61DA
:1008D0007B685A687B69DA407B68DA602437BD46FA
:1008E0005DF8047B704700BF003802400024F4002C
:1008F00000127A000000002080B483B000AF78605E
:100900000B46FB70FB78002B06D0094B084A116B95
:100910007A680A431A6306E0054B054A116B7A6848
:10092000D2430A401A630C37BD465DF8047B70471A
:100930000038024080B483B000AF78600B46FB7093
:10094000FB78002B06D0094B084A116C7A680A43E1
:100950001A6406E0054B054A116C7A68D2430A40D6
:100960001A640C37BD465DF8047B704700380240BE
:1009700080B483B000AF78600B46FB70FB78002B2F
:1009800006D0094B084A516C7A680A435A6406E05B
:10099000054B054A516C7A68D2430A405A640C37B9
:1009A000BD465DF8047B70470038024080B487B0D4
:1009B00000AF7860396000237B6100233B61002336
:1009C000FB6000237B6176E07B69012202FA03F37E
:1009D0003B613B681A683B691340FB60FA683B69FE
:1009E0009A4265D17B681A687B695B00032101FA32
:1009F00003F3DB431A407B681A607B681A683B6824
:100A00001B7919467B695B0001FA03F31A437B6883
:100A10001A603B681B79012B03D03B681B79022BC2
:100A20002ED17B689A687B695B00032101FA03F38E
:100A3000DB431A407B689A607B689A683B685B7905
:100A400019467B695B0001FA03F31A437B689A60DD
:100A50007B685A687B699BB2012101FA03F3DB438F
:100A60001A407B685A607B685A683B689B791946D4
:100A70007B699BB201FA03F39BB21A437B685A600D
:100A80007B68DA687B699BB25B00032101FA03F3A0
:100A9000DB431A407B68DA607B68DA683B68DB79A5
:100AA00019467B695B0001FA03F31A437B68DA603D
:100AB0007B6901337B617B690F2B85D91C37BD4670
:100AC0005DF8047B704700BF80B485B000AF7860EC
:100AD00013460A467A807B700023FB600023BB60CC
:100AE0007A787B8803F007039B0002FA03F3FB602C
:100AF0007B88DB089BB21A467B88DB089BB21946D1
:100B00007B68083153F821107B8803F007039B00B2
:100B10000F2000FA03F3DB4319407B68083243F8E7
:100B200022107B88DB089BB21A467B68083253F898
:100B30002220FB681343BB607B88DB089BB21A460C
:100B40007B680832B96843F822101437BD465DF857
:100B5000047B70470000000080B584B000AF3B46C6
:100B60001846FFF71FFE3B681A46314B1A60304BA0
:100B70001B68184601F0D4F802460B461046194689
:100B80004FF000022B4B01F031F902460B461046A4
:100B9000194623A3D3E9002301F052FA02460B467B
:100BA000104619464FF000024FF0804301F048FA1A
:100BB00002460B461046194601F02AFB02461E4B20
:100BC0001A601B4B1B68184601F0AAF802460B4638
:100BD000104619464FF00002164B01F007F9024685
:100BE0000B461046194610A3D3E9002301F028FA5A
:100BF00002460B46104619464FF000024FF0804364
:100C000001F01EFA02460B461046194601F000FBA1
:100C100002460A4B1A601037BD4680BDAFF3008014
:100C2000000000002A759541000000046BF4344276
:100C3000140000200000F43F180000201C000020D9
:100C400080B500AF114B114A126842F001021A60E0
:100C50000E4B00229A600D4A0C4B1B6823F08473E4
:100C600023F480331360094B094A5A60074B074A43
:100C7000126822F480221A60044B0022DA6000F02D
:100C80000BF8044B4FF000629A6080BD00380240C0
:100C90001030002400ED00E080B483B000AF0023EA
:100CA0007B6000233B60354B344A126842F480324B
:100CB0001A60324B1B6803F400333B607B680133DE
:100CC0007B603B68002B03D17B68B3F5A06FF0D14C
:100CD0002A4B1B6803F40033002B02D001233B6036
:100CE00001E000233B603B68012B42D1234B234AA8
:100CF000126C42F080521A64214B214A126842F46D
:100D000080421A601D4B1D4A92689A601B4B1B4A19
:100D1000926842F400429A60184B184A926842F472
:100D2000A0529A60154B174A5A60144B134A126826
:100D300042F080721A6000BF104B1B6803F0007312
:100D4000002BF9D0104B40F205621A600B4B0B4A96
:100D5000926822F003029A60084B084A926842F0B7
:100D600002029A6000BF054B9B6803F00C03082B3E
:100D7000F9D10C37BD465DF8047B7047003802405E
:100D80000070004008544007003C024080B483B02B
:100D900000AF78607B681B6823F001027B681A60F3
:100DA0007B6800221A607B6800225A607B68002200
:100DB0009A607B680022DA607B6800221A617B6897
:100DC00021225A617A68454B9A4203D1444B3D2215
:100DD0009A607EE07A68434B9A4204D1404B4FF4CC
:100DE00074629A6075E07A683F4B9A4204D13C4B3A
:100DF0004FF474129A606CE07A683C4B9A4204D1CA
:100E0000374B4FF074629A6063E07A68384B9A42CD
:100E100003D1334B374ADA605BE07A68364B9A424B
:100E200003D12F4B354ADA6053E07A68344B9A424B
:100E300003D12B4B334ADA604BE07A68324B9A424B
:100E400004D1274B4FF03D52DA6042E07A682F4BD5
:100E50009A4203D12E4B3D229A603AE07A682D4B9C
:100E60009A4204D12A4B4FF474629A6031E07A6856
:100E7000294B9A4204D1264B4FF474129A6028E011
:100E80007A68264B9A4204D1214B4FF074629A60E3
:100E90001FE07A68224B9A4203D11D4B154ADA6053
:100EA00017E07A681F4B9A4203D1194B134ADA6054
:100EB0000FE07A681C4B9A4203D1154B114ADA6055
:100EC00007E07A68194B9A4203D1114B4FF03D521B
:100ED000DA600C37BD465DF8047B70471060024055
:100EE00000600240286002404060024058600240BA
:100EF000706002403D00002088600240400F0020EA
:100F0000A060024000003D20B86002401064024032
:100F10000064024028640240406402405864024079
:100F20007064024088640240A0640240B8640240D9
:100F300080B485B000AF786039600023FB607B68C7
:100F40001B68FB60FA68244B1340FB603B681A681F
:100F50003B68DB681A433B685B691A433B689B69E3
:100F60001A433B68DB691A433B681B6A1A433B68B8
:100F70005B6A1A433B689B6A1A433B685B6B1A4384
:100F80003B689B6B1343FA681343FB607B68FA680A
:100F90001A607B685B69FB60FB6823F00703FB60FA
:100FA0003B68DA6A3B681B6B1343FA681343FB60C8
:100FB0007B68FA685A613B681A697B685A603B68CB
:100FC0005A687B689A603B689A687B68DA60143775
:100FD000BD465DF8047B70473F801CF080B483B051
:100FE00000AF78600B46FB70FB78002B06D07B6867
:100FF0001B6843F001027B681A6005E07B681B6890
:1010000023F001027B681A600C37BD465DF8047B53
:10101000704700BF80B485B000AFF860B960134678
:10102000FB71BB6803F08003002B0FD0FB79002B12
:1010300006D0FB685B6943F08002FB685A6105E0FB
:10104000FB685B6923F08002FB685A61BB68802BF8
:1010500014D0FB79002B08D0FB681A68BB6803F03A
:101060001E031A43FB681A6008E0FB681A68BB6835
:1010700003F01E03DB431A40FB681A601437BD46B9
:101080005DF8047B704700BF80B487B000AF786024
:1010900039600023FB750023FB600023BB607A6886
:1010A000224B9A4202D8224B3B6101E0214B3B612B
:1010B0003B6823F0F02323F0C313002B0AD03B68D6
:1010C000DB0A03F01E03FB607B681A68FB681340B1
:1010D000BB6004E07B685B6903F08003BB603B6836
:1010E00003F00053002B03D03B695B68FB6002E018
:1010F0003B691B68FB60FB6823F0F02323F082133D
:10110000FB60FA683B681340002B05D0BB68002BDE
:1011100002D00123FB7501E00023FB75FB7D18461F
:101120001C37BD465DF8047B704700BF0F6402406A
:10113000006002400064024080B485B000AF786077
:1011400039607A68104B9A4202D8104BFB6001E07C
:101150000F4BFB603B6803F00053002B07D03B684C
:1011600023F0F02323F08213FA68D36006E03B6893
:1011700023F0F02323F08213FA6893601437BD46FE
:101180005DF8047B704700BF0F64024000600240BE
:101190000064024080B582B000AF1B4B00221A8071
:1011A000194B00225A60184B00229A600023BB8022
:1011B00017E00023FB800DE0BA8813469B00134420
:1011C0009B011A44FB881344104A0021D154FB8828
:1011D0000133FB80FB88B3F5A07FEDD9BB880133D9
:1011E000BB80BB88EF2BE4D900F014F800F066F860
:1011F00000F0F4F800F0C6F8054B1A68024B9A604C
:101200000837BD4680BD00BF200000202C00002014
:101210008864024080B582B000AF10200121FFF742
:101220006BFB4FF47F433B6001233B710023BB7199
:101230000123FB7103237B713B461E481946FFF7D0
:10124000B5FB1C4B4FF47F425A8302200121FFF76C
:1012500053FB4FF400633B6002233B7103237B711C
:101260000023BB710123FB713B4613481946FFF76E
:101270009DFB11480B210122FFF726FC02200121D2
:10128000FFF73AFB4FF480533B6001233B7100238F
:10129000BB710123FB7103237B713B460648194652
:1012A000FFF784FB044B4FF480521A830837BD4686
:1012B00080BD00BF001002400004024080B588B02D
:1012C00000AF01200121FFF753FB0B23BB6100237B
:1012D000BB820023BB830023FB8207F11403284851
:1012E000194600F0A3F901200121FFF723FB40F686
:1012F0006B23BB610023BB820023BB830023FB82E3
:1013000007F114034FF08040194600F08FF9602375
:101310003B8001237B804FF4D273BB600223BB81EF
:101320003B464FF08040194600F02AFA4FF08040CB
:10133000082100F011FB60233B8001237B804FF4E8
:10134000A073BB600223BB813B464FF0804019462F
:1013500000F09CFA4FF08040082100F019FB08488B
:10136000012100F0CDF94FF08040012100F0C8F9D3
:101370004FF08040012100F0E3F92037BD4680BDE9
:101380000000014080B582B000AF13481021012257
:10139000FFF740FE44233B7100237B710023BB71A8
:1013A0000123FB713B1D184600F0E2F84FF080402E
:1013B0000821012200F00AFB1C233B7100237B71F2
:1013C0000023BB710123FB713B1D184600F0D0F8D0
:1013D0000837BD4680BD00BF8864024080B590B02C
:1013E00000AF4FF480000121FFF786FA1B4800216F
:1013F000FFF7F4FD1948FFF7C9FC4FF040637B602D
:10140000174BBB60174BFB6040233B6140F241131D
:101410007B610023BB614FF48063FB6100233B626F
:1014200000237B620023BB624FF44033FB62002346
:101430003B6301237B630023BB630023FB633B1DF2
:1014400006481946FFF774FD07484FF480710122E2
:1014500000F0F0FA4037BD4680BD00BF886402400E
:10146000151002402C0000200000014080B500AFA4
:101470004FF08040082100F0CDFA254B1B88013346
:101480009AB2234B1A80224B1B88B3F5037F05D9F0
:101490001F4B00221A801F4A1D4B5A601C4B1B8891
:1014A000012B04D81C4B4FF480525A8303E01A4B93
:1014B0004FF480521A83164B1B88232B27D9144BC9
:1014C0001A8840F202239A4221D8144B104A92689B
:1014D0001A60124B0E4A5268DA60114B104A128899
:1014E00092B242F0010292B21A800C4B0B4A12687F
:1014F00042F001021A60064B1B8803F00103002B27
:1015000005D0034B5B6803F24112014B5A6080BD6A
:10151000200000202C0000200004024088640240CB
:101520000000014080B500AF0D480E49FFF7ACFD4B
:101530000346002B12D00A480A49FFF7FDFD0A4B6B
:10154000094A128892B222F0010292B21A80044B28
:1015500000221A60054B4FF47F425A8380BD00BFC2
:101560008864024000880020000001400010024012
:1015700080B485B000AF78600023FB730023BB7399
:101580000F237B737B68DB78002B37D0254BDB6820
:10159000DB4303F4E0631B0AFB73FB7BC3F104032F
:1015A000BB737A7BFB7B42FA03F37B737B685B78CC
:1015B0001A46BB7B02FA03F3FB737B689A787B7B4A
:1015C0001340DAB2FB7B1343FB73FB7B1B01FB7302
:1015D000154A7B681B781344FA7B83F80023124B6F
:1015E0007A6812785209D2B27968097801F01F013D
:1015F000012000FA01F143F822100EE00A4B7A684C
:1016000012785209D2B27968097801F01F010120DD
:1016100000FA01F1203243F822101437BD465DF87C
:10162000047B704700ED00E000E100E080B485B08D
:1016300000AF786039600023FB817B681B88FB81E9
:101640007A68284B9A4213D07A68274B9A420FD077
:101650007B68B3F1804F0BD07A68244B9A4207D055
:101660007A68234B9A4203D07A68224B9A4208D177
:10167000FB8923F07003FB813B685A88FB89134385
:10168000FB817A681C4B9A420CD07A681B4B9A42B9
:1016900008D0FB8923F44073FB813B681A89FB89DE
:1016A0001343FB817B68FA891A803B685A687B6820
:1016B000DA623B681A887B681A857A68094B9A4215
:1016C00003D07A68084B9A4204D13B689B7A1A4649
:1016D0007B681A867B6801229A821437BD465DF8C2
:1016E000047B7047000001400004014000040040FA
:1016F00000080040000C00400010004000140040B2
:1017000080B483B000AF78600B46FB70FB78002B91
:1017100008D07B681B889BB243F080039AB27B6839
:101720001A8007E07B681B889BB223F080039AB283
:101730007B681A800C37BD465DF8047B704700BF9C
:1017400080B483B000AF78600B46FB70FB78002B51
:1017500008D07B681B889BB243F001039AB27B6878
:101760001A8007E07B681B889BB223F001039AB2C2
:101770007B681A800C37BD465DF8047B704700BF5C
:1017800080B485B000AF7860396000237B8100238E
:10179000FB810023BB817B681B8C9BB223F480738D
:1017A0009AB27B681A847B681B8CFB817B689B8860
:1017B000BB817B689B8B7B817B8923F070037B8162
:1017C0007B8923F003037B813B681A887B89134361
:1017D0007B81FB8923F40073FB813B689B891B029F
:1017E0009AB2FB891343FB813B685B881B029AB268
:1017F000FB891343FB817A68224B9A4203D07A68B3
:10180000214B9A422BD1FB8923F40063FB813B6877
:10181000DB891B029AB2FB891343FB81FB8923F40A
:101820008063FB813B689B881B029AB2FB89134350
:10183000FB81BB8923F48053BB81BB8923F4005314
:10184000BB813B681B8A1B019AB2BB891343BB81D6
:101850003B685B8A1B019AB2BB891343BB817B68DF
:10186000BA899A807B687A899A833B689A687B6890
:10187000DA637B68FA891A841437BD465DF8047B05
:10188000704700BF000001400004014080B485B0F3
:1018900000AF786039600023BB8100237B81002387
:1018A000FB817B681B8C9BB223F480539AB27B68CC
:1018B0001A847B681B8C7B817B689B88FB817B689F
:1018C0009B8BBB81BB8923F4E043BB81BB8923F4A1
:1018D0004073BB813B681B881B029AB2BB891343D0
:1018E000BB817B8923F400537B813B689B891B036D
:1018F0009AB27B8913437B813B685B881B039AB256
:101900007B8913437B817A68114B9A4203D07A68B2
:10191000104B9A420AD1FB8923F48043FB813B6838
:101920001B8A9B019AB2FB891343FB817B68FA896E
:101930009A807B68BA899A833B689A687B681A6444
:101940007B687A891A841437BD465DF8047B70473A
:10195000000001400004014080B485B000AF786011
:101960000B467B800023FB817B689B8BFB81FB8983
:1019700023F00803FB81FA897B881343FB817B6892
:10198000FA899A831437BD465DF8047B704700BF1F
:1019900080B485B000AF78600B467B800023FB816C
:1019A0007B689B8BFB81FB8923F40063FB817B8835
:1019B0001B029AB2FB891343FB817B68FA899A83E5
:1019C0001437BD465DF8047B704700BF80B483B018
:1019D00000AF786013460A467A807B707B78002BD4
:1019E00008D07B689B899AB27B8813439AB27B6844
:1019F0009A8109E07B689B899AB27B88DB439BB222
:101A000013409AB27B689A810C37BD465DF8047B1F
:101A1000704700BF80B483B000AF78600B467B8016
:101A20007B88DB439AB27B681A820C37BD465DF82F
:101A3000047B704780B483B000AF786013460A46D9
:101A40007A807B707B78002B08D07B689B899AB268
:101A50007B8813439AB27B689A8109E07B689B89F3
:101A60009AB27B88DB439BB213409AB27B689A811F
:101A70000C37BD465DF8047B704700BF81F0004124
:101A800002E000BF83F0004330B54FEA41044FEA63
:101A9000430594EA050F08BF90EA020F1FBF54EAFE
:101AA000000C55EA020C7FEA645C7FEA655C00F09A
:101AB000E2804FEA5454D4EB5555B8BF6D420CDD6B
:101AC0002C4480EA020281EA030382EA000083EAEE
:101AD000010180EA020281EA0303362D88BF30BD8E
:101AE00011F0004F4FEA01314FF4801C4CEA1131E4
:101AF00002D0404261EB410113F0004F4FEA033343
:101B00004CEA133302D0524263EB430394EA050FCD
:101B100000F0A780A4F10104D5F1200E0DDB02FA3C
:101B20000EFC22FA05F2801841F1000103FA0EF2D0
:101B3000801843FA05F359410EE0A5F120050EF196
:101B4000200E012A03FA0EFC28BF4CF0020C43FAC7
:101B500005F3C01851EBE37101F0004507D54FF0D4
:101B6000000EDCF1000C7EEB00006EEB0101B1F524
:101B7000801F1BD3B1F5001F0CD349085FEA30006A
:101B80004FEA3C0C04F101044FEA445212F5800F75
:101B900080F09A80BCF1004F08BF5FEA500C50F112
:101BA000000041EB045141EA050130BD5FEA4C0CF5
:101BB000404141EB010111F4801FA4F10104E9D17E
:101BC00091F0000F04BF01460020B1FA81F308BF75
:101BD0002033A3F10B03B3F120020CDA0C3208DD41
:101BE00002F1140CC2F10C0201FA0CF021FA02F11C
:101BF0000CE002F11402D8BFC2F1200C01FA02F18C
:101C000020FA0CFCDCBF41EA0C019040E41AA2BFB0
:101C100001EB0451294330BD6FEA04041F3C1CDA78
:101C20000C340EDC04F11404C4F1200220FA04F098
:101C300001FA02F340EA030021FA04F345EA030142
:101C400030BDC4F10C04C4F1200220FA02F001FA04
:101C500004F340EA0300294630BD21FA04F0294686
:101C600030BD94F0000F83F4801306BF81F480111F
:101C70000134013D4EE77FEA645C18BF7FEA655C92
:101C800029D094EA050F08BF90EA020F05D054EA64
:101C9000000C04BF1946104630BD91EA030F1EBF69
:101CA0000021002030BD5FEA545C05D1400049416D
:101CB00028BF41F0004130BD14F580043CBF01F560
:101CC000801130BD01F0004545F0FE4141F4700146
:101CD0004FF0000030BD7FEA645C1ABF1946104621
:101CE0007FEA655C1CBF0B46024650EA013406BF22
:101CF00052EA033591EA030F41F4002130BD00BFE1
:101D000090F0000F04BF0021704730B54FF480649D
:101D100004F132044FF000054FF0000150E700BF1E
:101D200090F0000F04BF0021704730B54FF480647D
:101D300004F1320410F0004548BF40424FF000016A
:101D40003EE700BF42004FEAE2014FEA31014FEAAD
:101D500002701FBF12F07F4393F07F4F81F06051FC
:101D6000704792F0000F14BF93F07F4F704730B56B
:101D70004FF4607401F0004521F0004120E700BFFE
:101D800050EA010208BF704730B54FF000050AE085
:101D900050EA010208BF704730B511F0004502D586
:101DA000404261EB41014FF4806404F132045FEA88
:101DB000915C3FF4DCAE4FF003025FEADC0C18BF2D
:101DC00003325FEADC0C18BF033202EBDC02C2F123
:101DD000200300FA03FC20FA02F001FA03FE40EAB5
:101DE0000E0021FA02F11444C1E600BF70B54FF0B5
:101DF000FF0C4CF4E06C1CEA11541DBF1CEA135597
:101E000094EA0C0F95EA0C0F00F0DEF82C4481EAFE
:101E1000030621EA4C5123EA4C5350EA013518BF1E
:101E200052EA033541F4801143F4801338D0A0FB0B
:101E300002CE4FF00005E1FB02E506F00042E0FBB8
:101E400003E54FF00006E1FB03569CF0000F18BFBE
:101E50004EF0010EA4F1FF04B6F5007F64F5407466
:101E600004D25FEA4E0E6D4146EB060642EAC621F9
:101E700041EA55514FEAC52040EA5E504FEACE2E66
:101E8000B4F1FD0C88BFBCF5E06F1ED8BEF1004F69
:101E900008BF5FEA500E50F1000041EB045170BDE5
:101EA00006F0004646EA010140EA020081EA030129
:101EB000B4EB5C04C2BFD4EB0C0541EA045170BD25
:101EC00041F480114FF0000E013C00F3AB8014F19F
:101ED000360FDEBF002001F0004170BDC4F10004E8
:101EE000203C35DA0C341BDC04F11404C4F1200569
:101EF00000FA05F320FA04F001FA05F240EA0200C4
:101F000001F0004221F0004110EBD37021FA04F6F9
:101F100042EB06015EEA430E08BF20EAD37070BDB3
:101F2000C4F10C04C4F1200500FA04F320FA05F012
:101F300001FA04F240EA020001F0004110EBD37014
:101F400041F100015EEA430E08BF20EAD37070BD84
:101F5000C4F1200500FA05F24EEA020E20FA04F35D
:101F600001FA05F243EA020321FA04F001F000410C
:101F700021FA04F220EA020000EBD3705EEA430E7D
:101F800008BF20EAD37070BD94F0000F0FD101F0AC
:101F90000046400041EB010111F4801F08BF013CE5
:101FA000F7D041EA060195F0000F18BF704703F023
:101FB0000046520043EB030313F4801F08BF013DAA
:101FC000F7D043EA0603704794EA0C0F0CEA135566
:101FD00018BF95EA0C0F0CD050EA410618BF52EA20
:101FE0004306D1D181EA030101F000414FF0000026
:101FF00070BD50EA410606BF1046194652EA430634
:1020000019D094EA0C0F02D150EA013613D195EAA7
:102010000C0F05D152EA03361CBF104619460AD1EF
:1020200081EA030101F0004141F0FE4141F47001F9
:102030004FF0000070BD41F0FE4141F4780170BDE9
:1020400070B54FF0FF0C4CF4E06C1CEA11541DBF4E
:102050001CEA135594EA0C0F95EA0C0F00F0A7F850
:10206000A4EB050481EA030E52EA03354FEA01317D
:1020700000F088804FEA03334FF0805545EA131390
:1020800043EA12634FEA022245EA111545EA106558
:102090004FEA00260EF000419D4208BF964244F1EF
:1020A000FD0404F5407402D25B084FEA3202B61A0E
:1020B00065EB03055B084FEA32024FF480104FF4E2
:1020C000002CB6EB020E75EB030E22BFB61A754656
:1020D00040EA0C005B084FEA3202B6EB020E75EBE9
:1020E000030E22BFB61A754640EA5C005B084FEA51
:1020F0003202B6EB020E75EB030E22BFB61A75461E
:1021000040EA9C005B084FEA3202B6EB020E75EB28
:10211000030E22BFB61A754640EADC0055EA060EE9
:1021200018D04FEA051545EA16754FEA06164FEA2C
:10213000C30343EA52734FEAC2025FEA1C1CC0D1D8
:1021400011F4801F0BD141EA00014FF000004FF065
:10215000004CB6E711F4801F04BF01430020B4F126
:10216000FD0C88BFBCF5E06F3FF6AFAEB5EB030CDE
:1021700004BFB6EB020C5FEA500C50F1000041EBDB
:10218000045170BD0EF0004E4EEA113114EB5C04A8
:10219000C2BFD4EB0C0541EA045170BD41F480117B
:1021A0004FF0000E013C90E645EA060E8DE60CEA83
:1021B000135594EA0C0F08BF95EA0C0F3FF43BAFA0
:1021C00094EA0C0F0AD150EA01347FF434AF95EA57
:1021D0000C0F7FF425AF104619462CE795EA0C0F3B
:1021E00006D152EA03353FF4FDAE1046194622E708
:1021F00050EA410618BF52EA43067FF4C5AE50EAE2
:1022000041047FF40DAF52EA43057FF4EBAE12E7D1
:102210004FEA410212F5001215D211D56FF478730E
:10222000B3EB625212D94FEAC12343F0004343EAB1
:10223000505311F0004F23FA02F018BF404270478C
:102240004FF00000704750EA013005D111F0004016
:1022500008BF6FF0004070474FF00000704700BFAC
:102260002A2A2A2A2A555341474520475549444599
:102270002A2A2A2A2A0D0A546869732070726F6705
:1022800072616D207472616E736C61746573207518
:1022900073657220647261772072657175657374FD
:1022A00020746F20647261772066756E6374696F45
:1022B0006E20776869636820647269766520746847
:1022C000652056474120646973706C61792E0D0A50
:1022D000546865207573657220686173206120639E
:1022E00065727461696E2073656C656374696F6E85
:1022F000206F6620636F6D6D616E6473207768690F
:1023000063682063616E20626520696E7365727414
:1023100065642C20746865736520636F6D6D616EF4
:102320006473206172653A0D0A777269746520746E
:102330006578743A207468697320636F6D6D616E9F
:102340006420707574732074657874206F6E2070CB
:102350006F736974696F6E20782F792C20746865AB
:1023600020666F6E742C2073697A652C20746578F2
:102370007420636F6C6F7220616E64206261636BA6
:1023800067726F756E6420636F6C6F722063616E2D
:102390002062652063686F73656E0D0A2009096508
:1023A00078616D706C653A2074656B73742C5B7822
:1023B000706F736974696F6E5D2C5B79706F736990
:1023C00074696F6E5D2C5B73656E74656E63655DBD
:1023D0002C5B7465787420636F6C6F725D2C5B6628
:1023E0006F6E74206E616D655D2C5B666F6E742020
:1023F000747970655D2C5B666F6E742073697A65A5
:102400005D2C5B6261636B67726F756E6420636FD6
:102410006C6F725D0D0A0909617267756D656E7486
:102420002072616E6765733A200D0A090978706F32
:10243000736974696F6E3A2030202D3E203332303C
:102440000D0A090979706F736974696F6E3A2030EB
:10245000202D3E203234300D0A090973656E7465F3
:102460006E6365203A20646570656E6473206F6EDC
:1024700020666F6E742073697A650D0A09097465A8
:10248000787420636F6C6F723A20302D3E3235368F
:1024900028616C6C20706F7369626C6520636F6C6F
:1024A0006F727329206F72207A776172742C626C5C
:1024B0006175772C6C69636874626C6175772C67E1
:1024C000726F656E2C6C6963687467726F656E2CD1
:1024D000637961616E2C6C69636874637961616EA4
:1024E0002C726F6F642C6C69636874726F6F642CEC
:1024F0006D6167656E74612C6C696368746D61678A
:10250000656E74612C627275696E2C6765656C2CE2
:102510006772696A732C7769740909666F6E742033
:102520006E616D6528696E736572742074686520CC
:10253000657861637420726570726573656E74612D
:1025400074696F6E293A2054696D6573204E657702
:1025500020526F6D616E2C20436F6D696320736133
:102560006E730909666F6E74207479706528696EE0
:102570007365727420746865206578616374207275
:102580006570726573656E746174696F6E293A2047
:10259000426F6C642C20726567756C617209096604
:1025A0006F6E742073697A653A20382C203132209E
:1025B0002620323009096261636B67726F756E6441
:1025C00020636F6C6F723A2073616D6520617320B8
:1025D0007465787420636F6C6F7244726177206CDD
:1025E000696E653A207468697320636F6D6D616E02
:1025F000642064726177732061206C696E65206F5E
:102600006E20706F736974696F6E20782F792C203B
:1026100074686520666F6E742C2073697A652C204F
:102620007465787420636F6C6F7220616E642062D1
:1026300061636B67726F756E6420636F6C6F72207D
:1026400063616E2062652063686F73656E0D0A209A
:1026500009096578616D706C653A2074656B7374F7
:102660002C5B78706F736974696F6E5D2C5B797029
:102670006F736974696F6E5D2C5B78706F736974CA
:10268000696F6E325D2C5B79706F736974696F6E00
:10269000325D2C5B4C696E6520746869636B6E6596
:1026A00073735D2C205B636F6C6F725D0D0A09099B
:1026B000617267756D656E742072616E6765733ADD
:1026C000200D0A090978706F736974696F6E3A207A
:1026D00030202D3E20333230090979706F736974D0
:1026E000696F6E3A2030202D3E203234300909784F
:1026F000706F736974696F6E323A2030202D3E20FE
:10270000333230090979706F736974696F6E323AC8
:102710002030202D3E2032343009097769647468F6
:10272000203A2030202D3E20333028746869636BB6
:102730006572207468616E20746869732077696CB3
:102740006C207275696E20746865206669677572A1
:10275000650909636F6C6F723A20302D3E32353651
:1027600028616C6C20706F7369626C6520636F6C9C
:102770006F727329206F72207A776172742C626C89
:102780006175772C6C69636874626C6175772C670E
:10279000726F656E2C6C6963687467726F656E2CFE
:1027A000637961616E2C6C69636874637961616ED1
:1027B0002C726F6F642C6C69636874726F6F642C19
:1027C0006D6167656E74612C6C696368746D6167B7
:1027D000656E74612C627275696E2C6765656C2C10
:1027E0006772696A732C7769744472617720656CCB
:1027F0006C697073653A207468697320636F6D6DDE
:10280000616E64206472617773206120656C6C690D
:102810007065206F6E20706F736974696F6E2078B9
:102820002F792077697468206120686F72697A6FE8
:102830006E74616C207261646975732072312061FD
:102840006E6420766572746963616C20726164697C
:1028500075732072322E20090957686574657220DD
:1028600074686520656C6C69707365206973206697
:10287000696C6C6564206F72206E6F7420697320C0
:1028800064657465726D696E65642062792066693D
:102890006C6C2C20746869636B6E6573732069734C
:1028A0002064657465726D696E65642062696A2072
:1028B000746869636B6E6573730D0A200909657826
:1028C000616D706C653A2074656B73742C5B787005
:1028D0006F736974696F6E5D2C5B79706F73697467
:1028E000696F6E5D2C5B78706F736974696F6E329F
:1028F0005D2C5B79706F736974696F6E325D2C5BF0
:102900004C696E6520746869636B6E6573735D2CCA
:10291000205B636F6C6F725D0D0A090961726775E8
:102920006D656E742072616E6765733A200D0A09D9
:102930000978706F736974696F6E3A2030202D3E8C
:1029400020333230090979706F736974696F6E3A98
:102950002030202D3E20323430090978706F7369A1
:1029600074696F6E323A2030202D3E2033323009A8
:102970000979706F736974696F6E323A2030202D57
:102980003E2032343009097769647468203A203077
:10299000202D3E20333028746869636B6572207483
:1029A00068616E20746869732077696C6C20727539
:1029B000696E2074686520666967757265090963C8
:1029C0006F6C6F723A20302D3E32353628616C6C58
:1029D00020706F7369626C6520636F6C6F7273290E
:1029E000206F72207A776172742C626C6175772C1B
:1029F0006C69636874626C6175772C67726F656E61
:102A00002C6C6963687467726F656E2C63796161A1
:102A10006E2C6C69636874637961616E2C726F6F80
:102A2000642C6C69636874726F6F642C6D61676588
:102A30006E74612C6C696368746D6167656E746136
:102A40002C627275696E2C6765656C2C6772696A99
:102A5000732C7769740000006C6F76650D000000C0
:102A60000000000001020304010203040607080934
:0400000508000000EF
:00000001FF
