:020000040800F2
:100000005C3E0120310700088D0700088D070008BD
:100010008D0700088D0700088D070008000000000C
:100020000000000000000000000000008D07000834
:100030008D070008000000008D0700088D070008EC
:100040008D0700088D0700088D0700088D07000840
:100050008D0700088D0700088D0700088D07000830
:100060008D0700088D0700088D0700088D07000820
:100070008D0700088D0700088D0700088D07000810
:100080008D0700088D0700088D0700088D07000800
:100090008D0700088D0700088D0700088D070008F0
:1000A0008D0700088D0700088D0700088D070008E0
:1000B000AD1500088D0700088D0700088D070008A2
:1000C0008D0700088D0700088D0700088D070008C0
:1000D0008D0700088D070008810600088D070008BD
:1000E0008D0700088D0700088D0700088D070008A0
:1000F0008D0700088D0700088D0700088D07000890
:100100008D0700088D0700088D0700088D0700087F
:100110008D0700088D0700088D0700088D0700086F
:100120008D0700088D0700088D0700088D0700085F
:100130008D0700088D0700088D0700088D0700084F
:100140008D0700088D0700088D0700088D0700083F
:10015000651600088D0700088D0700088D07000848
:100160008D0700088D0700088D0700088D0700081F
:100170008D0700088D0700088D0700088D0700080F
:100180008D0700088D07000880B58AB000AF786041
:10019000396000237B6200233B620023FB61002364
:1001A000BB617B681B8A9BB27B627B6A23F44053F2
:1001B0007B623B68DB887A6A13437B627B6A9AB214
:1001C0007B681A827B689B899BB27B627B6A23F483
:1001D000B05323F00C037B623B689A883B681B8911
:1001E00013439AB23B685B8913439BB27A6A134309
:1001F0007B627B6A9AB27B689A817B689B8A9BB29E
:100200007B627B6A23F440737B623B689B897A6ADA
:1002100013437B627B6A9AB27B689A8207F1080378
:10022000184600F0C7FA7A68314B9A4203D07A68D0
:10023000304B9A4202D17B693B6201E03B693B62F1
:100240007B689B899BB29BB21BB2002B0CDA3A6A8B
:1002500013469B0013449A001A443B681B685B00DA
:10026000B2FBF3F3FB610BE03A6A13469B001344C5
:100270009A001A443B681B689B00B2FBF3F3FB61D6
:10028000FA691D4BA3FB02135B091B017B627B6AAE
:100290001B09642202FB03F3FA69D31ABB617B6872
:1002A0009B899BB29BB21BB2002B0DDABB69DB00B2
:1002B00003F13202104BA3FB02135B0903F00703A7
:1002C0007A6A13437B620CE0BB691B0103F13202C3
:1002D000094BA3FB02135B0903F00F037A6A134374
:1002E0007B627B6A9AB27B681A812837BD4680BDE3
:1002F00000100140001401401F85EB5180B483B011
:1003000000AF78600B46FB70FB78002B08D07B6851
:100310009B899BB243F400539AB27B689A8107E0B1
:100320007B689B899BB223F400539AB27B689A81C5
:100330000C37BD465DF8047B704700BF80B483B0C6
:1003400000AF78600B467B807B88C3F308039AB2CA
:100350007B689A800C37BD465DF8047B704700BF10
:1003600080B487B000AF786013460A467A807B700D
:1003700000233B610023FB600023BB6000237B6103
:100380007B687B617B88DBB25B09DBB23B617B888E
:1003900003F01F03FB60FB68012202FA03F3BB605A
:1003A0003B69012B03D17B690C337B6109E03B691D
:1003B000022B03D17B6910337B6102E07B6914332C
:1003C0007B617B78002B06D07B697A691168BA68FB
:1003D0000A431A6006E07B697A691168BA68D243F9
:1003E0000A401A601C37BD465DF8047B704700BFA9
:1003F00080B485B000AF78600B467B800023FB7330
:100400007B681B889AB27B8813409BB2002B02D07A
:100410000123FB7301E00023FB73FB7B18461437B9
:10042000BD465DF8047B704780B487B000AF78604C
:100430000B467B800023FB6000237B610023BB60B5
:100440000023FB747B88DBB25B09DBB2BB607B887B
:1004500003F01F037B617B69012202FA03F37B61D6
:10046000BB68012B06D17B689B899BB27A691340DC
:100470007B610FE0BB68022B06D17B681B8A9BB2B5
:100480007A6913407B6105E07B689B8A9BB27A693D
:1004900013407B617B881B0A9BB2FB60FB680122D7
:1004A00002FA03F3FB607B681B889BB2FA68134077
:1004B000FB607B69002B05D0FB68002B02D0012379
:1004C000FB7401E00023FB74FB7C18461C37BD461F
:1004D0005DF8047B704700BF80B485B000AF7860E2
:1004E0000B467B800023FB810023BB817B881B0A9A
:1004F000FB81FB89012202FA03F3BB81BB89DB4349
:100500009AB27B681A801437BD465DF8047B704749
:1005100080B584B000AF13460246FA710A46BA713C
:100520007B710023FB810023BB8100237B81BB798E
:10053000F02B02D9294801F0E3FFBB79BB8144E0ED
:10054000FB797B8139E0264B1B685A1C244B1A60CF
:10055000234B1B68B3F5965F0ED1224B00221A6025
:1005600004E0204B1B685A1C1E4B1A601D4B1A6876
:1005700041F287339A42F4DD0023FB8115E0FB89C9
:100580001A46920013441B019AB27B89134499B214
:10059000134B1B68144AD35CBA89084611461A46A5
:1005A00000F0B2FEFB890133FB817B799BB2FA89B3
:1005B0009A42E4D37B8901337B817A89FB7950337A
:1005C0009A42C0DBBB890133BB81BA89BB793C331A
:1005D0009A42B5DB1037BD4680BD00BF14840008C9
:1005E000AC080020B00800205471000880B586B027
:1005F00000AF4FF40030012100F0A4F901200121E7
:1006000000F082F90C233B6102233B750023BB758C
:100610000123FB7502237B7507F110031648194669
:1006200000F0CCF914480221072200F055FA1248D4
:100630000321072200F050FA4FF4E1333B6000231E
:10064000BB800023FB8000233B810023BB810C2364
:100650007B813B4609481946FFF796FD074840F263
:1006600025510122FFF77CFE04480121FFF746FED9
:100670001837BD4680BD00BF000002400044004066
:1006800080B582B000AF274840F22551FFF7CCFE7D
:100690000346002B43D0234840F22551FFF71CFFAF
:1006A000204B9B889BB2FB70FB78402B05D9FB78D5
:1006B0005A2B02D8FB782033FB70FB780D2B1CD80B
:1006C00000237B600AE0184A7B6813441B781548B6
:1006D0001946FFF733FE7B6801337B60134B1B68C1
:1006E0007A689A42EFDB114B00221A60FB789BB2CA
:1006F0000C481946FFF722FE09E00C4B1B680A4A1A
:10070000F978D154094B1B685A1C084B1A6000BF7A
:1007100004484021FFF76CFE0346002BF8D0083751
:10072000BD4680BD00440040F8350120B4080020DB
:1007300080B582B000AF104B7B60104B3B6007E090
:100740003B681A1D3A607A68111D796012681A6058
:100750003A680B4B9A42F3D30A480B494FF0000218
:100760008842B8BF40F8042BFFF6FAAF00F012F849
:100770000837BD4680BD00BFD885000800000020B6
:10078000AC080020AC0800206036012080B400AF27
:10079000FEE700BF80B500AF00F05AFA00F074FD2C
:1007A00000F0E2F9FFF722FF002000210522FFF709
:1007B000AFFEFEE780B489B000AF78600023BB6174
:1007C00000237B610023FB6102233B610023FB606C
:1007D0000223BB60484B9B6803F00C03BB61BB6901
:1007E000042B07D0082B09D0002B3FD17B68434A4C
:1007F0001A603FE07B68424A1A603BE03E4B5B6810
:1008000003F480039B0DFB603B4B5B6803F03F03ED
:10081000BB60FB68002B0DD0394ABB68B2FBF3F21A
:10082000354B596847F6C0730B409B0903FB02F335
:10083000FB610CE0314ABB68B2FBF3F22E4B596806
:1008400047F6C0730B409B0903FB02F3FB612A4B85
:100850005B6803F440331B0C01335B003B61FA69B6
:100860003B69B2FBF3F27B681A6003E07B68234AC2
:100870001A6000BF204B9B6803F0F003BB61BB69AB
:100880001B09BB611F4ABB6913441B78DBB27B6148
:100890007B681A687B69DA407B685A60164B9B68F4
:1008A00003F4E053BB61BB699B0ABB61154ABB699A
:1008B00013441B78DBB27B617B685A687B69DA4042
:1008C0007B689A600C4B9B6803F46043BB61BB6917
:1008D0005B0BBB610B4ABB6913441B78DBB27B61CA
:1008E0007B685A687B69DA407B68DA602437BD46EA
:1008F0005DF8047B704700BF003802400024F4001C
:1009000000127A000000002080B483B000AF78604D
:100910000B46FB70FB78002B06D0094B084A116B85
:100920007A680A431A6306E0054B054A116B7A6838
:10093000D2430A401A630C37BD465DF8047B70470A
:100940000038024080B483B000AF78600B46FB7083
:10095000FB78002B06D0094B084A116C7A680A43D1
:100960001A6406E0054B054A116C7A68D2430A40C6
:100970001A640C37BD465DF8047B704700380240AE
:1009800080B483B000AF78600B46FB70FB78002B1F
:1009900006D0094B084A516C7A680A435A6406E04B
:1009A000054B054A516C7A68D2430A405A640C37A9
:1009B000BD465DF8047B70470038024080B487B0C4
:1009C00000AF7860396000237B6100233B61002326
:1009D000FB6000237B6176E07B69012202FA03F36E
:1009E0003B613B681A683B691340FB60FA683B69EE
:1009F0009A4265D17B681A687B695B00032101FA22
:100A000003F3DB431A407B681A607B681A683B6813
:100A10001B7919467B695B0001FA03F31A437B6873
:100A20001A603B681B79012B03D03B681B79022BB2
:100A30002ED17B689A687B695B00032101FA03F37E
:100A4000DB431A407B689A607B689A683B685B79F5
:100A500019467B695B0001FA03F31A437B689A60CD
:100A60007B685A687B699BB2012101FA03F3DB437F
:100A70001A407B685A607B685A683B689B791946C4
:100A80007B699BB201FA03F39BB21A437B685A60FD
:100A90007B68DA687B699BB25B00032101FA03F390
:100AA000DB431A407B68DA607B68DA683B68DB7995
:100AB00019467B695B0001FA03F31A437B68DA602D
:100AC0007B6901337B617B690F2B85D91C37BD4660
:100AD0005DF8047B704700BF80B485B000AF7860DC
:100AE00013460A467A807B700023FB600023BB60BC
:100AF0007A787B8803F007039B0002FA03F3FB601C
:100B00007B88DB089BB21A467B88DB089BB21946C0
:100B10007B68083153F821107B8803F007039B00A2
:100B20000F2000FA03F3DB4319407B68083243F8D7
:100B300022107B88DB089BB21A467B68083253F888
:100B40002220FB681343BB607B88DB089BB21A46FC
:100B50007B680832B96843F822101437BD465DF847
:100B6000047B70470000000080B584B000AF3B46B6
:100B70001846FFF71FFE3B681A46314B1A60304B90
:100B80001B68184601F094F902460B4610461946B8
:100B90004FF000022B4B01F0F1F902460B461046D4
:100BA000194623A3D3E9002301F012FB02460B46AA
:100BB000104619464FF000024FF0804301F008FB49
:100BC00002460B461046194601F072FC02461E4BC7
:100BD0001A601B4B1B68184601F06AF902460B4667
:100BE000104619464FF00002164B01F0C7F90246B5
:100BF0000B461046194610A3D3E9002301F0E8FA8A
:100C000002460B46104619464FF000024FF0804353
:100C100001F0DEFA02460B461046194601F048FC88
:100C200002460A4B1A601037BD4680BDAFF3008004
:100C3000000000002A759541000000046BF4344266
:100C4000B80800200000F43FBC080020C0080020C5
:100C500080B500AF114B114A126842F001021A60D0
:100C60000E4B00229A600D4A0C4B1B6823F08473D4
:100C700023F480331360094B094A5A60074B074A33
:100C8000126822F480221A60044B0022DA6000F01D
:100C90000BF8044B4FF000629A6080BD00380240B0
:100CA0001030002400ED00E080B483B000AF0023DA
:100CB0007B6000233B60354B344A126842F480323B
:100CC0001A60324B1B6803F400333B607B680133CE
:100CD0007B603B68002B03D17B68B3F5A06FF0D13C
:100CE0002A4B1B6803F40033002B02D001233B6026
:100CF00001E000233B603B68012B42D1234B234A98
:100D0000126C42F080521A64214B214A126842F45C
:100D100080421A601D4B1D4A92689A601B4B1B4A09
:100D2000926842F400429A60184B184A926842F462
:100D3000A0529A60154B174A5A60144B134A126816
:100D400042F080721A6000BF104B1B6803F0007302
:100D5000002BF9D0104B40F205621A600B4B0B4A86
:100D6000926822F003029A60084B084A926842F0A7
:100D700002029A6000BF054B9B6803F00C03082B2E
:100D8000F9D10C37BD465DF8047B7047003802404E
:100D90000070004008544007003C024080B485B019
:100DA00000AF78600B4B1B68002B02D1094B0A4A3D
:100DB0001A60084B1B68FB60064B1A687B681A4474
:100DC000044B1A60FB6818461437BD465DF8047B77
:100DD000704700BFC40800206036012080B483B093
:100DE00000AF78604FF0FF3318460C37BD465DF812
:100DF000047B704780B483B000AF786039603B6893
:100E00004FF400525A60002318460C37BD465DF877
:100E1000047B704780B483B000AF7860012318462C
:100E20000C37BD465DF8047B704700BF80B485B0C9
:100E300000AFF860B9607A60002318461437BD46E9
:100E40005DF8047B704700BF80B485B000AFF860E8
:100E5000B9607A607B6818461437BD465DF8047B3C
:100E6000704700BF80B485B000AFF860B9607A60A9
:100E70007B6818461437BD465DF8047B704700BF99
:100E800080B483B000AF78607B681B6823F00102F8
:100E90007B681A607B6800221A607B6800225A60B7
:100EA0007B6800229A607B680022DA607B680022FF
:100EB0001A617B6821225A617A68454B9A4203D1B4
:100EC000444B3D229A607EE07A68434B9A4204D1BB
:100ED000404B4FF474629A6075E07A683F4B9A42D7
:100EE00004D13C4B4FF474129A606CE07A683C4B2E
:100EF0009A4204D1374B4FF074629A6063E07A688B
:100F0000384B9A4203D1334B374ADA605BE07A6858
:100F1000364B9A4203D12F4B354ADA6053E07A6858
:100F2000344B9A4203D12B4B334ADA604BE07A6858
:100F3000324B9A4204D1274B4FF03D52DA6042E0E7
:100F40007A682F4B9A4203D12E4B3D229A603AE0A9
:100F50007A682D4B9A4204D12A4B4FF474629A60FE
:100F600031E07A68294B9A4204D1264B4FF474122F
:100F70009A6028E07A68264B9A4204D1214B4FF0C0
:100F800074629A601FE07A68224B9A4203D11D4B2B
:100F9000154ADA6017E07A681F4B9A4203D1194B61
:100FA000134ADA600FE07A681C4B9A4203D1154B62
:100FB000114ADA6007E07A68194B9A4203D1114B63
:100FC0004FF03D52DA600C37BD465DF8047B704748
:100FD0001060024000600240286002404060024011
:100FE00058600240706002403D000020886002406E
:100FF000400F0020A060024000003D20B860024089
:1010000010640240006402402864024040640240D0
:10101000586402407064024088640240A064024048
:10102000B864024080B485B000AF786039600023B6
:10103000FB607B681B68FB60FA68244B1340FB6015
:101040003B681A683B68DB681A433B685B691A4374
:101050003B689B691A433B68DB691A433B681B6A20
:101060001A433B685B6A1A433B689B6A1A433B68B6
:101070005B6B1A433B689B6B1343FA681343FB603B
:101080007B68FA681A607B685B69FB60FB6823F029
:101090000703FB603B68DA6A3B681B6B1343FA6823
:1010A0001343FB607B68FA685A613B681A697B6886
:1010B0005A603B685A687B689A603B689A687B68AC
:1010C000DA601437BD465DF8047B70473F801CF042
:1010D00080B483B000AF78600B46FB70FB78002BC8
:1010E00006D07B681B6843F001027B681A6005E04C
:1010F0007B681B6823F001027B681A600C37BD46D1
:101100005DF8047B704700BF80B485B000AFF86025
:10111000B9601346FB71BB6803F08003002B0FD04E
:10112000FB79002B06D0FB685B6943F08002FB680B
:101130005A6105E0FB685B6923F08002FB685A6135
:10114000BB68802B14D0FB79002B08D0FB681A6891
:10115000BB6803F01E031A43FB681A6008E0FB68D3
:101160001A68BB6803F01E03DB431A40FB681A6071
:101170001437BD465DF8047B704700BF80B487B06C
:1011800000AF786039600023FB750023FB6000230B
:10119000BB607A68224B9A4202D8224B3B6101E045
:1011A000214B3B613B6823F0F02323F0C313002B5A
:1011B0000AD03B68DB0A03F01E03FB607B681A68F9
:1011C000FB681340BB6004E07B685B6903F080034D
:1011D000BB603B6803F00053002B03D03B695B68A6
:1011E000FB6002E03B691B68FB60FB6823F0F023B7
:1011F00023F08213FB60FA683B681340002B05D094
:10120000BB68002B02D00123FB7501E00023FB75B6
:10121000FB7D18461C37BD465DF8047B704700BF58
:101220000F640240006002400064024080B485B058
:1012300000AF786039607A68104B9A4202D8104B40
:10124000FB6001E00F4BFB603B6803F00053002B99
:1012500007D03B6823F0F02323F08213FA68D360B1
:1012600006E03B6823F0F02323F08213FA689360D2
:101270001437BD465DF8047B704700BF0F64024021
:10128000006002400064024080B582B000AF1B4B9A
:1012900000221A80194B00225A60184B00229A60D3
:1012A0000023BB8017E00023FB800DE0BA881346C3
:1012B0009B0013449B011A44FB881344104A0021ED
:1012C000D154FB880133FB80FB88B3F5A07FEDD9B7
:1012D000BB880133BB80BB88EF2BE4D900F03AF820
:1012E00000F08CF800F01AF900F0ECF8054B1A68E1
:1012F000024B9A600837BD4680BD00BFFC08002045
:10130000080900208864024080B483B000AF13460F
:101310000246FA800A46BA80FB70FB88B3F5A07FCC
:1013200001D30023FB80BB88EF2B01D90023BB80B6
:10133000BA8813469B0013449B011A44FB8813444C
:10134000034AF978D1540C37BD465DF8047B7047E9
:101350000809002080B582B000AF10200121FFF7FE
:10136000D3FA4FF47F433B6001233B710023BB71F1
:101370000123FB7103237B713B461E481946FFF78F
:101380001DFB1C4B4FF47F425A8302200121FFF7C3
:10139000BBFA4FF400633B6002233B7103237B7174
:1013A0000023BB710123FB713B4613481946FFF72D
:1013B00005FB11480B210122FFF78EFB02200121C2
:1013C000FFF7A2FA4FF480533B6001233B710023E7
:1013D000BB710123FB7103237B713B460648194611
:1013E000FFF7ECFA044B4FF480521A830837BD46DE
:1013F00080BD00BF001002400004024080B588B0EC
:1014000000AF01200121FFF7BBFA0B23BB610023D2
:10141000BB820023BB830023FB8207F1140328480F
:10142000194600F0A3F901200121FFF78BFA40F6DD
:101430006B23BB610023BB820023BB830023FB82A1
:1014400007F114034FF08040194600F08FF9602334
:101450003B8001237B804FF4D273BB600223BB81AE
:101460003B464FF08040194600F02AFA4FF080408A
:10147000082100F011FB60233B8001237B804FF4A7
:10148000A073BB600223BB813B464FF080401946EE
:1014900000F09CFA4FF08040082100F019FB08484A
:1014A000012100F0CDF94FF08040012100F0C8F992
:1014B0004FF08040012100F0E3F92037BD4680BDA8
:1014C0000000014080B582B000AF13481021012216
:1014D000FFF71AFE44233B7100237B710023BB718D
:1014E0000123FB713B1D184600F0E2F84FF08040ED
:1014F0000821012200F00AFB1C233B7100237B71B1
:101500000023BB710123FB713B1D184600F0D0F88E
:101510000837BD4680BD00BF8864024080B590B0EA
:1015200000AF4FF480000121FFF7EEF91B480021C6
:10153000FFF7CEFD1948FFF7A3FC4FF040637B6037
:10154000174BBB60174BFB6040233B6140F24113DC
:101550007B610023BB614FF48063FB6100233B622E
:1015600000237B620023BB624FF44033FB62002305
:101570003B6301237B630023BB630023FB633B1DB1
:1015800006481946FFF74EFD07484FF480710122C7
:1015900000F0F0FA4037BD4680BD00BF88640240CD
:1015A00015100240080900200000014080B500AF7E
:1015B0004FF08040082100F0CDFA254B1B88013305
:1015C0009AB2234B1A80224B1B88B3F5037F05D9AF
:1015D0001F4B00221A801F4A1D4B5A601C4B1B8850
:1015E000012B04D81C4B4FF480525A8303E01A4B52
:1015F0004FF480521A83164B1B88232B27D9144B88
:101600001A8840F202239A4221D8144B104A926859
:101610001A60124B0E4A5268DA60114B104A128857
:1016200092B242F0010292B21A800C4B0B4A12683D
:1016300042F001021A60064B1B8803F00103002BE5
:1016400005D0034B5B6803F24112014B5A6080BD29
:10165000FC080020080900200004024088640240C1
:101660000000014080B500AF0D480E49FFF786FD30
:101670000346002B12D00A480A49FFF7D7FD0A4B50
:10168000094A128892B222F0010292B21A80044BE7
:1016900000221A60054B4FF47F425A8380BD00BF81
:1016A00088640240008800200000014000100240D1
:1016B00080B485B000AF78600023FB730023BB7358
:1016C0000F237B737B68DB78002B37D0254BDB68DF
:1016D000DB4303F4E0631B0AFB73FB7BC3F10403EE
:1016E000BB737A7BFB7B42FA03F37B737B685B788B
:1016F0001A46BB7B02FA03F3FB737B689A787B7B09
:101700001340DAB2FB7B1343FB73FB7B1B01FB73C0
:10171000154A7B681B781344FA7B83F80023124B2D
:101720007A6812785209D2B27968097801F01F01FB
:10173000012000FA01F143F822100EE00A4B7A680A
:1017400012785209D2B27968097801F01F0101209C
:1017500000FA01F1203243F822101437BD465DF83B
:10176000047B704700ED00E000E100E080B485B04C
:1017700000AF786039600023FB817B681B88FB81A8
:101780007A68284B9A4213D07A68274B9A420FD036
:101790007B68B3F1804F0BD07A68244B9A4207D014
:1017A0007A68234B9A4203D07A68224B9A4208D136
:1017B000FB8923F07003FB813B685A88FB89134344
:1017C000FB817A681C4B9A420CD07A681B4B9A4278
:1017D00008D0FB8923F44073FB813B681A89FB899D
:1017E0001343FB817B68FA891A803B685A687B68DF
:1017F000DA623B681A887B681A857A68094B9A42D4
:1018000003D07A68084B9A4204D13B689B7A1A4607
:101810007B681A867B6801229A821437BD465DF880
:10182000047B7047000001400004014000040040B8
:1018300000080040000C0040001000400014004070
:1018400080B483B000AF78600B46FB70FB78002B50
:1018500008D07B681B889BB243F080039AB27B68F8
:101860001A8007E07B681B889BB223F080039AB242
:101870007B681A800C37BD465DF8047B704700BF5B
:1018800080B483B000AF78600B46FB70FB78002B10
:1018900008D07B681B889BB243F001039AB27B6837
:1018A0001A8007E07B681B889BB223F001039AB281
:1018B0007B681A800C37BD465DF8047B704700BF1B
:1018C00080B485B000AF7860396000237B8100234D
:1018D000FB810023BB817B681B8C9BB223F480734C
:1018E0009AB27B681A847B681B8CFB817B689B881F
:1018F000BB817B689B8B7B817B8923F070037B8121
:101900007B8923F003037B813B681A887B8913431F
:101910007B81FB8923F40073FB813B689B891B025D
:101920009AB2FB891343FB813B685B881B029AB226
:10193000FB891343FB817A68224B9A4203D07A6871
:10194000214B9A422BD1FB8923F40063FB813B6836
:10195000DB891B029AB2FB891343FB81FB8923F4C9
:101960008063FB813B689B881B029AB2FB8913430F
:10197000FB81BB8923F48053BB81BB8923F40053D3
:10198000BB813B681B8A1B019AB2BB891343BB8195
:101990003B685B8A1B019AB2BB891343BB817B689E
:1019A000BA899A807B687A899A833B689A687B684F
:1019B000DA637B68FA891A841437BD465DF8047BC4
:1019C000704700BF000001400004014080B485B0B2
:1019D00000AF786039600023BB8100237B81002346
:1019E000FB817B681B8C9BB223F480539AB27B688B
:1019F0001A847B681B8C7B817B689B88FB817B685E
:101A00009B8BBB81BB8923F4E043BB81BB8923F45F
:101A10004073BB813B681B881B029AB2BB8913438E
:101A2000BB817B8923F400537B813B689B891B032B
:101A30009AB27B8913437B813B685B881B039AB214
:101A40007B8913437B817A68114B9A4203D07A6871
:101A5000104B9A420AD1FB8923F48043FB813B68F7
:101A60001B8A9B019AB2FB891343FB817B68FA892D
:101A70009A807B68BA899A833B689A687B681A6403
:101A80007B687A891A841437BD465DF8047B7047F9
:101A9000000001400004014080B485B000AF7860D0
:101AA0000B467B800023FB817B689B8BFB81FB8942
:101AB00023F00803FB81FA897B881343FB817B6851
:101AC000FA899A831437BD465DF8047B704700BFDE
:101AD00080B485B000AF78600B467B800023FB812B
:101AE0007B689B8BFB81FB8923F40063FB817B88F4
:101AF0001B029AB2FB891343FB817B68FA899A83A4
:101B00001437BD465DF8047B704700BF80B483B0D6
:101B100000AF786013460A467A807B707B78002B92
:101B200008D07B689B899AB27B8813439AB27B6802
:101B30009A8109E07B689B899AB27B88DB439BB2E0
:101B400013409AB27B689A810C37BD465DF8047BDE
:101B5000704700BF80B483B000AF78600B467B80D5
:101B60007B88DB439AB27B681A820C37BD465DF8EE
:101B7000047B704780B483B000AF786013460A4698
:101B80007A807B707B78002B08D07B689B899AB227
:101B90007B8813439AB27B689A8109E07B689B89B2
:101BA0009AB27B88DB439BB213409AB27B689A81DE
:101BB0000C37BD465DF8047B704700BF31F0004331
:101BC00010B408D00F4AA3F5801494420AD8042018
:101BD0005DF8044B704700280CBF022003205DF81D
:101BE000044B7047B3F5801F01D20320F7E7064A84
:101BF000934201D00020F2E7D0F1010038BF00206D
:101C0000EDE700BFFFFFDF7F0000F07F81F00041C4
:101C100002E000BF83F0004330B54FEA41044FEAD1
:101C2000430594EA050F08BF90EA020F1FBF54EA6C
:101C3000000C55EA020C7FEA645C7FEA655C00F008
:101C4000E2804FEA5454D4EB5555B8BF6D420CDDD9
:101C50002C4480EA020281EA030382EA000083EA5C
:101C6000010180EA020281EA0303362D88BF30BDFC
:101C700011F0004F4FEA01314FF4801C4CEA113152
:101C800002D0404261EB410113F0004F4FEA0333B1
:101C90004CEA133302D0524263EB430394EA050F3C
:101CA00000F0A780A4F10104D5F1200E0DDB02FAAB
:101CB0000EFC22FA05F2801841F1000103FA0EF23F
:101CC000801843FA05F359410EE0A5F120050EF105
:101CD000200E012A03FA0EFC28BF4CF0020C43FA36
:101CE00005F3C01851EBE37101F0004507D54FF043
:101CF000000EDCF1000C7EEB00006EEB0101B1F593
:101D0000801F1BD3B1F5001F0CD349085FEA3000D8
:101D10004FEA3C0C04F101044FEA445212F5800FE3
:101D200080F09A80BCF1004F08BF5FEA500C50F180
:101D3000000041EB045141EA050130BD5FEA4C0C63
:101D4000404141EB010111F4801FA4F10104E9D1EC
:101D500091F0000F04BF01460020B1FA81F308BFE3
:101D60002033A3F10B03B3F120020CDA0C3208DDAF
:101D700002F1140CC2F10C0201FA0CF021FA02F18A
:101D80000CE002F11402D8BFC2F1200C01FA02F1FA
:101D900020FA0CFCDCBF41EA0C019040E41AA2BF1F
:101DA00001EB0451294330BD6FEA04041F3C1CDAE7
:101DB0000C340EDC04F11404C4F1200220FA04F007
:101DC00001FA02F340EA030021FA04F345EA0301B1
:101DD00030BDC4F10C04C4F1200220FA02F001FA73
:101DE00004F340EA0300294630BD21FA04F02946F5
:101DF00030BD94F0000F83F4801306BF81F480118E
:101E00000134013D4EE77FEA645C18BF7FEA655C00
:101E100029D094EA050F08BF90EA020F05D054EAD2
:101E2000000C04BF1946104630BD91EA030F1EBFD7
:101E30000021002030BD5FEA545C05D140004941DB
:101E400028BF41F0004130BD14F580043CBF01F5CE
:101E5000801130BD01F0004545F0FE4141F47001B4
:101E60004FF0000030BD7FEA645C1ABF194610468F
:101E70007FEA655C1CBF0B46024650EA013406BF90
:101E800052EA033591EA030F41F4002130BD00BF4F
:101E900090F0000F04BF0021704730B54FF480640C
:101EA00004F132044FF000054FF0000150E700BF8D
:101EB00090F0000F04BF0021704730B54FF48064EC
:101EC00004F1320410F0004548BF40424FF00001D9
:101ED0003EE700BF42004FEAE2014FEA31014FEA1C
:101EE00002701FBF12F07F4393F07F4F81F060516B
:101EF000704792F0000F14BF93F07F4F704730B5DA
:101F00004FF4607401F0004521F0004120E700BF6C
:101F100050EA010208BF704730B54FF000050AE0F3
:101F200050EA010208BF704730B511F0004502D5F4
:101F3000404261EB41014FF4806404F132045FEAF6
:101F4000915C3FF4DCAE4FF003025FEADC0C18BF9B
:101F500003325FEADC0C18BF033202EBDC02C2F191
:101F6000200300FA03FC20FA02F001FA03FE40EA23
:101F70000E0021FA02F11444C1E600BF70B54FF023
:101F8000FF0C4CF4E06C1CEA11541DBF1CEA135505
:101F900094EA0C0F95EA0C0F00F0DEF82C4481EA6D
:101FA000030621EA4C5123EA4C5350EA013518BF8D
:101FB00052EA033541F4801143F4801338D0A0FB7A
:101FC00002CE4FF00005E1FB02E506F00042E0FB27
:101FD00003E54FF00006E1FB03569CF0000F18BF2D
:101FE0004EF0010EA4F1FF04B6F5007F64F54074D5
:101FF00004D25FEA4E0E6D4146EB060642EAC62168
:1020000041EA55514FEAC52040EA5E504FEACE2ED4
:10201000B4F1FD0C88BFBCF5E06F1ED8BEF1004FD7
:1020200008BF5FEA500E50F1000041EB045170BD53
:1020300006F0004646EA010140EA020081EA030197
:10204000B4EB5C04C2BFD4EB0C0541EA045170BD93
:1020500041F480114FF0000E013C00F3AB8014F10D
:10206000360FDEBF002001F0004170BDC4F1000456
:10207000203C35DA0C341BDC04F11404C4F12005D7
:1020800000FA05F320FA04F001FA05F240EA020032
:1020900001F0004221F0004110EBD37021FA04F668
:1020A00042EB06015EEA430E08BF20EAD37070BD22
:1020B000C4F10C04C4F1200500FA04F320FA05F081
:1020C00001FA04F240EA020001F0004110EBD37083
:1020D00041F100015EEA430E08BF20EAD37070BDF3
:1020E000C4F1200500FA05F24EEA020E20FA04F3CC
:1020F00001FA05F243EA020321FA04F001F000417B
:1021000021FA04F220EA020000EBD3705EEA430EEB
:1021100008BF20EAD37070BD94F0000F0FD101F01A
:102120000046400041EB010111F4801F08BF013C53
:10213000F7D041EA060195F0000F18BF704703F091
:102140000046520043EB030313F4801F08BF013D18
:10215000F7D043EA0603704794EA0C0F0CEA1355D4
:1021600018BF95EA0C0F0CD050EA410618BF52EA8E
:102170004306D1D181EA030101F000414FF0000094
:1021800070BD50EA410606BF1046194652EA4306A2
:1021900019D094EA0C0F02D150EA013613D195EA16
:1021A0000C0F05D152EA03361CBF104619460AD15E
:1021B00081EA030101F0004141F0FE4141F4700168
:1021C0004FF0000070BD41F0FE4141F4780170BD58
:1021D00070B54FF0FF0C4CF4E06C1CEA11541DBFBD
:1021E0001CEA135594EA0C0F95EA0C0F00F0A7F8BF
:1021F000A4EB050481EA030E52EA03354FEA0131EC
:1022000000F088804FEA03334FF0805545EA1313FE
:1022100043EA12634FEA022245EA111545EA1065C6
:102220004FEA00260EF000419D4208BF964244F15D
:10223000FD0404F5407402D25B084FEA3202B61A7C
:1022400065EB03055B084FEA32024FF480104FF450
:10225000002CB6EB020E75EB030E22BFB61A7546C4
:1022600040EA0C005B084FEA3202B6EB020E75EB57
:10227000030E22BFB61A754640EA5C005B084FEABF
:102280003202B6EB020E75EB030E22BFB61A75468C
:1022900040EA9C005B084FEA3202B6EB020E75EB97
:1022A000030E22BFB61A754640EADC0055EA060E58
:1022B00018D04FEA051545EA16754FEA06164FEA9B
:1022C000C30343EA52734FEAC2025FEA1C1CC0D147
:1022D00011F4801F0BD141EA00014FF000004FF0D4
:1022E000004CB6E711F4801F04BF01430020B4F195
:1022F000FD0C88BFBCF5E06F3FF6AFAEB5EB030C4D
:1023000004BFB6EB020C5FEA500C50F1000041EB49
:10231000045170BD0EF0004E4EEA113114EB5C0416
:10232000C2BFD4EB0C0541EA045170BD41F48011E9
:102330004FF0000E013C90E645EA060E8DE60CEAF1
:10234000135594EA0C0F08BF95EA0C0F3FF43BAF0E
:1023500094EA0C0F0AD150EA01347FF434AF95EAC5
:102360000C0F7FF425AF104619462CE795EA0C0FA9
:1023700006D152EA03353FF4FDAE1046194622E776
:1023800050EA410618BF52EA43067FF4C5AE50EA50
:1023900041047FF40DAF52EA43057FF4EBAE12E740
:1023A0004FF0FF3C06E000BF4FF0010C02E000BF21
:1023B0004FF0010C4DF804CD4FEA410C7FEA6C5C04
:1023C0004FEA430C18BF7FEA6C5C1BD001B050EAA7
:1023D000410C0CBF52EA430C91EA030F02BF90EA92
:1023E000020F0020704710F1000F91EA030F58BF51
:1023F000994208BF90422CBFD8176FEAE37040F0B3
:10240000010070474FEA410C7FEA6C5C02D150EA50
:10241000013C07D14FEA430C7FEA6C5CD6D152EA0B
:10242000033CD3D05DF8040B704700BF84461046D0
:1024300062468C461946634600E000BF01B5FFF7CF
:10244000B7FF002848BF10F1000F01BD4DF808ED9F
:10245000FFF7F4FF0CBF012000205DF808FB00BF70
:102460004DF808EDFFF7EAFF34BF012000205DF8CA
:1024700008FB00BF4DF808EDFFF7E0FF94BF012017
:1024800000205DF808FB00BF4DF808EDFFF7CEFF18
:1024900094BF012000205DF808FB00BF4DF808ED57
:1024A000FFF7C4FF34BF012000205DF808FB00BF28
:1024B0004FEA410212F5001215D211D56FF478736C
:1024C000B3EB625212D94FEAC12343F0004343EA0F
:1024D000505311F0004F23FA02F018BF40427047EA
:1024E0004FF00000704750EA013005D111F0004074
:1024F00008BF6FF0004070474FF00000704700BF0A
:102500000FB400B5074A83B004AB106853F8042B2E
:102510008168019300F038F803B05DF804EB04B073
:10252000704700BF3804002020F0030110F00300C2
:10253000C0F1000051F8043B00F1040C4FEACC0C50
:102540006FF000021CBF22FA0CF213434FF0010C93
:102550004CEA0C2C4CEA0C4CA3EB0C0222EA0302D2
:1025600012EACC1204BF51F8043B0430F4D013F04B
:10257000FF0F1FBF013013F47F4F013013F47F0FA3
:1025800018BF0130704700BF2DE9F04FC9B01C469D
:1025900089460A920D9002F07BFD00681590FFF7C6
:1025A000C3FF0D9D18900F941DB1AB6B002B00F075
:1025B0000981B9F80C2093B299040AD4D9F86410AF
:1025C00042F4005321F40051A9F80C30C9F864100A
:1025D0009BB21A0740F1C080D9F81020002A00F001
:1025E000BB8003F01A030A2B00F0C28038ACA4466B
:1025F00008942B9400250024CDE91645002311935F
:102600002D932C931A931993109366460A9D2B7859
:10261000002B00F0DB80252B00F0D8806A1C02E044
:10262000252B00F08B80144601322378002BF7D144
:102630000A98251A7DB12C9B2D9A0A983060013397
:102640002A44072B75602D922C9300F3A480083642
:102650001099294410912378002B00F0A4800023C6
:10266000651C94F801808DF88F304FF0FF341A46C6
:102670000E9309930A950B942B460133A8F1200180
:10268000582900F2F883DFE811F03702F603F60369
:102690000303F603F603F603F603F603F6033E021E
:1026A0003302F60360003503F60375037C037C03F5
:1026B0007C037C037C037C037C037C037C03F603A8
:1026C000F603F603F603F603F603F603F603F60342
:1026D000F60353039D03F6039D03F603F603F60387
:1026E000F6038D03F603F603D403F603F603F603AD
:1026F000F603F603A302F603F603C302F603F6039A
:10270000F603F603F603F603F603F603F603F60301
:102710000A031C039D039D039D03D9021C03F603BA
:10272000F603E202F603EE020A021C024B02F60373
:102730005402F603A300F603F6037B020A99651A16
:1027400078E70E9C0F9164420E94099D45F00405B4
:10275000099593F8008090E70D98494601F0F2F949
:10276000A0B9B9F80C3003F01A030A2B7FF43EAF7E
:10277000B9F90E30002BFFF639AF0D980A9A494689
:10278000234601F0A3F949B0BDE8F08F4FF0FF30C8
:1027900049B0BDE8F08F0D9849462BAA03F054FCD0
:1027A00040B938AE54E72D9B23B10D9849462BAA6A
:1027B00003F04AFCB9F80C305B06E7D4109849B036
:1027C000BDE8F08F284602F099FAF2E60A9C42E74B
:1027D000099C0A93A20640F106820F9DEB1D23F08F
:1027E000070303F1080CD3E90045CDF83CC00123F1
:1027F0004FF0000A8DF88FA00B99002905DBDDF85A
:1028000024C02CF0800CCDF824C054EA050040F020
:102810004B830B99002940F04783002B40F0BD8487
:10282000DDF824C01CF0010F00F0B78448AF30235E
:1028300007F8413D089DEC1BDDF82CC000256445E0
:10284000A8BFA446CDF830C01495BAF1000F02D04D
:102850000C9D01350C95099B13F00203129302D0D5
:102860000C9D02350C95DDF824C01CF0840CCDF8CD
:102870004CC040F016830E9DDDF830C0CCEB050B4C
:10288000BBF1000F40F30D83BBF1100F2D992C9A73
:10289000DFF828A527DD1B9710255746A2460D9C7B
:1028A00006E0ABF1100BBBF1100F06F1080617DDC7
:1028B00001321031072A2D912C9237607560F0DDBE
:1028C000204649462BAA03F0BFFB00287FF472AFD5
:1028D000ABF1100BBBF1100F2D992C9A38AEE7DC41
:1028E0005446BA461B9F01320BEB010C072ACDF868
:1028F000B4C02C9286E8000C00F39E849DF88FA053
:102900000836BAF1000F0FD02C9B01330CF1010CEB
:102910000DF18F010122072BCDF8B4C02C9386E86E
:10292000060000F320840836129B73B12C9B013300
:102930000CF1020C24A90222072BCDF8B4C02C9371
:1029400086E8060000F31C840836139D802D00F0F5
:102950004C830B9A151B002D3DDD102D2C9BDFF8B1
:1029600060A42CDD51460B94AA464FF0100B624632
:102970000D9C0D4606E0AAF1100ABAF1100F06F1FF
:10298000080617DD01331032072B2D922C9386E8B1
:102990002008F0DD204649462BAA03F055FB00280D
:1029A0007FF408AFAAF1100ABAF1100F2D9A2C9BF0
:1029B00038AEE7DC94460B9C2A46554692460133D6
:1029C000AC44072BCDF8B4C02C93C6F800A07560BA
:1029D00000F3BD830836099DEB0500F1A6822C9B10
:1029E00037600133A444072BCDF8B4C074602C9336
:1029F00000F397830836099C620740D50E9D0C981A
:102A00002C1A002C3BDD102C2C9BDFF8B0A322DD10
:102A100010256246DDF83480574604E0103C102C47
:102A200006F1080615DD01331032072B2D922C9389
:102A300037607560F2DD404649462BAA03F004FB7F
:102A400000287FF4B7AE103C102C2D9A2C9B38AE8A
:102A5000E9DC9446BA460133A444072BCDF8B4C050
:102A60002C93C6F800A0746009DD0D9849462BAA86
:102A700003F0EAFA00287FF49DAEDDF8B4C0109CA4
:102A80000C980E9DA842ACBF241864191094BCF198
:102A9000000F40F0528300232C9338AEB6E5DDF8EA
:102AA00024C00A931CF0200300F0CE810F9CE31D8C
:102AB00023F0070303F108050F95D3E90045002330
:102AC00096E60F9ADDF824C00A93151D30234FF0C7
:102AD00078084CF0020CB7488DF890300F951468C8
:102AE000CDF824C000258DF891801A9002237FE64E
:102AF00093F800802B22C0E593F80080002A7FF431
:102B0000BCAD2022B9E50F9C0F9D24680E94002CCB
:102B100005F10401FFF615AE0F9193F80080ACE5C6
:102B2000DDF824C04CF0200CCDF824C093F80080D0
:102B3000A3E50F9C0A9327684FF0000A8DF88FA039
:102B4000251D002F00F06B860B9C002C3846C0F230
:102B500016865146224602F0ABFD002800F0AB86F7
:102B60000B9C0F95C01BA042B8BF044624EAE47535
:102B7000CDF82CA0CDF850A00C959DF88FA064E660
:102B8000099D8C4C0A93AF061A948DF88F2047D577
:102B9000DDF83CC00CF1070323F0070303F1080440
:102BA0000F94D3E90045DDF824C01CF0010F00F0BC
:102BB000F88254EA050000F0F48230234CF0020C55
:102BC0008DF890308DF89180CDF824C002230FE667
:102BD000DDF824C00A934CF0100CCDF824C0099CF9
:102BE000A2063FF5FAAD099CE30600F13483DDF857
:102BF00024C01CF0400F00F02E83DDF83CC0BCF870
:102C000000400CF1040C00250123CDF83CC0EFE599
:102C1000099D694C0A93AF068DF88F201A94B7D49A
:102C2000099DED0640F1EC84DDF83CC0DCF8004085
:102C30000CF1040CCDF83CC00025B4E7DDF824C04D
:102C40004CF0400CCDF824C093F8008015E593F8C3
:102C50000080B8F16C0F194600F07C85099D45F0A5
:102C60001005099509E5DDF824C00A931CF0200F32
:102C70008DF88F2000F0A8840F9C2168109CE51728
:102C80002B460F9D224604350F95C1E90023BDE474
:102C9000099D45F00105099593F80080EDE40F9A30
:102CA0000F9D0A9312688DF8B82000230124043583
:102CB0009A460C940F958DF88F300B9314932EAF8A
:102CC000C9E5099C0A93A3068DF88F203CD50F9D7A
:102CD000E91D21F00701D1E9002308310F911446C5
:102CE0001D46002A73F10000C0F2D1839DF88FA029
:102CF000012381E593F80080B8F12A0F03F1010068
:102D000000F0BD86A8F13001092998BF002300F228
:102D10001B8610F8018B03EB830301EB4303A8F13F
:102D200030010929F5D943EAE3730B930346A5E47F
:102D3000DDF824C00A934CF0100CCDF824C0099C97
:102D40008DF88F20A306C2D4DDF824C01CF0100F2C
:102D500040F0B382099C670640F1AF82DDF83CC0C9
:102D6000BCF900400CF1040CE51722462B46CDF8C7
:102D70003CC0B6E7099D45F08005099593F80080B1
:102D80007BE40024A8F130010E94204613F8018B57
:102D900000EB800001EB4000A8F130010929F5D9D2
:102DA0000E906BE4099D45F00805099593F80080A5
:102DB00063E400BF8484000870840008A4840008D1
:102DC000508400080F9D099C0A93EB1D25078DF880
:102DD0008F2023F0070340F10B84D3E90045CDE9B0
:102DE000164503F1080CCDF83CC0DDE91601FEF7ED
:102DF000E5FE0128DDE9160140F05383002200239F
:102E0000FFF72EFB002840F03C859DF88FA003259E
:102E10000C95099D9E4F9F4B25F080050024099538
:102E200000250B94B8F1470FD8BF1F460324149513
:102E30000BE5099D0A9345F010050995DDF824C0BE
:102E40001CF020037FF432AEDDF824C01CF0100229
:102E500040F03F82DDF824C01CF0400300F03982CE
:102E6000DDF83CC0BCF800400CF1040C1346002512
:102E7000CDF83CC0BCE40A938DF88F20B8F1000F68
:102E80003FF491AC00234FF0010C9A46CDF830C0CE
:102E90008DF8B8808DF88F300B93149364462EAF65
:102EA000D9E4DDF8B4C02CE5012B00F0E380022B5F
:102EB0000DF1DF0318D1DDF868C0194604F00F00EA
:102EC000220942EA05720F462B091CF800103970DE
:102ED00052EA030014461D4607F1FF31EED1089D6A
:102EE000CDE91E23EC1BA7E4E00840EA457004F09E
:102EF0000702E908303250EA010C1F461A700446F6
:102F00000D4603F1FF33EFD1099CCDE91C01E00729
:102F1000394640F1B880302A00F0B580089D1F4640
:102F20003023EC1B01F8013C86E4B8F1650F40F357
:102F3000B780DDE9160100220023CDF81CC0FFF7A1
:102F400085FADDF81CC0002800F02E812C9B524A27
:102F5000326001330CF1010C0122072BCDF8B4C013
:102F60002C93726000F36C830836259B119CA3425E
:102F700003DB099DEF077FF53EAD2C9B189D159C4B
:102F800034600133AC44072BCDF8B4C075602C938A
:102F900000F3E9830836119D6C1E002C7FF72BADE2
:102FA000102C2C9BDFF8F4A040F39C811025624686
:102FB000DDF83480574604E00836103C102C40F30E
:102FC0008F8101331032072B2D922C93376075605F
:102FD000F2DD404649462BAA03F036F800287FF47C
:102FE000E9AB2D9A2C9B38AEE7E70E980C99451A61
:102FF000002D7FF7AEAC102D2C9BDFF8A0A02CDDB0
:1030000051461294AA464FF0100B62460D9C0D4695
:1030100006E0AAF1100ABAF1100F06F1080617DD52
:1030200001331032072B2D922C9386E82008F0DD17
:10303000204649462BAA03F007F800287FF4BAABD4
:10304000AAF1100ABAF1100F2D9A2C9B38AEE7DCCA
:103050009446129C2A46554692460133AC44072BAF
:10306000CDF8B4C02C93C6F800A0756000F30282BE
:1030700008366EE4002D08BF0A2C80F03F8148AF6F
:10308000303407F8414D089DEC1BFFF7D5BB00BF5E
:103090006484000860840008A0840008508400084C
:1030A000119C012C2C9C40F3A78101340CF10105EB
:1030B0000123072C2D952C943760736000F3B781A2
:1030C000083618981599316001340544072C2D9560
:1030D0002C94706000F3C2810836DDE916010022ED
:1030E0000023FFF7B3F9002840F0BD80119A0134A6
:1030F000531E01371D44072C2C942D9537607360A7
:1031000000F389810836DDF864C00134AC44199DB0
:10311000CDF8B4C027AB072C2C9486E828007FF7A5
:1031200069AC0D9849462BAA02F08EFF00287FF467
:1031300041ABDDF8B4C038AE5DE40D9849462BAA2A
:1031400002F082FF00283FF4A6ACFFF733BB0D98D6
:1031500049462BAA02F078FF00287FF42BABDDF85C
:10316000B4C038AE37E40D9849462BAA02F06CFF84
:1031700000287FF41FABDDF8B4C038AEFFF7D4BB36
:103180000D9849462BAA02F05FFF00287FF412AB8E
:10319000DDF8B4C038AEFFF7D8BB0B9C38AFFFF7F3
:1031A0004BBB0223FFF724BB259B002B40F354822B
:1031B000119C149DDDF84480AC42A8BF2C46002C25
:1031C000B8440BDD2C9B37600133A444072BCDF8AA
:1031D000B4C074602C9300F3FB820836149D24EA7B
:1031E000E4742C1B002C40F3B180102C2C9BDFF8D6
:1031F000F0A640F3188251461025BA466246DDF823
:1032000034B00F4604E00836103C102C40F307821F
:1032100001331032072B2D922C9337607560F2DD4D
:10322000584649462BAA02F00FFF00287FF4C2AA95
:103230002D9A2C9B38AEE7E70D9849462BAA02F051
:1032400003FF00287FF4B6AA9DF88FA0DDF8B4C074
:1032500038AEFFF756BB0F9D2C6804350F95012340
:103260000025FFF7C5BA119B5F1E002F7FF74BAFFC
:10327000102FDFF86CA640F3E6804FF01008DDF861
:1032800034B004E00836103F102F40F3DC800134E6
:103290001035072C2D952C94C6F800A0C6F8048094
:1032A000F0DD584649462BAA02F0CEFE00287FF4F6
:1032B00081AA2D9D2C9C38AEE5E70F9DDDF83CC022
:1032C0002C680CF1040CE517CDF83CC022462B46C7
:1032D00007E50F9D2C6804350F950025FFF788BA88
:1032E0009446BA460133A444072BCDF8B4C02C93BE
:1032F000C6F800A074607FF77DAB12E70DF1DF0B1D
:10330000204629460A22002303F04EFC30328BF877
:103310000020204629460A22002303F045FC0446EB
:103320000D4654EA050C5F460BF1FF3BE8D1089DC2
:10333000EC1BFFF781BA0D9849462BAA02F084FED8
:1033400000287FF437AADDF8B4C038AE149D259C60
:103350002F44119DAC4240DB099DE8073DD41198F4
:10336000C7EB0805041BAC42B8BF2546002D0BDD9A
:103370002C9B37600133AC44072BCDF8B4C075608B
:103380002C9300F35B82083625EAE575641B002C5C
:103390007FF731AB102C2C9BDFF844A5A2DD102564
:1033A0006246DDF83480574603E00836103C102CA6
:1033B00096DD01331032072B2D922C933760756008
:1033C000F3DD404649462BAA02F03EFE00287FF47A
:1033D000F1A92D9A2C9B38AEE8E72C9B159D356002
:1033E000189D75600133AC44072BCDF8B4C02C9305
:1033F00000F308820836B2E7099DE9073FF555AEAC
:1034000001340CF101050123072C2D952C94376014
:1034100073607FF777AE0D9849462BAA02F014FE31
:1034200000287FF4C7A92D9D2C9C38AE6BE60D9823
:1034300049462BAA02F008FE00287FF4BBA92D9D67
:103440002C9C38AE3DE601343D44072C2D952C9440
:10345000C6F800A077607FF755AEDCE70D984946C7
:103460002BAA02F0F1FD00287FF4A4A92D9D2C9C2D
:1034700038AE32E60D9849462BAA02F0E5FD002849
:103480007FF498A9DDF8B4C038AEFFF762BA4FF008
:103490002D0A644265EB45058DF88FA00123FFF7E7
:1034A000ABB9FEF78BFB002800F023810B9D0135A3
:1034B00028F0200A00F07582BAF1470F04D10B9D65
:1034C000002D08BF01250B95DDE91623DDF824C08A
:1034D000002B4CF4807CCDF848C0C0F25982DDE965
:1034E0001645CDE920454FF0000BB8F1660F00F00E
:1034F0003D82B8F1460F00F09582BAF1450F0ABF40
:103500000B9C0B9D651C022025A926AA29AB8DE8E2
:1035100021000392049302910D98DDE9202300F02D
:103520000BFCB8F1670F074602D0B8F1470F05D181
:10353000DDF824C01CF0010F00F04482BAF1460F00
:1035400007EB050400F0B081DDE920010022002333
:10355000FEF77CFF002840F0A581299B9C4206D9FC
:1035600030215A1C29921970299B9C42F9D8DB1BE7
:10357000BAF1470F119300F07C81B8F1650F40F369
:103580009D82B8F1660F00F00F82259C1494119C67
:10359000149DAC4200F3DD81DDF824C01CF0010F66
:1035A00040F05C8225EAE5732C464FF06708BBF1DA
:1035B000000F40F06C81129D0C930995CDF82CB052
:1035C0009DF88FA0FFF741B9DDF824C01CF0100F63
:1035D00040F0AB80DDF824C01CF0400F00F03D81CE
:1035E0000F9C109D236804340F941D80FFF70EB8C4
:1035F000D3E900450833CDE916450F93FFF7F5BB36
:10360000099C640640F18A80DDF83CC0BCF80040AB
:103610000CF1040C0025CDF83CC0FFF7C4BA944669
:103620003A46574692460133A444072BCDF8B4C01E
:103630002C93C6F800A074603FF77DAE083685E68F
:103640000D9849462BAA02F0FFFC00287FF4B2A88F
:10365000DDF8B4C038AE88E42C9A9D49316001325F
:103660000CF1010C0121072ACDF8B4C02C92716035
:1036700063DC08361C462CB9119D1DB9099DED0768
:103680007FF5B9A92C9B189A159D356001336244CA
:10369000189D2D92072B75602C9300F348810836F6
:1036A0006442002C40F38680102CDFF834A240F3F3
:1036B0009E8051461025BA46DDF834800F4604E05E
:1036C0000836103C102C40F38F8001331032072B4A
:1036D0002D922C9337607560F2DD404649462BAA47
:1036E00002F0B2FC00287FF465A82D9A2C9B38AE1E
:1036F000E7E7099C774F784B9DF88FA00B904FF030
:10370000030C24F080040994CDF830C01490B8F173
:10371000470FD8BF1F466446FFF797B80F9D2C6828
:1037200004350F950025FFF73EBA0F9C109D2368C6
:1037300004340F941D60FEF769BF0D9849462BAA0B
:1037400002F082FC00287FF435A8259CDDF8B4C087
:1037500038AE90E7099C91F8018044F020040133D1
:103760000994FEF78ABF0D9849462BAA02F06CFC1B
:1037700000287FF41FA8DDF8B4C038AE0BE4CDF804
:103780002CA0FEF7D1FE0F9520EAE07C0B9DCDF832
:1037900030C0044614959DF88FA0FFF756B80D98D9
:1037A00049462BAA02F050FC00287FF403A82D9A6A
:1037B0002C9B38AEDDF844C0119C37600133944433
:1037C000072BCDF8B4C02C9374607FF713A9A8E43D
:1037D0000D9849462BAA02F037FC00287EF4EAAF88
:1037E000DDF8B4C038AEF9E4394657468A460133AD
:1037F0002244072B2D922C93C6F800A07460CEDCD7
:103800000836D7E70D9849462BAA02F01DFC002880
:103810007EF4D0AF259CDDF8B4C038AE9FE50B9C9C
:103820001497062C28BF062424EAE47CBA460B979A
:103830000F95CDF830C0294FFFF707B80D984946CE
:103840002BAA02F001FC00287EF4B4AF259C11994C
:10385000DDF8B4C00C1B38AE96E5DDF83CC0109C1A
:10386000DCF800300CF1040CCDF83CC01C60FEF715
:10387000CDBE259BDC1C35DB0B9C9C4232DB1493BC
:1038800085E64FF02D0A8DF88FA0FFF7C0BA129D84
:1038900009954FF02D0A00250C938DF88FA00B95FC
:1038A000FEF7D6BF234662E63B78302B00F0C1809E
:1038B000259D2C4448E624EAE47CCDF830C00B9CDE
:1038C0000F950B9014909DF88FA0FEF7BEBF00BF20
:1038D000A08400086C8400086884000898840008AC
:1038E00050840008A8F10208013B002B2593BABFC1
:1038F0005B422D222B22092B8DF89C808DF89D2078
:1039000062DC303330228DF89F308DF89E2028AB5A
:10391000119D119C27AA9A1A012D1992144440F363
:10392000A4800134002524EAE47314953FE60D9841
:1039300049462BAA02F088FB00287EF43BAF259C69
:103940002D9A2C9B38AEABE6002403460B94FEF771
:1039500095BE149C119D002CD4BFC4F10204012417
:103960002C4424EAE4734FF0670820E60B9C019492
:10397000032025A926AA29AB009003920493029163
:103980000D98DDE9202300F0D7F90B9D0746D5E51A
:1039900017991698209001F1004121914FF02D0BBD
:1039A000A3E506240B948FE5259D1495002D0B9C13
:1039B00078DD002C4BD1099DE80748D4149C24EAFB
:1039C000E473F4E5299BD2E50DF1AA003E4DDA1728
:1039D00085FB0351C2EBA10101EB81040246A3EB7D
:1039E000440303F13000092910700B4602F1FF3047
:1039F000ECDC01F130030DF1AB04D9B2844202F8E2
:103A0000011C5DD90DF19D00134601E013F8011B67
:103A1000A34200F8011FF9D10DF5907CC2EB4C03D5
:103A2000F63B75E70B9D0195032025A926AA29AB36
:103A3000A2E7DDE9200100220023FEF707FD0028B0
:103A40007FF436AFC5F1010525952C447CE50B9D2F
:103A50006C1C149D2C4424EAE473A8E5149D6C1C92
:103A600024EAE4734FF06708A1E5DDF824C01CF0F8
:103A700001037FF456AF149324EAE47397E50F9D96
:103A8000DDF83CC02D6893F801800B950CF1040122
:103A9000002D0F910346BEF6F0AD4FF0FF340B94AE
:103AA000FEF7EBBD2CB9099DE90702D401231C46A2
:103AB0007DE50B9DAC1C24EAE47378E5259B13E7B8
:103AC0000DF19E0324E700BF676666662DE9F043AB
:103AD0000C46ADF26C4DB1F80C90E769496EB4F844
:103AE0000E8019911AAD4FF480664FF0000E0797C3
:103AF00029F00209676A00956946049502960596C1
:103B0000ADF80C90ADF80E800997CDF818E0064698
:103B1000FEF73AFD051E07DB3046694601F0D2F894
:103B2000002818BF4FF0FF35BDF80C305B0603D5F9
:103B3000A38943F04003A38128460DF26C4DBDE8F4
:103B4000F08300BF2F4B1B6870B506460C4613B1BF
:103B50009A6B002A36D0A589ABB219070CD5226919
:103B6000AAB113F001011ED0636900215B42A36179
:103B7000A160F2B1002070BDDA063BD55B0725D409
:103B8000226945F00803A3819BB2002AE9D103F41E
:103B90002071B1F5007FE4D03046214601F07CFA77
:103BA000A3892269DDE7980758BF6169A160002AEF
:103BB000E0D1A3891A06DDD543F04003A3814FF07D
:103BC000FF3070BD184601F099F8C4E7216B49B188
:103BD00004F14003994203D0304601F05BF9A58916
:103BE0000023236325F02405002322696360ADB21E
:103BF0002260C6E745F04005092333604FF0FF30EF
:103C0000A58170BD380400202DE9F04F03690D69CE
:103C10009D4283B0834600F38B80013D01F1140483
:103C200000F1140A54F825205AF825300132B3FB6C
:103C3000F2F8AA00914600925244A1440192B8F1D0
:103C4000000F3DD04FF0000E7046224653468C4682
:103C500052F8046B1968B7B2360C07FB08EE06FB86
:103C600008F606EB1E461FFA8EF7C71BB0B217FA0E
:103C700081F7C0EB114000EB2740BFB247EA004795
:103C8000914543F8047B4FEA20404FEA164EDFD2BD
:103C9000009A5AF80230614693B9019A131F9A4567
:103CA0000CD252F8043C4BB9A2F1080302E01A68A6
:103CB000043B1AB99A4505F1FF35F8D3CBF81050FB
:103CC000584602F043F800282EDB08F1010853465D
:103CD000002254F8046B1868B1B2521A360C12FA6A
:103CE00080F1C6EB104202EB214289B241EA024167
:103CF000A14543F8041B4FEA2242EAD25AF8252094
:103D00000AEB850382B91A1F92450BD253F8042C93
:103D100042B9083B02E01A68043B1AB99A4505F11A
:103D2000FF35F8D3CBF81050404603B0BDE8F08F14
:103D3000002003B0BDE8F08F2DE9F04F016C9BB07F
:103D40000446279D92469B4649B1436C4B60012235
:103D500002FA03F38B6001F001FE00232364BBF140
:103D6000000FD94633DB00232B60A54B1A4609EA26
:103D70000303934214D05046594600220023FEF715
:103D800065FB804648B3269E289D01233360002DA5
:103D900000F0C9809B48286001381BB0BDE8F08F57
:103DA000269D42F20F732B60BAF1000F00F0A48041
:103DB0009548289E002EF0D0C378002B00F0B580E7
:103DC00000F10803289D2B601BB0BDE8F08F012394
:103DD0002BF000492B60CB46C7E719AA18AB8DE83A
:103DE0000C00204652465B4602F03EF85FEA195549
:103DF0000A9040F08A80189F199D6FF482633D44B9
:103E00009D42C0F294821F3305F212425B1B09FAF5
:103E100003F32AFA02F243EA0200FEF739F8012618
:103E2000013DB846A1F1F87116960022774BFDF7D7
:103E3000F1FE6DA3D3E90023FEF7A0F86CA3D3E94C
:103E40000023FDF7E9FE064628460F46FEF730F848
:103E500069A3D3E90023FEF791F802460B463046EA
:103E60003946FDF7D9FE06460F46FEF721FB3946D7
:103E70000790002230460023FEF7F2FA002840F0B7
:103E80002882079E162E00F22182614B03EBC603A7
:103E9000D3E9000152465B46FEF700FB002800F024
:103EA0004B82013E079600260E96C5EB0805013DA4
:103EB000069500F1258200250895079E002EC0F288
:103EC0001682069D0D963544002606950C96249D77
:103ED000092D2CD8052DC4BF043D2495249EA6F1A0
:103EE0000203CCBF00250125032B22D8DFE813F005
:103EF000B7039E02C0039A04464A434BC9F313001A
:103F000000280CBF1046184653E7CBF3130343F0C9
:103F10007F51CDF858805046A5F2FF3541F440114D
:103F2000DDF8608081E73C4837E7C31C4AE700259D
:103F30002495002565642946204601F0E9FC4FF0F0
:103F4000FF390126099025952064CDF83C900B9609
:103F5000199B002BC0F2D280079E0E2E00F3CE805C
:103F60002B4B03EBC603D3E90001CDE904012599EE
:103F70000029C0F28083DDE9042359465046FEF74C
:103F800027F9FEF795FA0546FDF792FFDDE90423D0
:103F9000FDF7F4FF02460B4650465946FDF73AFE40
:103FA000099A05F13003B9F1010F06460F46137067
:103FB00002F1010B64D00022184BFDF7DFFF002255
:103FC000002306460F46FEF741FA002840F08180A4
:103FD000DDF82480099D0394C844DDE904AB05F1B4
:103FE000020928E0AFF3008061436F63A787D23FE7
:103FF000B3C8608B288AC63FFB799F501344D33FD8
:104000000000F07FA1840008C08400080000F83F91
:10401000E0840008B4840008A08400080000244064
:10402000FDF7ACFF0022002306460F46FEF70EFA0E
:10403000002840F0C18352465B4630463946FEF7C1
:10404000C7F8FEF735FA0546FDF732FF52465B46E4
:10405000FDF794FF02460B4630463946FDF7DAFD80
:1040600005F1300EC14509F801EC4C4606460F46F5
:104070004FF00002A74B09F10109D1D1A346039CDF
:1040800032463B4630463946FDF7C6FD06460F46EA
:104090003246DDE904013B46FEF7E2F940B9DDE9CD
:1040A000040132463B46FEF7D1F990B1EB0710D53B
:1040B0001BF8015C099A05E09A4200F0288413F885
:1040C000015C9B46392D0BF1FF33F5D06A1CD2B24F
:1040D0001A7020460A9901F041FC079E269D731C28
:1040E000289E00228BF800202B60002E00F02583F4
:1040F0000998C6F800B01BB0BDE8F08F0B9D002DED
:1041000000F00381249E012E40F3DC820C9E09F115
:10411000FF37BE42C0F28983F71BB9F1000FC0F22E
:104120008684089D4B46089E1E440896069E20469F
:104130001E440121069601F0B5FC064665B10698BD
:10414000002809DD03460899AB42A8BF2B46C91ACF
:10415000C01A0891ED1A06900C9A002A1DDD0B9BDF
:10416000002B00F05883002F11DD31463A462046DF
:1041700001F040FD064631460A9A204601F09CFCBB
:104180000A998046204601F0E9FBCDF82880DDF849
:1041900030E0BEEB070240F08F822046012101F0A3
:1041A00081FC80460D98002805DD414620460D9A89
:1041B00001F020FD80462499012940F3C1820027A7
:1041C0000D98002840F0AF820120069B034413F0B5
:1041D0001F0300F0A180C3F12002042A40F3B5843C
:1041E0000899069AC3F11C0319441A4408911D4406
:1041F00006920899002905DD0A99089A204601F0DF
:1042000047FD0A90069A002A04DD4146204601F047
:104210003FFD80460E9B002B40F06A82B9F1000FF3
:1042200040F3A6820B98002840F088800B9D0A9FDF
:10423000DDF824B006E0394620460A22002301F0CA
:1042400097FB074638464146FFF7DEFC30300BF857
:1042500005000135A945EEDCDDF824B00A97824659
:10426000B9F1010FACBFCB440BF1010B00250A994A
:104270000122204601F00CFD41460A9001F066FD46
:10428000002840F309831BF8012C099905E09942A5
:1042900000F08B8213F8012C9B46392A0BF1FF3377
:1042A000F5D001321A704146204601F057FB002E2E
:1042B0003FF40FAF2DB1B54203D02946204601F09F
:1042C0004DFB3146204601F049FB02E701260E96E0
:1042D000EBE50798FDF7ECFD32463B46FEF7B6F8F6
:1042E00000287FF4CEAD079E013E0796C9E5079EE4
:1042F000089DAD1B0895754200260C950D96E6E5C8
:104300006D42002608950696D7E50C9F089D0B9EEA
:1043100014E700BF000024401C23DDF820E00698CD
:104320009E441844CDF820E01D44069061E7A7485C
:10433000401B0AFA00F070E50E90B6E5002D05DD91
:1043400031462A46204601F0A3FC0646002F40F0E5
:10435000E8823746099D09984D4408950AF0010501
:104360000B95DDF82890451C0AE001F001FB394669
:1043700006460A222046002301F0FAFA07460135D4
:1043800041464846FFF740FC31468346484601F027
:10439000DDFC414603903A46204601F0FBFCC26832
:1043A000691E03460BF1300A0691002A40F0938102
:1043B00019464846029301F0C9FC029B0246194681
:1043C0002046029201F0CAFA029A2AB9249B1BB92C
:1043D0000B98002800F09183039B002BC0F23482DD
:1043E00005D1249818B90B99002900F02D82002AD4
:1043F00000F3AB82DDF820E005F801AC7545AB4673
:1044000000F0B38249460A220023204601F0B0FAA8
:10441000BE428146314620464FF00A024FF000036B
:10442000A3D101F0A5FA06460746A8E700260B9699
:10443000079EDDF894E0B6440EF10109B9F1000FD2
:10444000CDF83CE04E4640F350810021172E6164C8
:104450000AD9012204235B0003F11400B042114683
:1044600002F10102F7D96164204601F051FA0E2EE3
:10447000099020643FF66CAD002D3FF469AD079DB7
:10448000002DCDE912AB40F31B82514B05F00F021A
:1044900003EBC2032D11D3E90067EB0640F1CD8198
:1044A0004C4B50465946D3E90823FDF791FECDE920
:1044B000100105F00F054FF003088DB1DFF814A1CE
:1044C00030463946EE0705D5DAE9002308F1010840
:1044D000FDF754FD6D100AF1080AF3D106460F46A8
:1044E000DDE9100132463B46FDF772FE82468B46FF
:1044F0000E9D45B1504659460022374BFDF7B0FF9F
:10450000002840F0A9824046FDF7D2FC52465B46A7
:10451000FDF734FD0022314BFDF77EFB0646A1F18D
:104520005077B9F1000F00F05A81079D1795C846E2
:104530000B9D002D00F02282254B294903EBC80377
:1045400053E902230020FDF743FE32463B46FDF7C8
:1045500061FBCDE9100159465046FDF7A9FF05461C
:10456000FDF7A6FC02460B4650465946FDF752FBA6
:104570003035099ECDE90401EDB23570DDE9100159
:10458000DDE9042306F1010BFDF788FF002840F068
:10459000A982DDE9042300200F49FDF73BFB024619
:1045A0000B46DDE91001FDF779FF002840F0A082FD
:1045B000B8F1010F40F38081B044CDF85090A2468D
:1045C000C146DDE90467DDE9104519E0EEFBFFFFB8
:1045D000E0840008A88500080000F03F00001C40AF
:1045E0000000E03F0020A849FDF714FB22462B46BF
:1045F000FDF736FF002840F07982CB4500F0598165
:10460000204629460022A14BFDF7B8FC00229F4B13
:1046100004460D4630463946FDF7B0FC0F460646C7
:10462000FDF746FF8046FDF743FC02460B46304649
:104630003946FDF7EFFA08F130085FFA88F82246AC
:104640002B460BF8018B06460F46FDF709FF324655
:104650003B460028C6D0179E0796544639E50026EB
:104660000B96259800283CDD06460F908146ECE627
:1046700001260B96F5E7B9F1000F3FF77CAC40F04F
:10468000C6800022824BDDE90401FDF777FC52462B
:104690005B46FDF7F9FEC8464E4600287CD0259DB6
:1046A000DDF824B0ED4307954146204601F056F968
:1046B000002E7FF406AE0CE50A99204601F09AFA26
:1046C0000A906AE5169D002D00F0B78103F233438E
:1046D0000C9F089D27E50146204601F03FF9012285
:1046E0007AE6012625960F96B14600216164BBE665
:1046F0000A98414601F02AFB0028BFF68FADDDF88D
:104700001CE00A990EF1FF3E20460A220023CDF854
:104710001CE001F02DF90A900B98002840F0078268
:10472000DDF83C907AE5D8F8103008EB830318697F
:1047300001F06AF9C0F1200047E50998FFF72DBBA9
:10474000BAF1000F7FF43BADCBF31303002B40F025
:104750007B812BF000473F0D3F05002F3FF430AD2C
:10476000089A069B0132013308920693012727E538
:10477000249902297FF756ADB9F1000F8FD1414638
:104780004B460522204601F0F3F8804641460A9840
:1047900001F0DCFA002882DD079D01350795099DAF
:1047A00031232B7005F1010B7EE70798099931231E
:1047B000013007900B7076E5A346039C89E44046E0
:1047C000FDF776FB02460B4650465946FDF7D6FBF1
:1047D0000022304BFDF720FA0646A1F150775046F3
:1047E000594600222A4BFDF715FA32463B468246CF
:1047F0008B46FDF753FE002840F0BC80324607F19F
:10480000004350465946FDF72BFE002854D04FF088
:104810000008464643E70A990C9A204601F0EAF957
:104820000A90BAE401260B9602E60C9D0D9E0C97A9
:104830007B1B1E440D9600276FE4DDE912014FF04B
:104840000208CDE9100138E6002ACDF82890D946B3
:1048500011DD0A990122204601F01AFA41460A9018
:1048600001F074FA002840F35B81BAF1390F00F0CF
:104870001A8109F1310A069B354683F800A003F13D
:10488000010B3E460FE500BF0000F03F0000244052
:104890000000144000001C4003D11AF0010F7FF407
:1048A000F2AC5B469B46013B1BF8012C302AF9D049
:1048B000F9E4DDF850905446DDE912ABFFF748BB50
:1048C000079E7542002D00F0C280A34B05F00F0239
:1048D00003EBC203D3E90023DDE91201FDF74EFB30
:1048E0002D1182468B4600F02D819C4E4FF0020820
:1048F000EA0705D5D6E9002308F10108FDF73EFBDC
:104900006D1006F10806F3D182468B46F0E5079E4E
:10491000099D30222A700136312207961A70FFF75E
:10492000D8BB7168204600F0F3FF33699A1C054636
:10493000920006F10C010C3000F002FF20462946DF
:10494000012201F0A5F9074604E5BAF1390FCDF8C7
:10495000289000F0A880069D0AF101032B703546CF
:10496000069E06F1010B3E469DE43546CDF82890A3
:104970003E467CE44FF0000846460DE7764908F1D4
:10498000FF3501EBC50132463B46D1E900011095E8
:10499000FDF7F4FACDE9140159465046FDF788FDBC
:1049A0000546FDF785FA02460B4650465946FDF787
:1049B00031F9DDF824E03035B8F1010F06460F4635
:1049C0008EF800500EF1010B1ED0099D6B1E03EBFB
:1049D000080A0022624BFDF7D1FA0F460646FDF7A2
:1049E00067FD8046FDF764FA08F1300802460B4681
:1049F00030463946FDF70EF905F8018F5545E8D1E7
:104A0000109D06460F46AB440022564BDDE91401CB
:104A1000FDF702F932463B46FDF722FD00284DD056
:104A2000179E07961BF8015C099AFFF74BBB089E7F
:104A30000023C9EB0605FFF776BB189B0C9F089D6A
:104A4000C3F13603FFF76FBB5746FFF7B9BBDDE98C
:104A500012AB4FF002084BE5B9F1000F3FF4AFAED7
:104A60000F9E002E7FF728AF00223D4B504659463F
:104A7000FDF784FA824608F101008B46FDF718FA2B
:104A800002460B4650465946FDF778FA0022364B4F
:104A9000FDF7C2F8079DDDF83C80013D0646A1F117
:104AA0005077179544E53546069B069E09993922AD
:104AB000327003F1010B3E46FFF7EFBBDDE9142333
:104AC00000202849FDF7A6F832463B46FDF7E6FCF4
:104AD00000283FF4F1AE5B469B46013B1BF8012CDE
:104AE000302AF9D0179D0795FFF7F3BA454654468B
:104AF000179E0796099AFFF7E5BABAF1390FCDF874
:104B00002890D0D0039B3546002B069EC8BF0BF1E2
:104B1000310A86F800A006F1010B3E46FFF7C3BB41
:104B20007FF4A9AE1AF0010F3FF4A5AE9DE6314621
:104B300020460A220023DDF83C9000F019FF0646CB
:104B4000FFF76CBB4FF00208D2E43FF452ABC3F165
:104B50003C03FFF7E2BB00BFE0840008A885000823
:104B6000000024400000E03F00001C40AFF3008044
:104B70008B899AB22DE9F0410D46110780463CD44D
:104B80006A6843F40063002AAB8159DDAC6A002CEB
:104B90004BD09BB203F48052002192B2D8F800604F
:104BA000C8F80010002A4FD02A6D5F0705D5696844
:104BB0002B6B521A0BB1EB6BD21A4046E9690023FA
:104BC000A047441C4AD0AA892B692B6022F40063B9
:104BD0009BB200226A60DA04AB814CD4296BC8F81E
:104BE000006011B305F14003994202D0404600F045
:104BF00051F900202863BDE8F0812E69AEB12C6820
:104C00002E6091070CBF6B690023A41BAB600AE008
:104C1000324623466F6AE9694046B8470028C0EB30
:104C20000404064404DD002CF2DC0020BDE8F08121
:104C3000AB8943F04003AB814FF0FF30BDE8F0811A
:104C4000EA6B002AA2DCF0E701234046E969A047AD
:104C5000431C02461ED0AB89AC6AA6E7D8F80030E8
:104C60005BB9A9896B6021F400639BB22A69AB81AF
:104C7000DB042A60B2D52865B0E71D2B01D0162BC6
:104C800019D1AA892B692B6022F400620023AA8122
:104C90006B60A3E7D8F80030002BDCD01D2B07D0C9
:104CA000162B05D0AB8943F04003AB81BDE8F08102
:104CB000C8F80060B9E7AB8943F04003AB81BDE8B9
:104CC000F08100BF10B5044682B008B1836B53B1C8
:104CD000B1F90C0008B902B010BD204602B0BDE821
:104CE0001040FFF745BF019100F008F80199EFE788
:104CF000014900F09DB900BF8D6100082DE9F04F1A
:104D0000846B83B00746002C65D145683348F8634F
:104D10000423032107F53B72C7F8E412C7F8E82221
:104D2000C7F8E04205F15C00AB812C606C60AC60C0
:104D30006C66EC812C616C61AC612146082200F04C
:104D400099FDBE68DFF898B0DFF898A0DFF898907A
:104D5000DFF89880ED6101230922C5F820B0C5F87D
:104D600024A0C5F82890C5F82C802146F381B28193
:104D700034607460B460746634617461B461082234
:104D800006F15C00019300F075FDFD68F6611220EC
:104D90000222C6F820B0C6F824A0C6F82890C6F8AB
:104DA0002C802146A881EA812C606C60AC606C6626
:104DB0002C616C61AC6105F15C00082200F05AFDC9
:104DC000019BED61C5F820B0C5F824A0C5F8289076
:104DD000C5F82C80BB6303B0BDE8F08FF14C000830
:104DE000495F00086D5F0008A55F0008C95F000803
:104DF000704700BF704700BFF8B5234D0F4604460B
:104E000000F082FDAB685E6826F00306F11B01F638
:104E1000EF7121F47F6121F00F01A1F58057B7F503
:104E2000805F07DB2046002101F07CF8AB6833444B
:104E3000984204D0204600F069FD0020F8BD2046CD
:104E4000794201F06FF801300DD0104BAA68196853
:104E5000F61B46F001062046C91B5660196000F09B
:104E600055FD0120F8BD2046002101F05BF8AB683C
:104E7000C21A0F2ADEDD064D04492D6842F00102F8
:104E8000401B5A600860D5E798040020D408002031
:104E9000A40800202DE9F0410D460646002955D012
:104EA00000F032FD55F8041CDFF874C121F0010355
:104EB000A5F10804E218DCF808005768904227F0D2
:104EC000030769D011F00101576032D00021D019D9
:104ED0004068C00706D43B44906800294ED0D26891
:104EE000C260906043F001026260E350E1B9B3F543
:104EF000007F2DD35A0A042A6AD898093830410015
:104F00000CEB810C4649DCF80820624566D05168FC
:104F100021F003018B4202D292689445F7D1D36805
:104F2000E360A2609C60D4603046BDE8F04100F0D0
:104F3000EDBC55F8085C641B0CF10808A0684045FE
:104F40002B4443D0E568C560A860C0E7BDE8F081A8
:104F5000DB080CEBC3020125DCF804009168A160BA
:104F60009B1005FA03F31843E260CCF80400946048
:104F70003046CC60BDE8F04100F0C8BC294DA842E5
:104F8000ADD143F00102CCF81440CCF81040E06001
:104F9000A0606260E350C7E71F44CB0707D455F811
:104FA000083CE41A1F44A268E368D3609A601E4B71
:104FB0001B6847F001029F426260CCF80840B3D3FF
:104FC0001A4B30461968FFF717FFADE701217EE75E
:104FD000142A0CD802F15B00410091E74B68801065
:104FE000012505FA00F003434B60134698E7542A65
:104FF00003D8180B6E30410082E7B2F5AA7F03D8C0
:10500000D80B773041007BE740F254518A4203D8F5
:10501000980C7C30410073E7FC217E2070E700BFD4
:1050200098040020A0040020A0080020D008002040
:105030002DE9F04110F5387788461AD000267D68B2
:10504000BC68013D0FD4A389012B05F1FF3506D9BA
:10505000B4F90E300133204601D0C04706436B1C23
:1050600004F16804EFD13F68002FE8D13046BDE875
:10507000F0813E463046BDE8F08100BF00487047F1
:1050800074040020014B1868704700BF940400208E
:10509000004870473C040020F0B58B899AB296070F
:1050A00091B00C46054637D4B1F90E10002917DB34
:1050B00001AA01F0D1F8002810DB029B03F4704331
:1050C000B3F500514F424F41B3F5004F2CD0A389A7
:1050D00043F40063A3814FF480660BE0A3899AB286
:1050E00012F0800F43F40063A38114BF40264FF4F5
:1050F000806600272846314600F03EF8A389002844
:1051000029D01B4AEA6343F08003A3812060206119
:105110006661A7B911B0F0BD01F1430301220B6034
:105120000B614A6111B0F0BD124AA36A9342CED11D
:10513000A3894FF480663343A381E664DAE7284607
:10514000B4F90E1001F026FA0028E3D0A38943F049
:105150000103A381DEE79A05DCD404F1430243F0A6
:1051600002030121A381226022616161D2E700BFB5
:10517000F14C0008A55F00082DE9F04F01F10B0587
:10518000162D83B0064627D935F0070527D4A94246
:1051900025D8304600F0B8FBB5F5FC7F26D2C14FCC
:1051A0004FEAD50C07EBCC03DC689C4200F0D281BF
:1051B0006368E268A16823F00303234430465D6816
:1051C000CA6045F0010591605D6000F09FFB083406
:1051D000204603B0BDE8F08F1025A942D9D900249C
:1051E0000C232046336003B0BDE8F08F5FEA552CF6
:1051F00000F08A80BCF1040F00F260814FEA951C38
:105200000CF1380C4FEA4C01A64F07EB8101CC683A
:10521000A14205D10CE0002B7ADAE468A14207D064
:10522000626822F00302531B0F2BF4DD0CF1FF3CEC
:105230000CF1010C9B4B3C6903F1080E744500F026
:105240007E81616821F003014A1B0F2A00F364810B
:10525000002AC3F814E0C3F810E06ADAB1F5007F61
:1052600080F03A81C90803EBC1004FEAA1085A68EF
:105270008168A1604FF0010909FA08F848EA0202C2
:10528000E0605A608460CC604FEAAC030120984033
:1052900090425BD8024206D12CF0030C400002423F
:1052A0000CF1040CFAD007EBCC084446E146E36865
:1052B0009C4207D145E1002A80F25681DB689C427E
:1052C00000F03F81596821F003014A1B0F2AF2DDEB
:1052D0001C46D3F80CC054F8088F591945F0010941
:1052E00042F00105C3F804903046C8F80CC0CCF871
:1052F000088079613961C1F80CE0C1F808E04D60BF
:105300008A5000F003FB63E77E214FF03F0C7BE700
:105310002244E3685068A16840F00105CB60304644
:105320009960556000F0F2FA0834204603B0BDE8F9
:10533000F08F214430464B6843F001034B6000F08E
:10534000E5FA0834204603B0BDE8F08FBC68636816
:1053500023F00309A94504D3C5EB09030F2B00F380
:105360009180514B514A19681368013305EB010ACA
:1053700004EB090B00F061810AF5805A0AF10F0A6B
:105380002AF47F6A2AF00F0A30465146019200F053
:10539000C9FDB0F1FF3F8046019A00F000818345CE
:1053A00000F2FA80DFF810C1DCF80030C345534446
:1053B000CCF8003000F04A8112683C4901321BBF32
:1053C000CBEB080B5B44C1F80080CCF8003018F040
:1053D000070300F01381C3F10802C3F58053904422
:1053E0000833C244CAF30B0ACAEB030A51463046DB
:1053F000CDF804C000F096FD431CDDF804C000F0B9
:105400003581C8EB0002524442F00102DCF8003062
:10541000C7F808805344BC42C8F80420CCF80030D8
:10542000DFF894A015D0B9F10F0F40F2EA8061685F
:10543000A9F10C0222F0070201F0010EA1180520CB
:1054400042EA0E0E0F2AC4F804E04860886000F2B9
:105450001181174ABC6811688B4288BF1360154AD6
:1054600011688B4288BF1360626822F00302954284
:10547000C5EB020301D80F2B04DC304600F046FADE
:105480000024A5E6621943F0010345F001056560BB
:105490003046BA60536000F039FA0834204603B051
:1054A000BDE8F08F98040020D0080020A408002058
:1054B000CC080020C8080020D4080020BCF1140F3C
:1054C00061D9BCF1540F00F28F804FEA153C0CF10A
:1054D0006E0C4FEA4C0197E64B0A042B58D9142B5B
:1054E00000F2AE8003F15B02500007EB8000DFF8B2
:1054F000BC818368834200F08A805A6822F00302EC
:10550000914202D29B689842F7D1D9687A68E160EB
:10551000A3608C60DC60B7E6611942F0010745F0DA
:1055200001056560304659611961C1F80CE0C1F8A8
:1055300008E04F608A50083400F0E8F948E65A68FD
:10554000A2E609F1010919F0030F04F108047FF440
:10555000AEAE2DE004F108036469A34208BF0CF16C
:10556000020C3FF467AE23E619441C464868DB682A
:1055700054F8082F40F001054D603046D3609A6022
:1055800000F0C4F924E60CF15B0C4FEA4C013BE659
:105590008A0938325000A8E7BC423FF403AFBC6828
:1055A000626822F0030262E7D8F8008098457BD158
:1055B0001CF0030FA8F108030CF1FF3CF4D17B6849
:1055C00023EA00037B60400098423FF6BFAE00280C
:1055D0003FF4BCAE0342CC467FF465AE40000342CC
:1055E0000CF1040CFAD05EE6BCF5AA7F1AD84FEA9B
:1055F000D53C0CF1770C4FEA4C0105E64FF4805393
:10560000EFE60123C8F80430444600222FE791104A
:105610000120D8F8042000FA01F10A43C8F8042058
:10562000194674E740F254539C451BD84FEA954CF9
:105630000CF17C0C4FEA4C01E6E50AF1100AA3E6F6
:10564000542B1FD80A0B6E3250004EE7CBF30B01E0
:1056500000297FF4B1AE0AEB0901BA6841F00101FB
:105660005160F6E6FC214FF07E0CCDE501224FF0B3
:10567000000ACBE604F108013046FFF70BFCDAF82C
:105680000030E6E6B3F5AA7F03D8CA0B77325000A4
:105690002BE740F25452934203D88A0C7C325000DC
:1056A00023E7FC207E2220E77B688CE7980400201B
:1056B000830770B4C9B23FD0541E2AB303788B421B
:1056C00023D0431C04E0FCB104788C421DD0144666
:1056D00013F0030F184604F1FF3203F10103F2D176
:1056E000032C14D8651E4CB303788B420DD0421C9A
:1056F000002302E004788C4207D0AB42104603F14D
:10570000010302F10102F5D1002070BC704741EAAB
:105710000126034646EA06461846043302687240EC
:10572000A2F1013525EA020212F0803FDAD1043CF1
:10573000032C1846F0D8D5E71446D1E72046E4E715
:10574000844641EA000313F003036DD1403A41D38C
:1057500051F8043B40F8043B51F8043B40F8043B4B
:1057600051F8043B40F8043B51F8043B40F8043B3B
:1057700051F8043B40F8043B51F8043B40F8043B2B
:1057800051F8043B40F8043B51F8043B40F8043B1B
:1057900051F8043B40F8043B51F8043B40F8043B0B
:1057A00051F8043B40F8043B51F8043B40F8043BFB
:1057B00051F8043B40F8043B51F8043B40F8043BEB
:1057C00051F8043B40F8043B51F8043B40F8043BDB
:1057D000403ABDD2303211D351F8043B40F8043B7B
:1057E00051F8043B40F8043B51F8043B40F8043BBB
:1057F00051F8043B40F8043B103AEDD20C3205D38B
:1058000051F8043B40F8043B043AF9D2043208D082
:10581000D2071CBF11F8013B00F8013B01D30B88F4
:1058200003806046704700BF082A13D38B078DD0D2
:1058300010F003038AD0C3F10403D21ADB071CBFA4
:1058400011F8013B00F8013B80D331F8023B20F80E
:10585000023B7BE7043AD9D3013A11F8013B00F847
:10586000013BF9D20B7803704B7843708B788370CF
:1058700060467047F0B4840743D0541E002A3ED0DF
:10588000CDB2034603E0621E002C38D0144603F864
:10589000015B9A07F7D1032C2AD9CDB245EA052539
:1058A0000F2C45EA054515D9A4F110073F0903F16E
:1058B000100606EB07161A46156055609560D56010
:1058C0001032B242F8D104F00F040137032C03EB7D
:1058D00007130DD91E462246043A032A46F8045BF4
:1058E000FAD8221F22F003020432134404F0030406
:1058F0002CB1C9B21C4403F8011BA342FBD1F0BC7C
:10590000704714460346C6E7704700BF704700BFA4
:10591000C26C70B505460C464AB152F8240080B1FD
:10592000016842F8241000220261C26070BD212289
:10593000042100F0A9FBE86402460028EDD1002014
:1059400070BD012101FA04F6721D2846920000F094
:105950009BFB0028F3D044608660E4E731B1C36C60
:105960004A6853F82200086043F82210704700BFCD
:105970002DE9F047D1F8108082B08946824601F1C6
:10598000140500242F68BEB23F0C02FB063602FB52
:1059900007F303EB16430134B6B206EB0346A0450A
:1059A00045F8046B4FEA1343ECDC53B1D9F80820F7
:1059B00090450ADA09EB880108F101024B61C9F848
:1059C0001020484602B0BDE8F087D9F804100193D2
:1059D00001315046FFF79CFFD9F81020023209F13F
:1059E0000C01044692000C30FFF7AAFEDAF84C20B6
:1059F000D9F80410019B52F82100C9F8000042F8C0
:105A00002190A146D6E700BF030C1B04B3B90004E4
:105A1000102310F07F4F04BF0002083310F0704FC6
:105A200004BF0001043310F0404F04BF8000023374
:105A3000002807DB420003D4202070470023E8E75A
:105A4000581C704718467047036813F0070207D0C8
:105A5000D90720D49A0720D49B08036002207047FE
:105A600099B209B91B0C102213F0FF0F04BF1B0AD7
:105A70000832190704BF1B090432990704BF9B08A9
:105A80000232D90704D45B0801D1202070470132CB
:105A9000036010467047002070475B0803600120D8
:105AA000704700BF10B50C460121FFF731FF0122FE
:105AB0004461026110BD00BF2DE9F04F0D69D2F8BD
:105AC00010904D4585B00C46924604DA2A4654465D
:105AD0004D468A469146A368616805EB09079F42D7
