:020000040800F2
:100000008C360120F901000855020008550200084D
:1000100055020008550200085502000800000000C3
:100020000000000000000000000000005502000871
:1000300055020008000000005502000855020008A3
:100040005502000855020008550200085502000834
:100050005502000855020008550200085502000824
:100060005502000855020008550200085502000814
:100070005502000855020008550200085502000804
:1000800055020008550200085502000855020008F4
:1000900055020008550200085502000855020008E4
:1000A00055020008550200085502000855020008D4
:1000B000490D0008550200085502000855020008C5
:1000C00055020008550200085502000855020008B4
:1000D00055020008550200085502000855020008A4
:1000E0005502000855020008550200085502000894
:1000F0005502000855020008550200085502000884
:100100005502000855020008550200085502000873
:100110005502000855020008550200085502000863
:100120005502000855020008550200085502000853
:100130005502000855020008550200085502000843
:100140005502000855020008550200085502000833
:10015000010E00085502000855020008550200086B
:100160005502000855020008550200085502000813
:100170005502000855020008550200085502000803
:10018000550200085502000880B586B000AF02464F
:100190000B46FA71BB7100237B6100233B61002396
:1001A000FB600023BB60BB797B611CE0FB793B619A
:1001B00012E03B6999B27B699AB20E48FB6803442E
:1001C0001B78084611461A4600F06CFCFB680133A8
:1001D000FB603B6901333B613B69B3F5A07FE8DB22
:1001E0007B6901337B617B69EF2BDFDD1837BD460F
:1001F00080BD00BF5813000880B582B000AF104B1F
:100200007B60104B3B6007E03B681A1D3A607A68E0
:10021000111D796012681A603A680B4B9A42F3D349
:100220000A480B494FF000028842B8BF40F8042B3F
:10023000FFF6FAAF00F012F80837BD4680BD00BFE8
:10024000583F0108000000200000002000000020AE
:100250008C2E012080B400AFFEE700BF80B500AF58
:1002600000F036F900F0DEFB00200021FFF78CFFE4
:10027000FAE700BF80B483B000AF78600B46FB7034
:10028000FB78002B06D0094B084A116B7A680A43A9
:100290001A6306E0054B054A116B7A68D2430A409F
:1002A0001A630C37BD465DF8047B70470038024086
:1002B00080B483B000AF78600B46FB70FB78002BF6
:1002C00006D0094B084A116C7A680A431A6406E0A2
:1002D000054B054A116C7A68D2430A401A640C3700
:1002E000BD465DF8047B70470038024080B483B09F
:1002F00000AF78600B46FB70FB78002B06D0094BF3
:10030000084A516C7A680A435A6406E0054B054A6C
:10031000516C7A68D2430A405A640C37BD465DF886
:10032000047B70470038024080B487B000AF78602B
:10033000396000237B6100233B610023FB600023C5
:100340007B6176E07B69012202FA03F33B613B6843
:100350001A683B691340FB60FA683B699A4265D1B1
:100360007B681A687B695B00032101FA03F3DB43B6
:100370001A407B681A607B681A683B681B791946CB
:100380007B695B0001FA03F31A437B681A603B68E0
:100390001B79012B03D03B681B79022B2ED17B6884
:1003A0009A687B695B00032101FA03F3DB431A407F
:1003B0007B689A607B689A683B685B7919467B69C1
:1003C0005B0001FA03F31A437B689A607B685A6802
:1003D0007B699BB2012101FA03F3DB431A407B687E
:1003E0005A607B685A683B689B7919467B699BB267
:1003F00001FA03F39BB21A437B685A607B68DA68A0
:100400007B699BB25B00032101FA03F3DB431A40D3
:100410007B68DA607B68DA683B68DB7919467B6960
:100420005B0001FA03F31A437B68DA607B690133EE
:100430007B617B690F2B85D91C37BD465DF8047B3A
:10044000704700BF80B485B000AF786013460A469D
:100450007A807B700023FB600023BB607A787B8806
:1004600003F007039B0002FA03F3FB607B88DB08C1
:100470009BB21A467B88DB089BB219467B68083121
:1004800053F821107B8803F007039B000F2000FA2C
:1004900003F3DB4319407B68083243F822107B8862
:1004A000DB089BB21A467B68083253F82220FB68AF
:1004B0001343BB607B88DB089BB21A467B6808321B
:1004C000B96843F822101437BD465DF8047B7047C5
:1004D00080B500AF114B114A126842F001021A6058
:1004E0000E4B00229A600D4A0C4B1B6823F084735C
:1004F00023F480331360094B094A5A60074B074ABB
:10050000126822F480221A60044B0022DA6000F0A4
:100510000BF8044B4FF000629A6080BD0038024037
:100520001030002400ED00E080B483B000AF002361
:100530007B6000233B60354B344A126842F48032C2
:100540001A60324B1B6803F400333B607B68013355
:100550007B603B68002B03D17B68B3F5A06FF0D1C3
:100560002A4B1B6803F40033002B02D001233B60AD
:1005700001E000233B603B68012B42D1234B234A1F
:10058000126C42F080521A64214B214A126842F4E4
:1005900080421A601D4B1D4A92689A601B4B1B4A91
:1005A000926842F400429A60184B184A926842F4EA
:1005B000A0529A60154B174A5A60144B134A12689E
:1005C00042F080721A6000BF104B1B6803F000738A
:1005D000002BF9D0104B40F205621A600B4B0B4A0E
:1005E000926822F003029A60084B084A926842F02F
:1005F00002029A6000BF054B9B6803F00C03082BB6
:10060000F9D10C37BD465DF8047B704700380240D5
:100610000070004008544007003C024080B483B0A2
:1006200000AF78607B681B6823F001027B681A606A
:100630007B6800221A607B6800225A607B68002277
:100640009A607B680022DA607B6800221A617B680E
:1006500021225A617A68454B9A4203D1444B3D228C
:100660009A607EE07A68434B9A4204D1404B4FF443
:1006700074629A6075E07A683F4B9A4204D13C4BB1
:100680004FF474129A606CE07A683C4B9A4204D141
:10069000374B4FF074629A6063E07A68384B9A4245
:1006A00003D1334B374ADA605BE07A68364B9A42C3
:1006B00003D12F4B354ADA6053E07A68344B9A42C3
:1006C00003D12B4B334ADA604BE07A68324B9A42C3
:1006D00004D1274B4FF03D52DA6042E07A682F4B4D
:1006E0009A4203D12E4B3D229A603AE07A682D4B14
:1006F0009A4204D12A4B4FF474629A6031E07A68CE
:10070000294B9A4204D1264B4FF474129A6028E088
:100710007A68264B9A4204D1214B4FF074629A605A
:100720001FE07A68224B9A4203D11D4B154ADA60CA
:1007300017E07A681F4B9A4203D1194B134ADA60CB
:100740000FE07A681C4B9A4203D1154B114ADA60CC
:1007500007E07A68194B9A4203D1114B4FF03D5292
:10076000DA600C37BD465DF8047B704710600240CC
:100770000060024028600240406002405860024031
:10078000706002403D00002088600240400F002061
:10079000A060024000003D20B860024010640240AA
:1007A00000640240286402404064024058640240F1
:1007B0007064024088640240A0640240B864024051
:1007C00080B485B000AF786039600023FB607B683F
:1007D0001B68FB60FA68244B1340FB603B681A6897
:1007E0003B68DB681A433B685B691A433B689B695B
:1007F0001A433B68DB691A433B681B6A1A433B6830
:100800005B6A1A433B689B6A1A433B685B6B1A43FB
:100810003B689B6B1343FA681343FB607B68FA6881
:100820001A607B685B69FB60FB6823F00703FB6071
:100830003B68DA6A3B681B6B1343FA681343FB603F
:100840007B68FA685A613B681A697B685A603B6842
:100850005A687B689A603B689A687B68DA601437EC
:10086000BD465DF8047B70473F801CF080B483B0C8
:1008700000AF78600B46FB70FB78002B06D07B68DE
:100880001B6843F001027B681A6005E07B681B6807
:1008900023F001027B681A600C37BD465DF8047BCB
:1008A000704700BF80B485B000AFF860B9601346F0
:1008B000FB71BB6803F08003002B0FD0FB79002B8A
:1008C00006D0FB685B6943F08002FB685A6105E073
:1008D000FB685B6923F08002FB685A61BB68802B70
:1008E00014D0FB79002B08D0FB681A68BB6803F0B2
:1008F0001E031A43FB681A6008E0FB681A68BB68AD
:1009000003F01E03DB431A40FB681A601437BD4630
:100910005DF8047B704700BF80B487B000AF78609B
:1009200039600023FB750023FB600023BB607A68FD
:10093000224B9A4202D8224B3B6101E0214B3B61A2
:100940003B6823F0F02323F0C313002B0AD03B684D
:10095000DB0A03F01E03FB607B681A68FB68134028
:10096000BB6004E07B685B6903F08003BB603B68AD
:1009700003F00053002B03D03B695B68FB6002E08F
:100980003B691B68FB60FB6823F0F02323F08213B4
:10099000FB60FA683B681340002B05D0BB68002B56
:1009A00002D00123FB7501E00023FB75FB7D184697
:1009B0001C37BD465DF8047B704700BF0F640240E2
:1009C000006002400064024080B485B000AF7860EF
:1009D00039607A68104B9A4202D8104BFB6001E0F4
:1009E0000F4BFB603B6803F00053002B07D03B68C4
:1009F00023F0F02323F08213FA68D36006E03B680B
:100A000023F0F02323F08213FA6893601437BD4675
:100A10005DF8047B704700BF0F6402400060024035
:100A20000064024080B582B000AF1B4B00221A80E8
:100A3000194B00225A60184B00229A600023BB8099
:100A400017E00023FB800DE0BA8813469B00134497
:100A50009B011A44FB881344104A0021D154FB889F
:100A60000133FB80FB88B3F5A07FEDD9BB88013350
:100A7000BB80BB88EF2BE4D900F03AF800F08CF88B
:100A800000F01AF900F0ECF8054B1A68024B9A6076
:100A90000837BD4680BD00BF000000200C000020CC
:100AA0008864024080B483B000AF13460246FA80E7
:100AB0000A46BA80FB70FB88B3F5A07F01D3002300
:100AC000FB80BB88EF2B01D90023BB80BA8813467B
:100AD0009B0013449B011A44FB881344034AF97892
:100AE000D1540C37BD465DF8047B70470C000020E4
:100AF00080B582B000AF10200121FFF7BBFB4FF49F
:100B00007F433B6001233B710023BB710123FB71D9
:100B100003237B713B461E481946FFF705FC1C4B1F
:100B20004FF47F425A8302200121FFF7A3FB4FF4C9
:100B300000633B6002233B7103237B710023BB7185
:100B40000123FB713B4613481946FFF7EDFB1148A3
:100B50000B210122FFF776FC02200121FFF78AFB1F
:100B60004FF480533B6001233B710023BB71012391
:100B7000FB7103237B713B4606481946FFF7D4FB04
:100B8000044B4FF480521A830837BD4680BD00BF26
:100B9000001002400004024080B588B000AF012080
:100BA0000121FFF7A3FB0B23BB610023BB820023C2
:100BB000BB830023FB8207F114032848194600F089
:100BC000A3F901200121FFF773FB40F66B23BB6102
:100BD0000023BB820023BB830023FB8207F11403A5
:100BE0004FF08040194600F08FF960233B800123CD
:100BF0007B804FF4D273BB600223BB813B464FF036
:100C00008040194600F02AFA4FF08040082100F099
:100C100011FB60233B8001237B804FF4A073BB60FA
:100C20000223BB813B464FF08040194600F09CFAFE
:100C30004FF08040082100F019FB0848012100F026
:100C4000CDF94FF08040012100F0C8F94FF080400D
:100C5000012100F0E3F92037BD4680BD00000140CE
:100C600080B582B000AF134810210122FFF71AFEB1
:100C700044233B7100237B710023BB710123FB7173
:100C80003B1D184600F0E2F84FF080400821012299
:100C900000F00AFB1C233B7100237B710023BB7116
:100CA0000123FB713B1D184600F0D0F80837BD4604
:100CB00080BD00BF8864024080B590B000AF4FF4A3
:100CC00080000121FFF7D6FA1B480021FFF7CEFD77
:100CD0001948FFF7A3FC4FF040637B60174BBB60E4
:100CE000174BFB6040233B6140F241137B610023C3
:100CF000BB614FF48063FB6100233B6200237B6296
:100D00000023BB624FF44033FB6200233B630123AB
:100D10007B630023BB630023FB633B1D064819462E
:100D2000FFF74EFD07484FF48071012200F0F0FA02
:100D30004037BD4680BD00BF8864024015100240A8
:100D40000C0000200000014080B500AF4FF0804053
:100D5000082100F0CDFA254B1B8801339AB2234BB2
:100D60001A80224B1B88B3F5037F05D91F4B002245
:100D70001A801F4A1D4B5A601C4B1B88012B04D83C
:100D80001C4B4FF480525A8303E01A4B4FF48052AD
:100D90001A83164B1B88232B27D9144B1A8840F231
:100DA00002239A4221D8144B104A92681A60124BBF
:100DB0000E4A5268DA60114B104A128892B242F021
:100DC000010292B21A800C4B0B4A126842F00102E7
:100DD0001A60064B1B8803F00103002B05D0034B60
:100DE0005B6803F24112014B5A6080BD0000002095
:100DF0000C00002000040240886402400000014012
:100E000080B500AF0D480E49FFF786FD0346002B65
:100E100012D00A480A49FFF7D7FD0A4B094A12883F
:100E200092B222F0010292B21A80044B00221A60A0
:100E3000054B4FF47F425A8380BD00BF8864024057
:100E400000880020000001400010024080B485B0FE
:100E500000AF78600023FB730023BB730F237B7309
:100E60007B68DB78002B37D0254BDB68DB4303F452
:100E7000E0631B0AFB73FB7BC3F10403BB737A7B48
:100E8000FB7B42FA03F37B737B685B781A46BB7B80
:100E900002FA03F3FB737B689A787B7B1340DAB228
:100EA000FB7B1343FB73FB7B1B01FB73154A7B68C6
:100EB0001B781344FA7B83F80023124B7A6812786C
:100EC0005209D2B27968097801F01F01012000FAB5
:100ED00001F143F822100EE00A4B7A6812785209A9
:100EE000D2B27968097801F01F01012000FA01F1FE
:100EF000203243F822101437BD465DF8047B70475A
:100F000000ED00E000E100E080B485B000AF786063
:100F100039600023FB817B681B88FB817A68284B42
:100F20009A4213D07A68274B9A420FD07B68B3F16C
:100F3000804F0BD07A68244B9A4207D07A68234BB3
:100F40009A4203D07A68224B9A4208D1FB8923F057
:100F50007003FB813B685A88FB891343FB817A68E5
:100F60001C4B9A420CD07A681B4B9A4208D0FB89E2
:100F700023F44073FB813B681A89FB891343FB818F
:100F80007B68FA891A803B685A687B68DA623B683A
:100F90001A887B681A857A68094B9A4203D07A6866
:100FA000084B9A4204D13B689B7A1A467B681A86A2
:100FB0007B6801229A821437BD465DF8047B704736
:100FC000000001400004014000040040000800400F
:100FD000000C0040001000400014004080B483B0BA
:100FE00000AF78600B46FB70FB78002B08D07B6865
:100FF0001B889BB243F080039AB27B681A8007E09B
:101000007B681B889BB223F080039AB27B681A80AE
:101010000C37BD465DF8047B704700BF80B483B0D9
:1010200000AF78600B46FB70FB78002B08D07B6824
:101030001B889BB243F001039AB27B681A8007E0D9
:101040007B681B889BB223F001039AB27B681A80ED
:101050000C37BD465DF8047B704700BF80B485B097
:1010600000AF7860396000237B810023FB8100237F
:10107000BB817B681B8C9BB223F480739AB27B6824
:101080001A847B681B8CFB817B689B88BB817B6897
:101090009B8B7B817B8923F070037B817B8923F091
:1010A00003037B813B681A887B8913437B81FB891F
:1010B00023F40073FB813B689B891B029AB2FB8976
:1010C0001343FB813B685B881B029AB2FB89134385
:1010D000FB817A68224B9A4203D07A68214B9A426C
:1010E0002BD1FB8923F40063FB813B68DB891B0266
:1010F0009AB2FB891343FB81FB8923F48063FB8154
:101100003B689B881B029AB2FB891343FB81BB8916
:1011100023F48053BB81BB8923F40053BB813B681C
:101120001B8A1B019AB2BB891343BB813B685B8A54
:101130001B019AB2BB891343BB817B68BA899A8031
:101140007B687A899A833B689A687B68DA637B68F4
:10115000FA891A841437BD465DF8047B704700BFD6
:10116000000001400004014080B485B000AF786009
:1011700039600023BB8100237B810023FB817B68D6
:101180001B8C9BB223F480539AB27B681A847B68D1
:101190001B8C7B817B689B88FB817B689B8BBB81E5
:1011A000BB8923F4E043BB81BB8923F44073BB813B
:1011B0003B681B881B029AB2BB891343BB817B89A6
:1011C00023F400537B813B689B891B039AB27B8984
:1011D00013437B813B685B881B039AB27B89134373
:1011E0007B817A68114B9A4203D07A68104B9A42FD
:1011F0000AD1FB8923F48043FB813B681B8A9B0156
:101200009AB2FB891343FB817B68FA899A807B68D9
:10121000BA899A833B689A687B681A647B687A8982
:101220001A841437BD465DF8047B70470000014006
:101230000004014080B485B000AF78600B467B802D
:101240000023FB817B689B8BFB81FB8923F00803D8
:10125000FB81FA897B881343FB817B68FA899A8337
:101260001437BD465DF8047B704700BF80B485B07D
:1012700000AF78600B467B800023FB817B689B8BF3
:10128000FB81FB8923F40063FB817B881B029AB2FC
:10129000FB891343FB817B68FA899A831437BD4627
:1012A0005DF8047B704700BF80B483B000AF786006
:1012B00013460A467A807B707B78002B08D07B68C7
:1012C0009B899AB27B8813439AB27B689A8109E022
:1012D0007B689B899AB27B88DB439BB213409AB2AE
:1012E0007B689A810C37BD465DF8047B704700BF70
:1012F00080B483B000AF78600B467B807B88DB4393
:101300009AB27B681A820C37BD465DF8047B704741
:1013100080B483B000AF786013460A467A807B7051
:101320007B78002B08D07B689B899AB27B8813431B
:101330009AB27B689A8109E07B689B899AB27B8824
:10134000DB439BB213409AB27B689A810C37BD464F
:101350005DF8047B704700BF6D6D6D6D6D6D6D6DDB
:1013600071717171929292929292929292929292E1
:10137000929292929292969696B6B6B6B6B6B6B645
:10138000B6B6B6B6B6BADADBDBDBDBDBDBDBDBDB88
:10139000DBDBDBDBDBDBDBDBDBDBDBDBDBDADADAA0
:1013A000B6B6B6B6B6B6B6B6B6B6B6B6B6B6B6B6DD
:1013B000B6B6DADBDBDBDBDBDADADADADADADADAD0
:1013C000BABABABABABABABABABABABABABABADA5D
:1013D000DADBDABABABABABABAB6B6B6B6B6B6B628
:1013E000B6B6B6B6B6B6B6B6B6B6B6B6B6B6B6B69D
:1013F000B6B6B6B6B6B6B6B6B6B6B6B6B6B6B6B68D
:10140000B6B6969696B6B6B6B6B6B6B6B6B6B6B6DC
:10141000B6B6B6B6B6B6B6DAFFFFBADBBBBBBBBB79
:10142000BBDFDFDFDFDFDFDFDFDFDFDFDFDFDFDFF0
:10143000DFDFDFDFDFDFDBBBDBDBBBBBDBDFDFDF38
:10144000FFFFFFFFFFFFDFDFDFDBDBBBBBBBB6B6B2
:10145000DBDBDBDBBABAB696969291918D6D6D6D42
:101460006D6D6D6D6D6D6D69696949484848484499
:1014700044442424242424484444484848484849AF
:101480004969696969696D6D6D6D6D6969696969D8
:1014900069696969696868686D6D6D6D6D6D6D6D9F
:1014A0006D717171929292929292929292929292A4
:1014B000929292929292929296B6B6B6B6B6B6B60C
:1014C000B6B6B6B6B6B6BADADBDBDBDBDBDBDBDB6C
:1014D000DBDBDBDBDBDBDBDBDBDBDBDBDBDADADA5F
:1014E000B6B6B6B6B6B6B6B6B6B6B6B6B6B6B6B69C
:1014F000B6B6DADBDBDBDBDBDADADADADABABABAEF
:10150000BABABABABABABABABABABABABABADADAFB
:10151000BADADABABABABABAB6B6B6B6B6B6B6B60B
:10152000B6B6B6B6B6B6B6B6B6B6B6B6B6B6B6B65B
:10153000B6B6B6B6B6B6B6B6B6B6B6B6B6B6B6B64B
:10154000B6B69696B6B6B6B6B6B6B6B6B6B6B6B67B
:10155000B6B6B6B6B6B6B6DAFFFFDADBDBBBBBBBF8
:10156000BBDFDFDFDFDFDFDFDFDFDFDFDFDFDFDFAF
:10157000DFDFDFDFDFDFDFDFDFDFBBDBDFDFFFFF63
:10158000FFFFFFFFFFFFDFDFDFDBDBDBBBBBBBDB27
:10159000DBDFDBDBDBBAB6B696969291916D6D6DB3
:1015A0006D6D6D6D6D6D6D69696949484848484458
:1015B000444444242444444444484849494849490B
:1015C0004969696969696D6D6D696969696969699F
:1015D00069696969696868686D6D6D6D6D6D6D6D5E
:1015E0006D6D6D719191929292929292929292926D
:1015F000929292929292929292B6B6B6B6B6B6B6CF
:10160000B6B6B6B6B6B6B6BADADBDBDBDBDBDBDB4F
:10161000DBDBDBDBDBDBDBDBDBDBDBDBDBDBDADA1C
:10162000B6B6B6B6B6B6B6B6B6B6B6B6B6B6B6B65A
:10163000B6BADADBDBDBDBDBDADADADADADABABA89
:10164000BABABABABABABABABABABABADADADADA7A
:10165000DADADABABABABABAB6B6B6B6B6B6B6B6AA
:10166000B6B6B6B6B6B6B6B6B6B6B6B6B6B6B6B61A
:10167000B6B6B6B6B6B6B6B6B6B6B6B6B6B6B6B60A
:10168000B6B696B696B6B6B6B6B6B6B6B6B6B6B63A
:10169000B6B6B6B6B6BAB6D6FFFFDBDADBBBBBBBB7
:1016A000BBDFDFDFDFDFDFDFDFDFDFDFDFDFDFDF6E
:1016B000DFDFDFDFDFDFDFDFFFDFDBDFDFDFFFFFDE
:1016C000FFFFFFFFFFFFFFFFB7FFBBDBDBBBDBDF86
:1016D000DFDFDFDFDBDBBAB6B6969291916D6D6D21
:1016E0006D6D6D6D6D6D6D696969694948484844F6
:1016F00044442424444444484849494949494949BF
:10170000496969696969696D6D6969696969696961
:1017100069696968696868686D6D6D6D6D6D6D6D1D
:101720006D6D6D719191919292929292929292922C
:10173000929292929292929292B6B6B6B6B6B6B68D
:10174000B6B6B6B6B6B6B6B6DADBDBDBDBDBDBDB12
:10175000DBDBDBDBDBDBDBDBDBDBDBDBDBDBBABA1B
:10176000B6B6B6B6B6B6B6B6B6B6B6B6B6B6B6B619
:10177000B6BADADBDBDBDBDBDADADADADADADADA08
:10178000BABABABABABABABABABABABADADADABA59
:10179000DADADADADABABABABABAB6B6B6B6B6B621
:1017A000B6B6B6B6B6B6B6B6B6B6B6B6B6B6B6B6D9
:1017B000B6B6B6B6B6B6B6B6B6B6B6B6B6B6B6B6C9
:1017C000B6B6B6B6B6B6B6B6B6B6B6B6B6B6B6B6B9
:1017D000B6B6B6B6BABAD6B6FFFFFFDBDBDBDBDBED
:1017E000DBDFDFDFDFDFDFDFDFDFDFDFDFDFDFDF0D
:1017F000DFDFDFDFFFDFFFDFFFDFDFDFFFFFFFFF19
:10180000FFFFDBDB6D8D8DD66DD792DBDBDBDFDFA2
:10181000DFDFDFDFDBDBBAB6B6B69291916D6D6DBF
:101820006D6D6D6D6D6D6D69696968694848484495
:10183000444424444848484949494949494949494F
:10184000496969696969696D696969696969696924
:1018500069686868696868686D6D6D6D6D6D6D6DDE
:101860006D6D6D71919292929292929292929292E9
:10187000929292929292929292B6B6B6B6B6B6B64C
:10188000B6B6B6B6B6B6B6B6DADBDBDBDBDBDBDBD1
:10189000DBDBDBDBDBDBDBDBDBDBDBDBDBDBBABADA
:1018A000B6B6B6B6B6B6B6B6B6B6B6B6B6B6B6B6D8
:1018B000B6BADADBDBDBDBDBDBDBDBDADADADADAC4
:1018C000BABABABABABABABABABABABADADABABA38
:1018D000BABABABADADABABABABAB6B6B6B6B6B640
:1018E000B6B6B6B6B6B6B6B6B6B6B6B6B6B6B6B698
:1018F000B6B6B6B6B6B6B6B6B6B6B6B6B6B6B6B688
:10190000B6B6B6B6B6B6B6B6B6B6B6B6B6B6B6B677
:10191000B6B6B6B6BABAB6B6FFFFFFDBDBDBDBDBCB
:10192000DFBBDFDFDFDFDFDFDFDFDFDFDFDFDFDFEB
:10193000DFDFDFDFFFFFFFFFFFFFFFFFFFFB698947
:10194000AEAED28D656565AE6545498EB6DBFFDF0F
:10195000FFDFDFFFDBDBDBB6B6B69692916D6D6D18
:101960006D6D6D6D6D6D6D69696968684848484851
:1019700044444444484849494949494949494949ED
:10198000696969696969696D6969696969696969C3
:1019900068686868696868686D6D6D6D6D6D6D6D9E
:1019A0006D6D6D6D919292929292929292929292AC
:1019B000929292929292929292B6B6B6B6B6B6B60B
:1019C000B6B6B6B6B6B6B6B6BADBDBDBDBDBDBDBB0
:1019D000DBDBDBDBDBDBDBDBDBDBDBDBDBDADABA7A
:1019E000B6B6B6B6B6B6B6B6B6B6B6B6B6B6B6B697
:1019F000B6BADADBDBDBDBDBDBDBDBDBDADADABAA2
:101A0000BABABABABABABABABABABABABABABABA36
:101A1000BABABABABABABABABABABAB6B6B6B6B63A
:101A2000B6B6B6B6B6B6B6B6B6B6B6B6B6B6B6B656
:101A3000B6B6B6B6B6B6B6B6B6B6B6B6B6B6B6B646
:101A4000B6B6B6B6B6B6B6B6B6B6B6B6B6B6B6B636
:101A5000B6B6B6B6B6BAB6B6FFFFFFDFDBDBDBDF86
:101A6000DFDBDBDFDFDFDFDFDFDFDFDFDFDFDFDF8E
:101A7000DFFFDFDFFFFFFFFFFFFB8DB2656540612A
:101A80008585A960656085A94040202069DBFFFF4E
:101A9000FFFFDFFFFFDBDBBAB6B6969291916D6D6B
:101AA0006D6D6D6D6D6D6969696968684848484814
:101AB00044444448484849494949494949494848AA
:101AC000696969696969696D696969686969696884
:101AD00068686868686868686D6D6D6D6D6D6D6D5E
:101AE0006D6D6D6D7192929292919191929292928E
:101AF000929292929292929292B696B6B6B6B6B6EA
:101B0000B6B6B6B6B6B6B6B6BADADADBDBDBDBDB70
:101B1000DBDBDBDBDBDBDBDBDBDBDBDBDBDADABA38
:101B2000B6B6B6B6B6B6B6B6B6B6B6B6B6B6B6B655
:101B3000BADADBDBDBDBDBDBDBDBDBDBDADADABA3B
:101B4000BABABABABABABABABABABABABABABABAF5
:101B5000BABABABABABABABABABABAB6B6B6B6B6F9
:101B6000B6B6B6B6B6B6B6B6B6B6B6B6B6B6B6B615
:101B7000B6B6B6B6B6B6B6B6B6B6B6B6B6B6B6B605
:101B8000B6B6B6B6B6B6B6B6B6B6B6B6B6B6B6B6F5
:101B9000B6B6B6B6B6B6B6B6FFFFFFFFDBDFDFDF21
:101BA000DFDBBBDBDFDFDFFFFFFFDFDFDFDFDFDF11
:101BB000DFDFDFDFFFFFFFF789898060A56040601E
:101BC0008185856060608185606040404569FBFB80
:101BD000DBFFDFDFFFDBDBBAB6B696929191918D2A
:101BE0008D8D6D6D6D6D6969696969686848484872
:101BF0004848444848484949494949494948484862
:101C00006868696969696969696969686969686849
:101C100068686868686868686D6D6D6D6D6D6D6D1C
:101C20006D6D6D6D6D71919291716D6D91929292DC
:101C30009292929292929292929696B6B6B6B6B6C8
:101C4000B6B6B6B6B6B6B6B6B6BADADBDBDBDBDB53
:101C5000DBDBDBDBDBDBDBDBDBDBDBDBDABADAB61C
:101C6000B6B6B6B6B6B6B6B6B6B6B6B6B6B6BADAEC
:101C7000DADADBDBDBDBDBDBDBDBDBDBDBDBDADAB8
:101C8000B6B6BABABABABABABABABABABABABABABC
:101C9000BABABABABABABADABABABAB6B6B6B6B698
:101CA000B6B6B6B6B6B6B6B6B6B6B6B6B6B6B6B6D4
:101CB000B6B6B6B6B6B6B6B6B6B6B6B6B6B6B6B6C4
:101CC000B6B6B6B6B6B6B6B6B6B6B6B6B6B6B6B6B4
:101CD000B6B6B6B6B6B6B6B6FFFFFFFFDBDFDFDFE0
:101CE000DFDBBBDFFFFFFFFFFFFFDFDFDFDFDFDF6C
:101CF000DFDFDFFFFFFF89896080A5A080A560602E
:101D000080A0A1A58180808161604040404569D666
:101D1000DBFFFFFFFFDFDBBAB696929292919191C3
:101D200091916D6D6D6D6969696969686848484828
:101D300048484848494949494949494848484868FC
:101D4000686868686969696968696868686868680E
:101D500068684868696868686D6D6D6D6D6D6D6DFA
:101D60006D6D6D6D6D6D71919191716D919192929D
:101D700092929292929292929696B6B6B6B6B6B663
:101D8000B6B6B6B6B6B6B6B6B6B6BADBDBDBDBDB36
:101D9000DBDBDBDBDBDBDBDBDBDBDBDBDBDBDADA95
:101DA000BABAB6B6B6B6B6B6B6B6B6B6B6BABABABF
:101DB000BADADABADADBDBDBDBDBDBDBDBDBDABADA
:101DC000BAB6B6B6B6B6B6BABABABABABABABABA8B
:101DD000BABABABABABABABABABABABABAB6B6B66F
:101DE000B6B6B6B6B6B6B6B6B6B6B6B6B6B6B6B693
:101DF000B6B6B6B6B6B6B6B6B6B6B6B6B6B6B6B683
:101E0000B6B6B6B6B6B6B6B6B6B6B6B6B6B6B6B672
:101E1000B6B6B6B6B6B6B6B6FFFFFFFFFFFFDFDF5A
:101E2000DFDFDBDBDFFFFFFFFFFFFFDFDFDFDFFFEA
:101E3000DFDFFFFFFFAD85A5A5A0A0A580A1816084
:101E40008080A1A1A580808181604060606145693A
:101E5000D6DBFFFFFFFFDBDABAB69696B692929119
:101E600091918D6D6D6D6D6D69696968686848489F
:101E700048484848494949494949494848484868BB
:101E800048686868696868686968686868686868F0
:101E900068686868686868686D6D6D6D6D6D6D6D9A
:101EA0006D6D6D6D6D6D6D7171716D6D6D71719229
:101EB00092929292929292929696B6B6B6B6B6B622
:101EC000B6B6B6B6B6B6B6B6B6B6BADADBDBDBDBF6
:101ED000DBDBDBDBDBDBDBDBDBDBDBDBDBDBDADA54
:101EE000BABAB6B6B6B6B6B6B6B6B6B6BABAB6BA7E
:101EF000BABABABABADBDBDBDBDBDBDBDBDBDABAF9
:101F0000BABAB6BAB6B6BABABABABABABABABABA3D
:101F1000BABABABABABABABABABABABABAB6B6B62D
:101F2000B6B6B6B6B6B6B6B6B6B6B6B6B6B6B6B651
:101F3000B6B6B6B6B6B6B6B6B6B6B6B6B6B6B6B641
:101F4000B6B6B6B6B6B6B6B6B6B6B6B6B6B6B6B631
:101F5000B6B6B6B6B6B6B6B6FFFFFFFFFFDFDFFF19
:101F6000FFDFDBDBDFFFFFFFFFFFDFDFDFFFFFFF69
:101F7000FFFFFBD6AE85A5C5C5C5A0A0A580A56001
:101F80008080A0C5C58080A5806060816065404577
:101F9000656D8EFFFFFFFFDBDABABAB6B6B6929177
:101FA00091918D8D6D6D6D6D6969696969696969F9
:101FB00049494949494969694969494848486868F6
:101FC0006868686868686868686868686868686891
:101FD00068686868686868686D6D6D6D6D6D6D6D59
:101FE0006D6D6D6D6D6D6D6D6D716D6D6D6D6D91F9
:101FF000929292929292929292B6B6B6B6B6B6B6C5
:10200000B6B6B6B6B6B6B6B6B6B6BADADADADBDBB6
:10201000DBDBDBDBDBDBDBDBDBDBDBDBDBDBDBDB10
:10202000BABAB6B6B6B6B6B6B6B6B6B6BABAB6B640
:10203000B6BABABABADADBDBDBDBDBDBDBDBBABADC
:10204000BABABABABABABABABAB6B6B6BABABAB600
:10205000BABABABABABABABABABABABABAB6B6B6EC
:10206000B6B6B6B6B6B6B6B6B6B6B6B6B6B6B6B610
:10207000B6B6B6B6B6B6B6B6B6B6B6B6B6B6B6B600
:10208000B6B6B6B6B6B6B6B6B6B6B6B6B6B6B6B6F0
:10209000B6B6B6B6B6B6B2B6FFFFFFFFFFDBFFFFC0
:1020A000FFDFDFDFDFFFFFFFFFFFFFDFDFFFFFFF00
:1020B000FFFF4940406081C5C1C5C580A0A5A0A063
:1020C00060A4A5C5A56080A96040606060604040D4
:1020D000402049D7B6FFFFFFDFDADABAB6B6B692CC
:1020E0009191918D6D6D6D6D6D69696969696969B0
:1020F00069696969696969696969484848486868D6
:10210000686868686868686868686868686868684F
:1021100068686868686868686D6D6D6D6D6D6D6D17
:102120006D6D6D6D6D6D6D6D6D6D6D6D6D6D6D71DB
:10213000929292929292929292B6B6B6B6B6B6B683
:10214000B6B6B6B6B6B6B6B6B6B6B6BADADADBDB99
:10215000DBDBDBDBDBDBDBDBDBDBDBDBDBDBDBDBCF
:10216000BABAB6B6B6B6B6B6B6B6B6B6BAB6B6B603
:10217000B6B6BABABADADBDBDBDBDBDBDBDBBABA9F
:10218000BABABAB6B6B6B6BAB6B6B6B6BABABAB6D3
:10219000B6B6BABABABABABABABABABABAB6B6B6B3
:1021A000B6B6B6B6B6B6B6B6B6B6B6B6B6B6B6B6CF
:1021B000B6B6B6B6B6B6B6B6B6B6B6B6B6B6B6B6BF
:1021C000B6B6B6B6B6B6B6B6B6B6B6B6B6B6B6B6AF
:1021D000B6B6B6B6B6B6B6B6FFFFFFFFFFDBFFFF7B
:1021E000FFDFDFDFDFFFFFFFFFFFFFDFDFFFFFFFBF
:1021F000FF69446565606080C5A0C5C080A0A0C5BA
:1022000080EDC9C9A54084A560608160816060409F
:1022100040202020DBFFFFFFFFDADBDBDBDAB6B696
:1022200091918D8D8D8D8D6D6D6D6D6969696D6D02
:102230006D6D6D6D6D6D696969696868484868683C
:10224000686868686868686868686868686868680E
:1022500068686868686868686D6D6D6D6D6D6D6DD6
:102260006D6D6D6D6D6D6D6D6D6D6D6D6D6D6D6D9E
:10227000919292929292929292B6B6B6B6B6B6B643
:10228000B6B6B6B6B6B6B6B6B6B6B6B6BADADBDB7C
:10229000DBDBDBDBDBDBDBDBDBDBDBDBDBDADBDA90
:1022A000BABAB6B6B6B6B6B6B6B6B6B6B6B6B6B6C6
:1022B000B6B6B6BABADADBDADBDBDBDBDBDABABA64
:1022C000BAB6B6B6B6B6B6B6B6B6B6B6B6B6B6B6AA
:1022D000B6B6B6BABABABABAB6B6BABAB6B6B6B682
:1022E000B6B6B6B6B6B6B6B6B6B6B6B6B6B6B6B68E
:1022F000B6B6B6B6B6B6B6B6B6B6B6B6B6B6B6B67E
:10230000B6B6B6B6B6B6B6B6B6B6B6B6B6B6B6B66D
:10231000B6B6B6B6B6B6B6B6FFFFFFFFFFDBFFFF39
:10232000FFFFDFDFDFDFFFFFFFFFFFFFFFFFFFFF3D
:10233000B24540446464656080A5C5C5A0A4E9E9D0
:10234000C5EDA4A58440A5A560608180856040405E
:10235000402040448DB6FFFFFFDBDFDFDBDBDAB67A
:1023600091918D8D8D8D8D8D8D6D6D6D6D6D6D6D75
:102370006D6D6D6D6D6D69696969696868686868BA
:1023800068686868686868686868686868686868CD
:1023900068686868686868686D6D6D6D6D6D6D6D95
:1023A0006D6D6D6D6D6D6D6D6D6D6D6D6D6D6D6D5D
:1023B000719192929292929296B6B6B6B6B6B6B61F
:1023C000B6B6B6B6B6B6B6B6B6B6B6B6BADADBDB3B
:1023D000DBDBDBDBDBDBDBDBDBDBDBDBDBDADADA50
:1023E000BABAB6B6B6B6B6B6B6B6B6B6B6B6B6B685
:1023F000B6B6B6BABADADADADBDBDBDADADABABA26
:10240000BAB6B6B6B6B6B6B6B6B6B6B6B6B6B6B668
:10241000B6B6B6B6B6B6B6B6B6B6BABABAB6B6B650
:10242000B6B6B6B6B6B6B6B6B6B6B6B6B6B6B6B64C
:10243000B6B6B6B6B6B6B6B6B6B6B6B6B6B6B6B63C
:10244000B6B6B6B6B6B6B6B6B6B6B6B6B6B6B6B62C
:10245000B6B6B6B6B6B6B6B6FEFFFFFFFFFFDBFFF9
:10246000FFFFFFDFDBDFFFFFFFFFFFFFFFFFFFB728
:1024700045202069898DB2D6AE85A4C9E9EEE9C5AB
:1024800080A480A5854080856080808560606060D4
:102490004040404020B2FFFFFFFFFFFFDFDBDAB626
:1024A0009191918D8D8D8D8D8D6D6D6D8D8D6D6DF0
:1024B0006D6D6D6D6D6D6969696969686868686879
:1024C000686868686868686868686868686868688C
:1024D00068686868686868686D6D6D6D6D6D6D6D54
:1024E0006D6D6D6D6D6D6D6D6D6D6D6D6D6D6D6D1C
:1024F0006D71719292929292B6B6B6B6B6B6B6B603
:10250000B6B6B6B6B6B6B6B6B6B6B6B6BADADBDBF9
:10251000DBDBDBDBDBDBDBDBDBDBDBDBDBDADABA2E
:10252000BAB6B6B6B6B6B6B6B6B6B6B6B6B6B6B647
:10253000B6B6B6BABADADADADADBDADADABABABA06
:10254000BAB6B6B6B6B6B6B6B6B6B6B6B6B6B6B627
:10255000B6B6B6B6B6B6B6B6B6B6BABABAB6B6B60F
:10256000B6B6B6B6B6B6B6B6B6B6B6B6B6B6B6B60B
:10257000B6B6B6B6B6B6B6B6B6B6B6B6B6B6B6B6FB
:10258000B6B6B6B6B6B6B6B6B6B6B6B6B6B6B6B6EB
:10259000B6B6B6B6B6B6D6B6FAFFFFFFFFFFDBFF9C
:1025A000FFFFFFDFDBDFDFDFFFFFFFFFFFFFDB49B9
:1025B000248EFFFFFFFFFFFFFFFFF689EEE9C5C591
:1025C000A0A580A560406060608560856040614036
:1025D0004040604040AED6FBFFFFFFFFDFDBDAB6D6
:1025E000B69191918D8D8D8D8D8D8D8D8D8D6D6D26
:1025F0006D6D6D6D6D6D6969696969686868686838
:10260000686868686868686868686868686868684A
:1026100068686868686868686D6D6D6D6D6D6D6D12
:102620006D6D6D6D6D6D6D6D6D6D6D6D6D6D6D6DDA
:102630006D6D719192929292B6B6B6B6B6B6B6B6C6
:10264000B6B6B6B6B6B6B6B6B6B6B6B6BABADADBD9
:10265000DBDBDBDBDBDBDBDBDBDBDBDBDBDADABAED
:10266000BAB6B6B6B6B6B6B6B6B6B6B6B6B6B6B606
:10267000B6B6B6B6BABABADABADADADABABABABA4A
:10268000BAB6B6B6B6B6B6B6B6B6B6B6B6B6B6B6E6
:10269000B6B6B6B6B6B6B6B6B6B6B6B6B6B6B6B6DA
:1026A000B6B6B6B6B6B6B6B6B6B6B6B6B6B6B6B6CA
:1026B000B6B6B6B6B6B6B6B6B6B6B6B6B6B6B6B6BA
:1026C000B6B6B6B6B6B6B6B6B6B6B6B6B6B6B6B6AA
:1026D000B6B6B6B6B6B6B6B6FAFEFFFFFFFFDAFF7D
:1026E000FFFFDFDFDBDFFFDFDFFFDFDFFFFFBB92AF
:1026F000FFFFFFFFFFFFFFFFFFFFFFFFD2A9C5C5E1
:10270000A0A480A540406060606060606060406040
:1027100060406181614065D6FFFFFFDBDFDBDAB639
:10272000B6B191918D8D8D8D8D8D8D8D8D8D8D8D84
:102730006D6D6D6D6D6D696D6D69696868686868EE
:102740006868686868686868686868686868686809
:1027500068686868686868686D6D6D6D6D6D6D6DD1
:102760006D6D6D6D6D6D6D6D6D6D6D6D6D6D6D6D99
:102770006D6D71719292929296B6B6B6B6B6B6B6C5
:10278000B6B6B6B6B6B6B6B6B6B6B6B6B6BADADB9C
:10279000DBDBDBDBDBDBDBDBDBDBDBDBDBDBBABACB
:1027A000B6B6B6B6B6B6B6B6B6B6B6B6B6B6B6B6C9
:1027B000B6B6B6B6BADADADADBDBDADABABABABAA7
:1027C000B6B6B6B6B6B6B6B6B6B6B6B6B6B6B6B6A9
:1027D000B6B6B6B6B6B6B6B6B6B6B6B6BAB6B6B695
:1027E000B6B6B6B6B6B6B6B6B6B6B6B6B6B6B6B689
:1027F000B6B6B6B6B6B6B6B6B6B6B6B6B6B6B6B679
:10280000B6B6B6B6B6B6B6B6B6B6B6B6B6B6B6B668
:10281000B6B6B6B6B6B6D6B6FAFEFEFFFFFFDBFF1B
:10282000FFFFFFDFDBDFDFDFDFFFDFFFFFFFFFFF9C
:10283000FFFFFFFFFFFFFFFFFFFFFFFFFFADA5C58E
:10284000846040644444404064406060606540602F
:1028500060818160608185D2FFFFFFFBDBDADAB641
:10286000B69191918D8D8D8D8D8D8D8D8D8D8D6D83
:102870006D8D6D6D6D6D6D6D6D6969686868686889
:1028800068686868686868686868686868686868C8
:1028900068686868686868686D6D6D6D6D6D6D6D90
:1028A0006D6D6D6D6D6D6D6D6D6D6D6D6D6D6D6D58
:1028B0006D6D6D719292929292B6B6B6B6B6B6B68C
:1028C000B6B6B6B6B6B6B6B6B6B6B6B6B6BADADB5B
:1028D000DBDBDBDBDBDBDBDBDBDBDBDBDBDABABA8B
:1028E000B6B6B6B6B6B6B6B6B6B6B6B6B6B6B6B688
:1028F000B6B6B6B6BABABADADADADABABABAB6BACC
:10290000B6B6B6B6B6B6B6B6B6B6B6B6B6B6B6B667
:10291000B6B6B6B6B6B6B6B6B6B6B6BABABAB6B64B
:10292000B6B6B6B6B6B6B6B6B6B6B6B6B6B6B6B647
:10293000B6B6B6B6B6B6B6B6B6B6B6B6B6B6B6B637
:10294000B6B6B6B6B6B6B6B6B6B6B6B6B6B6B6B627
:10295000B6B6B6B6B6B6D6B6FAFEFEFEFFFFFBFFBB
:10296000FFDFFFDBDBDBDFDBDFDFDFDFFFFFFFFFC7
:10297000FFFFFFFFFFFFFFFFFFFFFFFFFFFFA9605C
:1029800088F6FEFFFEFAF6AD644060406040646089
:1029900060806080858564AEFFFFFFDBDBDAB6B662
:1029A000B6B191918D8D8D8D8D8D8D8D8D8D8D8D02
:1029B0008D8D8D8D6D6D6D6D6D69686868686868E9
:1029C000686868686868686468686868686868688B
:1029D00068686868686868686D6D6D6D6D6D6D6D4F
:1029E0006D6D6D6D6D6D6D6D6D6D6D6D4D6D6D6D37
:1029F0006D6D6D719292929292B6B6B6B6B6B6B64B
:102A0000B6B6B6B6B6B6B6B6B6B6B6B6B6BADADB19
:102A1000DBDBDBDBDBDBDBDBDBDBDBDBDBBABABA69
:102A2000B6B6B6B6B6B6B6B6B6B6B6B6B6B6B6B646
:102A3000B6B6B6B6BABABABADADADABABAB6B6B6B2
:102A4000B6B6B6B6B6B6B6B6B6B6B6B6B6B6B6B626
:102A5000B6B6B6B6B6B6B6B6B6B6BABABABAB6B606
:102A6000B6B6B6B6B6B6B6B6B6B6B6B6B6B6B6B606
:102A7000B6B6B6B6B6B6B6B6B6B6B6B6B6B6B6B6F6
:102A8000B6B6B6B6B6B6B6B6B6B6B6B6B6B6B6B6E6
:102A9000B6B6B6B6B6B6D6B6FAFEFEFEFEFFFFFB7B
:102AA000FFDFDBBADBDBDBDBDBDFDFDFFFFFFFFFD3
:102AB000FFFFFFFFFFFFFFFFFFFFFFFFFFFFFFD64F
:102AC000FEFAF5F9F5D1CDADAD644040204060602F
:102AD000608080A581402020B6FFFBDADADAB6B646
:102AE000B2B191918D8D8D8D918D8D8D8D8D8D8DC1
:102AF0008D8D8D8D6D6D8989696969686868686873
:102B000068686464848484646868686868686868FD
:102B100068686868686868686D6D6D6D6D6D6D6D0D
:102B20006D6D6D6D6D6D6D6D6D6D6D6D4D6D6D6DF5
:102B30006D6D6D71929292929296B6B6B6B6B6B629
:102B4000B6B6B6B6B6B6B6B6B6B6B6B6B6BADADAD9
:102B5000DBDBDBDBDBDBDBDBDBDBDBDBDABABABA29
:102B6000B6B6B6B6B6B6B6B6B6B6B6B6B6B6B6B605
:102B7000B6B6B6B6B6B6B6BABABABABAB6B6B6B6E1
:102B8000B6B6B6B6B6B6B6B6B6B6B6B6B6B6B6B6E5
:102B9000B6B6B6B6B6B6B6B6B6B6B6B6B6B6B6B6D5
:102BA000B6B6B6B6B6B6B6B6B6B6B6B6B6B6B6B6C5
:102BB000B6B6B6B6B6B6B6B6B6B6B6B6B6B6B6B6B5
:102BC000B6B6B6B6B6B6B6B6B6B6B6B6B6B6B6B6A5
:102BD000B6B6B6B6B6B6D6B6FAFAFEFEFEFEFFDA60
:102BE000FFDFDBB6DBDFDBDBDBDFDFDFDFDFFFFFD2
:102BF000FFFFFFFFFFFFFFFFFFFFFFFFFFFFFFFFE5
:102C0000FAF9F5F5F9D0CCACA888442020404085ED
:102C10006084806040402020B6FFDBDADAD6B6B6AA
:102C2000B2B191B191918D919191919191918D8D3F
:102C30008D8D8D6D6D8D89896969686868688888F2
:102C4000888884A8A88889886868686868686868C7
:102C500068686868686868686D6D6D6D6D6D6D6DCC
:102C60006D6D6D6D4D4D6D6D4D4D4D4D4D6D6D6D74
:102C70006D6D6D719192929292929296B6B6B6B631
:102C8000B6B6B6B6B6B6B6B6B6B6B6B6B6BABADAB8
:102C9000DADBDBDBDBDBDBDBDBDBDBDABABABABA0A
:102CA000B6B6B6B6B6B6B6B6B6B6969696B6B6B624
:102CB000B6B6B6B6B6B6B6BABAB6B6BAB6B6B6B6A8
:102CC000B6B6B6B6B6B6B6B6B6B6B6B6B6B6B6B6A4
:102CD000B6B6B6B6B6B6B6B6B6B6B6B6B6B6B6B694
:102CE000B6B6B6B6B6B6B6B6B6B6B6B6B6B6B6B684
:102CF000B6B6B6B6B6B6B6B6B6B6B6B6B6B6B6B674
:102D0000B6B6B6B6B6B6B6B6B6B6B6B6B6B6B6B663
:102D1000B6B6B6BADAB6DAD6FAFAFAFAFEFEFFFABA
:102D2000FFDFDBBADFDFDBDBDBDFDFDFDFDFFFFF88
:102D3000FFFFFFDFFFFFFFFFFFFFFFFFFFFFFFFFC3
:102D4000FEF5F5F5F9D1CCCCA88868642040608503
:102D5000856060606160402024DADBDAD6D6B6B6E2
:102D6000B1B1B1B19191919191B1B1919191918D97
:102D70008D8D8D8D8D8D8D696D6889898984A4A5D2
:102D8000C4C5C4A4A888646468686868686868681A
:102D900068686868686868886D6D6D6D6D4D4D4DCB
:102DA0004D4D4D4D4D4D4D4D4D4D4D4D4D6D6D6DF3
:102DB0006D6D6D6D719292929292929296B6B6B638
:102DC000B6B6B6B6B6B6B6B6B6B6B6B6B6B6B6B6A3
:102DD000BADADADADADBDBDBDBDBDABABABABAB612
:102DE000B6B6B6B6B6B6B6B6B6969292929696B64F
:102DF000B6B6B6B6B6B6B6B6BAB6BABAB6BABAB65F
:102E0000B6B6B6B6B6B6B6B6B6B6B6B6B6B6B6B662
:102E1000B6B6B6B6B6B6B6B6B6B6B6B6B6B6B6B652
:102E2000B6B6B6B6B6B6B6B6B6B6B6B6B6B6B6B642
:102E3000B6B6B6B6B6B6B6B6B6B6B6B6B6B6B6B632
:102E4000B6B6B6B6B6B6B6B6B6B6B6B6B6B6B6B622
:102E5000B6B6BADADAB6DAD6DAFAFAFAFAFEFEFE76
:102E6000FFDFDFDBDFDFDBDBDBDFDFDFDFDFFFFF22
:102E7000FFDFDBDBFFFFFFFFFFFFFFFFFFFFFFFFCA
:102E8000FFFAF5F5F5D1CCCCA888646444206060E5
:102E9000606060406040200045B6DBDAD6B6D6B64A
:102EA000B1B1B1B1B1B1B1B1B1B1B1B19191918D96
:102EB0008D8D8D8D8D8D898988898984A4A4A4A404
:102EC000A4A4A4A48464686868686868686868687A
:102ED00068686868686868886D6D6D6D6D4D4D4D8A
:102EE0004D4D4D4D4D4D4D49494D4D4D4D6D6D6DBA
:102EF0006D6D6D6D71929292929292929296B6B61B
:102F0000B6B6B6B6B6B6B6B6B6B6B6B6B6B6B6B661
:102F1000BABADADADADADBDBDBDABABABABABAB612
:102F2000B6B6B6B6B6B6B6B6B69692929292969631
:102F3000B6B6B6B6B6B6B6B6B6B6BABABABABAB61D
:102F4000B6B6B6B6B6B6B6B6B6B6B6B6B6B6B6B621
:102F5000B6B6B6B6B6B6B6B6B6B6B6B6B6B6B6B611
:102F6000B6B6B6B6B6B6B6B6B6B6B6B6B6B6B6B601
:102F7000B6B6B6B6B6B6B6B6B6B6B6B6B6B6B6B6F1
:102F8000B6B6B6B6B6B6B6B6B6B6B6B6B6B6B6B6E1
:102F9000B6D6DADADADAD6D6DAFAFAFAFAFAFAFEDD
:102FA000FFFFDFFFFFFFDBDBDBDFDFDFDFDBDFDFA1
:102FB000DBBBDBDFFFFFFFFFFFFFFFFFFFFFFFFFCD
:102FC000FFFAF5F5F5F5F5D1CCAC6464442020208A
:102FD00040406040402000002092DAD6D6D6B6B6F7
:102FE000B5B1B1B1B1B1B1B1B1B1B1B1B19191912D
:102FF0008D8D8D8D8D89A9A9C9C4A4A4A4A4848410
:1030000084848464686464686868686868686868F8
:1030100068686868686868886D6D6D4D4D4D4D4D88
:103020004D4D4D494949494949494D49494D6D6DB4
:103030006D6D6D6D71929292929292929292B6B6DD
:10304000B6B6B6B6B6B6B6B6B6B6B6B6B6B6B6B620
:10305000B6BABADADADADBDBDADABABABABABAB6F6
:10306000B6B6B6B6B6B6B6B6969292929292969614
:10307000B6B6B6B6B6B6B6B6B6B6BABAB6B6BAB6E4
:10308000B6B6B6B6B6B6B6B6B6B6B6B6B6B6B6B6E0
:10309000B6B6B6B6B6B6B6B6B6B6BABABAB6B6B6C4
:1030A000B6B6B6B6B6B6B6B6B6B6B6B6B6B6B6B6C0
:1030B000B6B6B6B6B6B6B6B6B6B6B6B6B6B6B6B6B0
:1030C000B6B6B6B6B6B6B6B6B6B6B6B6B6B6B6B6A0
:1030D000B6D6DADADADAD6DADAFAFAFAFAFAFAFE98
:1030E000FFFFFFFFFFFFDBDBDBDFDBDBDBDBDBDB54
:1030F000DBDBBBDFFFFFFFFFFFFFFFFFFFFFFFFF8C
:10310000FFFEF5F5F9FAF9F5F1CCA8644444002086
:103110004040202020200000206DD6DAD6B6B6B67A
:10312000B5B1B1B1B1B1B1B1B1B1B1B1B1B1B1AD8F
:10313000ADADADADADA9C9C9C5A4A08060606084C6
:1031400088686868686868686868686868686868DF
:1031500068686868686868686D6D4D4D4D4D4D4D87
:10316000494949494949494949494949494D4D6DA3
:103170006D6D6D6D7192929292929292929292B6C0
:10318000B6B6B6B6B6B6B6B6B6B6B6B6B6B6B6B6DF
:10319000B6BABADABADADADABABABABABABAB6B61B
:1031A000B6B6B6B6B6B6B6929292929296969696F3
:1031B00096B6B6B6B6B6B6B6B6B6BABABAB6B6B6C3
:1031C000B6B6B6B6B6B6B6B6B6B6B6B6B6B6B6B69F
:1031D000B6B6B6B6B6B6B6B6B6B6B6B6B6B6B6B68F
:1031E000B6B6B6B6B6B6B6B6B6B6B6B6B6B6B6B67F
:1031F000B6B6B6B6B6B6B6B6B6B6B6B6B6B6B6B66F
:10320000B6B6B6B6B6B6B6B6B6B6B6B6B6B6B6B65E
:10321000B6D6DBDBDBDBDAD6DAFAFFFAFAFAFAFA51
:10322000FFFFFFFFFFFFDFDBDBDFDBDBB6B6BADF75
:10323000BABADBDFFFFFFFFFFFFFFFFFFFFFFFFF6C
:10324000FFFEF9F9F9F5F0F0ECF1A888444420000C
:1032500020202000000000000045D6DADAD6B6B6FD
:10326000B6B5B1B1B1B1B1B1B1B1B1B1B1B1B1CD29
:10327000CDCDEDEDC9C5C5A5856040204064886809
:1032800068686868686868686868686868686868BE
:1032900068686968686868686D6D4D4D4D4D4D4949
:1032A000494949494949494949494949494D4D6D62
:1032B0006D6D6D6D7171929292929292929292B6A0
:1032C000B6B6B6B6B6B6B6B6B6B6B6B6B6B6B6B69E
:1032D000B6B6BABABABABABABABABABABAB6B6B662
:1032E000B6B6B6B6B6B6B69292929296B69696968E
:1032F0009696B6B6B6B6B6B6B6BADBBAB6BAB6B67D
:10330000B6B6B6B6B6B6B6B6B6B6B6B6B6B6B6B65D
:10331000B6B6B6B6B6B6B6B6B6B6B6B6B6B6B6B64D
:10332000B6B6B6B6B6B6B6B6B6B6B6B6B6B6B6B63D
:10333000B6B6B6B6B6B6B6B6B6B6B6B6B6B6B6B62D
:10334000B6B6B6B6B6B6B6B6B6B6B6B6B6B6B6B61D
:10335000B6DADADBDBDBFBD6DAB5FED6FAFAFAFA56
:10336000FFFFFFFFFFFFFFDBDBDBDBDBB696B6BB60
:10337000B6BADFFFFFFFFFFFFFFFFFFFFFFFFFFF0B
:10338000FFFEFAF9F9F5F5F0CCCCA8644420000072
:1033900000002020200000000025DADADAB6D6B6D8
:1033A000B6B6B5B1B6B1B1B1B1B1B1B1B1D1CDC9A6
:1033B000C9C9C4C4C4C5A1604020204489696868E3
:1033C000686868686868686868686868686868687D
:1033D00068686868686888884D4D4D4D4D49494911
:1033E00049494949494949494949494949494D4D45
:1033F0006D6D6D6D6D719292929292929292929683
:10340000B6B6B6B6B6B6B6B6B6B6B6B6B6B6B6B65C
:10341000B6B6BABABABABABABABABAB6B6B6B6B628
:10342000B6B6B6B6B6B69292929292969696969690
:103430009696B6B6B6B6B6B6B6DBDBBAB6BAB6B61A
:10344000BAB6B6B6B6B6B6B6B6B6B6B6B6B6B6B618
:10345000B6B6B6B6B6B6B6B6B6B6B6B6B6B6B6B60C
:10346000B6B6B6B6B6B6B6B6B6B6B6B6B6B6B6B6FC
:10347000B6B6B6B6B6B6B6B6B6B6B6B6B6B6B6B6EC
:10348000B6B6B6B6B6B6B6B6B6B6B6B6B6B6B6B6DC
:10349000B6DADADBDBDBFFDAB6D6B5DAD6F6FAD6A1
:1034A000FEFFFFFFFFFFFFDBDBDBDBDAB6B6B6B606
:1034B000BABBFFFFDFFFFFFFFFFFFFFFFFFFFFFFC5
:1034C000FFFEFAF9F9F9F9F9F1ACA88840200000FB
:1034D00020002020204040200000B6DADAD6D6B600
:1034E000B6B5B5B6B1B1B5B5B1B1B5B1D1CDC9E427
:1034F000C4E4E4C4C58020200020698D698D8868FB
:10350000686868686868686868686868686868683B
:1035100068686868686868884D4D4D4949494949F7
:1035200049494949494949494949494949494D4D03
:103530006D6D6D6D6D6D719292929292929292926A
:10354000B6B6B6B6B6B6B6B6B6B6B6B6B6B6B6B61B
:10355000B6B6B6BABABABABABABAB6B6B6B6B6B6EF
:10356000B6B6B6B6B6B6929292929696929696964F
:103570009696B6B6B6B6B6B6B6DBDBB6B6B6BADAB9
:10358000BAB6B6B6B6B6B6B6B6B6B6B6B6B6B6B6D7
:10359000B6B6B6B6B6B6B6B6B6B6B6B6B6B6B6B6CB
:1035A000B6B6B6B6B6B6B6B6B6B6B6B6B6B6B6B6BB
:1035B000B6B6B6B6B6B6B6B6B6B6B6B6B6B6B6B6AB
:1035C000B6B6B6B6B6B6B6B6B6B6B6B6B6B6B6B69B
:1035D000B6B6DBDBDBDBFBFBFFFFFAD6D6F6F5D5B9
:1035E000FAFFFFFFFFFFFFDBFFDFDBB6B6BAB6B6C1
:1035F000BADFFFFFDFDFFFFFFFFFFFFFFFFFFFFF80
:10360000FFFFF9F9FEFEFEFDF9F5A888682000002D
:103610002400404040404020000092FBDAD6B6B67D
:10362000B6D6D6B1B1B5B6B5B5B5B5D1F1C9E4E444
:10363000E4E0C0C480402000246D6D6D89888968F5
:1036400068686868686868686868686868686868FA
:1036500068686868686868884D4D4D4949494949B6
:1036600049494949494949494949494949494D4DC2
:103670006D6D6D6D6D6D717192929292929292924A
:1036800096B6B6B6B6B6B6B6B6B6B6B6B6B6B6B6FA
:10369000B6B6B6B6B6B6BABAB6B6B6B6B6B6B6B6C2
:1036A000B6B6B69696929292929296969296969276
:1036B0009296B6B6B6B6B6B6B6BABAB6BAB6BADBB9
:1036C000B6B6B6B6B6B6B6B6B6B6B6B6B6B6B6B69A
:1036D000B6B6B6B6B6B6B6B6B6B6B6B6B6B6B6B68A
:1036E000B6B6B6B6B6B6B6B6B6B6B6B6B6B6B6B67A
:1036F000B6B6B6B6B6B6B6B6B6B6B6B6B6B6B6B66A
:10370000B6B6B6B6B6B6B6B6B6B6B6B6B6B6B6B659
:10371000B6B6DBDBDBDBDBFFFFFFFFFFD5D5D5D5A7
:10372000D5FFFFFFFFFFFFFFFFDFDBDADBDBDBDBCC
:10373000DBFFFFDFBADBFFFFFFFFFFFFFFFFFFFF46
:10374000FFD5FEFEFEFEFDF9F9F5F1888844000084
:103750002520204040404020000024B6DAD6D6D6AE
:10376000D6D68DB1D6D6B5B5B5B5B1F2E9C4E4C0FB
:10377000C0C0C484200020698D6D6D8D8D888868DF
:1037800068686868686868686868686868686868B9
:1037900068686868888888884D4D4D494949494915
:1037A00049494949494949494949494949494D4D81
:1037B0004D6D6D6D6D6D6D7171929292929292924E
:1037C0009296B6B6B6B6B6B6B6B6B6B6B6B6B6B6DD
:1037D000B6B6B6B6B6B6B6B6B6B6B6B6B6B6B6B689
:1037E000B6B696929292929292929292929292926D
:1037F0009296B6B6B6B6B6B6B6BABAB6B6B6BABA9D
:10380000B6B6B6B6B6B6B6B6B6B6B6B6B6B6B6B658
:10381000B6B6B6B6B6B6B6B6B6B6B6B6B6B6B6B648
:10382000B6B6B6B6B6B6B6B6B6B6B6B6B6B6B6B638
:10383000B6B6B6B6B6B6B6B6B6B6B6B6B6B6B6B628
:10384000B6B6B6B6B6B6B6B6B6B6B6B6B6B6B6B618
:10385000B6B6BABBDBDBDBFBFFFFFFFFD6D5D5D5AA
:10386000D5FAFFFFFFFFFFFFDFDFDBDBFFFFDFDF5F
:10387000FFFFFFBAB6DBFFFFFFFFFFFFFFFFFFFF0A
:10388000FAFAD9FEFDFDFDF9F5CCCCAC646400007C
:10389000242500406040404120000092DAD6D6D670
:1038A000D6ADADD6D6D6D6D6D6D5D6F2C4E5A0A05E
:1038B000C0C5804000248D8D8D8D8D8D8D888C8C24
:1038C0006868686868686868686868686868686878
:1038D00068686889898988884D4D494949494949B5
:1038E0004949494949494949494949494949494D44
:1038F0004D6D6D6D6D6D6D6D717192929292929232
:10390000929292B6B6B6B6969696969696969696E3
:10391000B6B6B6B6B6B6B6B6B6B6B6B6B6B6B6B647
:10392000B6B692929292929292929292929292922F
:1039300092B6B6B6B6B6B6B6B6BADAB6B6BAB6B61F
:10394000B6B6B6B6B6B6B6B6B6B6B6B6B6B6B6B617
:10395000B6B6B6B6B6B6B6B6B6B6B6B6B6B6B6B607
:10396000B6B6B6B6B6B6B6B6B6B6B6B6B6B6B6B6F7
:10397000B6B6B6B6B6B6B6B6B6B6B6B6B6B6B6B6E7
:10398000B6B6B6B6B6B6B6B6B6B6B6B6B6B6B6B6D7
:10399000B6B6BABBDBDBDBDBFFFFFFFFFAD5D5D565
:1039A000D5D5FFFFFFDFFFDFDBDBDBDFFFFFFFFF47
:1039B000FFFFBAB6B6DAFFFFFFFFFFFFFFFFFFFF13
:1039C000FAFEF9F9F9F9F9F9F1CCA8AC6444200050
:1039D000244500204040404020000092DAD6F6F610
:1039E000D189D6D6D6D6D6D5D6D2F6C9A580A0C589
:1039F000C5804020498D8D8D8D8D8D8D8D6D8D6C0B
:103A000088886868686868686868686868686868F6
:103A1000688889898D8D89884D4D49494949494929
:103A20004949494949494949494949494949494906
:103A30004D6D6D6D6D6D6D6D6D71919292929292F5
:103A4000929292929292969692929292969696963E
:103A50009696B6B6B6B6B6B6B6B6B6B6B6B6B6B646
:103A6000B69692929292929292929292929292960A
:103A700096B6B6B6B6B6B6B6B6B6BAB6B6BAB6B6FE
:103A8000B6B6B6B6B6B6B6B6B6B6B6B6B6B6B6B6D6
:103A9000B6B6B6B6B6B6B6B6B6B6B6B6B6B6B6B6C6
:103AA000B6B6B6B6B6B6B6B6B6B6B6B6B6B6B6B6B6
:103AB000B6B6B6B6B6B6B6B6B6B6B6B6B6B6B6B6A6
:103AC000B6B6B6B6B6B6B6B6B6B6B6B6B6B6B6B696
:103AD000B6B6BABADBDBDBDBFFFFFFFFFAD5D1D12D
:103AE000D1D5FAFFFFFFFFDFDBDBDFFFFFFFFFFFCB
:103AF000FFDAB696B6DAFFFFFFFFFFFFFFFFFFFF1B
:103B0000FAFEFEF9F5F5F5F5F0CCA8AD6420240039
:103B100025452020202020200000008DDAF6F2CD5F
:103B200084D1D6D6D6D6D6D5F6F6A9806080C5C5BE
:103B3000A5402069B2B18D8D8D8D8D8D8D6D6D8D72
:103B40008888686868686868686868888868688855
:103B5000688989898D8D8D894D4D4D4949494949DE
:103B600049494949494949494949494949494949C5
:103B70004D4D6D6D6D6D6D6D6D6D7171919292921A
:103B80009292929292929292929292929292929611
:103B9000929696B6B6B6B6B6B6B6B6B6B6B6B6B629
:103BA000B6969292929292929292929292929296C9
:103BB00096B6B6B6B6B6B6DAB6B6B6B6BABAB6B699
:103BC000B6B6B6B6B6B6B6B6B6B6B6B6B6B6B6B695
:103BD000B6B6B6B6B6B6B6B6B6B6B6B6B6B6B6B685
:103BE000B6B6B6B6B6B6B6B6B6B6B6B6B6B6B6B675
:103BF000B6B6B6B6B6B6B6B6B6B6B6B6B6B6B6B665
:103C0000B6B6B6B6B6B6B6B6B6B6B6B6B6B6B6B654
:103C1000B6B6BADADBDBDBDBDFFFFFFFFAD1D1D1EF
:103C2000D1D1D6FFFFDFFFDFDFDFFFFFFFDFDBDF0D
:103C3000DAB6929196BAFFFFFFFFFFFFFFFFFFFF8B
:103C4000DAFEF9F5F1F0F5CCCCAC888944204900D6
:103C5000444545002040402000000069FAD1C98455
:103C600064FAD6D6D6D6D6F6F288404060C5C5846A
:103C70004020208DB191B1918D8D8D8D8D8D8D8D4B
:103C80008D888868686868686888888888886868AF
:103C9000898D8D8D8D8D8D8D4D4D49494949494970
:103CA0004949494949494949494949494949494984
:103CB000494D6D6D6D6D6D6D6D6D6D6D7171919128
:103CC00092929292929292929292929292929292D4
:103CD00092929696B6B6B6B6B6B6B6B6B6B6B6B60C
:103CE000B696929292929292929292929292929688
:103CF00096B6B6B6B6B6B6BAB6B6BABABABABAB66C
:103D0000B6B6B6B6B6B6B6B6B6B6B6B6B6B6B6B653
:103D1000B6B6B6B6B6B6B6B6B6B6B6B6B6B6B6B643
:103D2000B6B6B6B6B6B6B6B6B6B6B6B6B6B6B6B633
:103D3000B6B6B6B6B6B6B6B6B6B6B6B6B6B6B6B623
:103D4000B6B6B6B6B6B6B6B6B6B6B6B6B6B6B6B613
:103D5000B6B6B6DADBDBDBDBDFFFFFFFDAB1D1D1F2
:103D6000D1B1B1FBFFFFFFFFFFFFFFFFDFDABABA00
:103D7000B6919191B6DAFFFFFFFFFFFFFFFFFFFE55
:103D8000DAF9D5F5F1F1F1ACFA8C886444244424D5
:103D9000244545204020202000000065F2C9A540B0
:103DA000D2F6F6F6F6F6D1F6D164202084A580404E
:103DB00069B2B191B191B1B1918D8D8D8D8D8D8D96
:103DC0008D8D8D8888886868688888886868688923
:103DD000898D8D8D8D8D8D8D4D4D4949494949492F
:103DE0004949494949494949494949494949494943
:103DF00049494D6D6D6D6D6D6D6D6D6D6D6D717153
:103E000071719292929292929292929292929292D4
:103E100092929296B6B6B6B6B6B6B6B6B6B6B6B6CE
:103E2000B696929292929292929292929292929646
:103E300096B6B6B6B6B6B6B6B6BABABABABAB6B62E
:103E4000B6B6B6B6B6B6B6B6B6B6B6B6B6B6B6B612
:103E5000B6B6B6B6B6B6B6B6B6B6B6B6B6B6B6B602
:103E6000B6B6B6B6B6B6B6B6B6B6B6B6B6B6B6B6F2
:103E7000B6B6B6B6B6B6B6B6B6B6B6B6B6B6B6B6E2
:103E8000B6B6B6B6B6B6B6B6B6B6B6B6B6B6B6B6D2
:103E9000B6B6B6BADBDBDBDBDFFFFFFAD6B1D1B1FA
:103EA000B1FED6B6FFFFFFFFFFFFFFDFDABAB6B6FF
:103EB00091B1B1B2DADBFFFFFFFFFFFFFFFFFFFEB3
:103EC000FEFAF5F5F1ACADADAC884444442444248D
:103ED0002445492020606060200020A9C9A94089AC
:103EE000FAF2C9C8A4CCFAFEFEFEB14084402044D8
:103EF000D6B1D2B1B1B1B1B1B1918D8D8D8D8D8D64
:103F00008D8D6C8888688868688888886868888DDE
:103F10008D8D8D8D8D8D8D8D4D49494949494949ED
:103F20004949494949494949494949494949494901
:103F30004949494D4D6D6D6D6D6D6D6D6D6D6D6D5D
:103F40006D717191717192929292929292929292FB
:103F50009292929296B6B6B6B6B6B6B6B6B6B6B6B1
:103F6000B696929292929292929292929292929209
:103F700096B6B6B6B6B6B6B6B6BABAB6BABAB6B6F1
:103F8000B6B6B6B6B6B6B6B6B6B6B6B6B6B6B6B6D1
:103F9000B6B6B6B6B6B6B6B6B6B6B6B6B6B6B6B6C1
:103FA000B6B6B6B6B6B6B6B6B6B6B6B6B6B6B6B6B1
:103FB000B6B6B6B6B6B6B6B6B6B6B6B6B6B6B6B6A1
:103FC000B6B6B6B6B6B6B6B6B6B6B6B696B6B6B6B1
:103FD000B6B6B6B6DADBDBDBDADAFAFAB1B1B1AD36
:103FE000B1FBFFB2FFFFFFFFFFFFDFDABAB6B6B6E5
:103FF000B1B1B1B6DAFFFFFFFFFFFFFFFFFFFFFE2A
:10400000FFFAB188202000208D202044442444451C
:104010002449492064646040202089A9A46064F692
:10402000CDC4C4C4C9F6ACB1F9FEFED52020004908
:10403000D6B1B1B1B1B1B1B1B1B1B18D8D8D8D8DFF
:104040008D8D8D8D686888888888888888888D8D12
:104050008D8D8D8D8D8D8D8D4949494949494949B0
:1040600049494949494949494949494949494949C0
:10407000494949494D4D6D6D6D6D6D6D6D6D6D6D40
:104080006D6D6D7171717171919292929292929225
:10409000929292929696B6B6B6B6B6B69696B6B6D0
:1040A000B6969692929292929292929292929292C4
:1040B00096B6B6B6B6B6B6B6B6BABAB6BABAB6B6B0
:1040C000B6B6B6B6B6B6B6B6B6B6B6B6B6B6B6B690
:1040D000B6B6B6B6B6B6B6B6B6B6B6B6B6B6B6B680
:1040E000B6B6B6B6B6B6B6B6B6B6B6B6B6B6B6B670
:1040F000B6B6B6B6B6B6B6B6B6B6B6B6B6B6B6B660
:10410000B6B6B6B6B6B6B6B6B6B6B6B69696B6B68F
:10411000B6B6B6B6DADBDBDBDAFAFAB5B1B1B1883E
:10412000B1D6FFFFFFFFDFDFDFDFDFBAB6D6D6B6DF
:10413000B1B1B1D6DAFFFFFFFFFFFFFFFFFFFFFACC
:10414000FED620000020244468002044442044453A
:1041500020454920204064402064ADCDA860A8A43B
:10416000C4C4C4C4F164404444D5FEFEB1000000A0
:1041700091D6B1B1B1B1B1B1B1B1B1B18D8D8D8DBA
:104180008D8D8D8D6868888888898989898D8D8DC8
:104190008D8D8D8D8DAD8D8D49494949494949494F
:1041A000494949494949494949494949494949497F
:1041B00049494949494D4D6D6D6D6D6D6D6D6D6D23
:1041C0006D6D6D6D6D6D7171717191929292929232
:1041D00092929292929696B6B6B6B6B69696B6B6B3
:1041E00096969692929292929292929292929292A3
:1041F00096B6B6B6B6B6B6B6B6BAB6B6BABABABA6B
:10420000B6B6B6B6B6B6B6B6B6B6B6B6B6B6B6B64E
:10421000B6B6B6B6B6B6B6B6B6B6B6B6B6B6B6B63E
:10422000B6B6B6B6B6B6B6B6B6B6B6B6B6B6B6B62E
:10423000B6B6B6B6B6B6B6B6B6B6B6B6B6B6B6B61E
:10424000B6B6B6B6B6B6B6B6B6B6B6B69696B6B64E
:10425000B6B6B6B6DADBDBDBB1B1B1ADB1ADB18DBF
:104260008DB1FFFFFFDFDBDBDADBDAB6B6D6D6D601
:10427000B6B1B5DADFFFFFFFFFFFFFFFFFFFFFFA79
:10428000FA200044248DD644442044444424244449
:104290002045492044202088D6FAF6F1F5F5EDC8EE
:1042A000C4C4C4C9644444444444B5FEFF68200007
:1042B00064D6D2D1B5B1B1B1B1B1B1B1AD8D8D8D41
:1042C0008D8D8D8D6868686889898D8D8D8D8D8DBA
:1042D0008D8D8D8DAD8D8DAD4949494949494949EE
:1042E000494949494949494949494949494949493E
:1042F0004949494949494D4D6D6D6D6D6D6D6D6D06
:104300006D6D6D6D6D6D6D6D717171719292929239
:104310009292929292929696B6B6B696969696B6D5
:104320009696969292929292929292929292929261
:1043300096B6B6B6B6B6B6B6B6B6B6B6B6BABABA31
:10434000B6B6B6B6B6B6B6B6B6B6B6B6B6B6B6B60D
:10435000B6B6B6B6B6B6B6B6B6B6B6B6B6B6B6B6FD
:10436000B6B6B6B6B6B6B6B6B6B6B6B6B6B6B6B6ED
:10437000B6B6B6B6B6B6B6B6B6B6B6B6B6B6B6B6DD
:10438000B6B6B6B6B6B6B6B6B6B6B696969696B64D
:10439000B6B6B6B6DADBDBFBB1B1B1B1ADADAD8D62
:1043A000688DDAFFFFDFDADADADADAD6D6D6D6D6F1
:1043B000D6B5B6DAFFFFFFFFFFFFFFFFFFFFFFDA13
:1043C0006D00FF48B1F68864442044486968484855
:1043D000002445240040D5FAD16864848888A8F177
:1043E000F1A4A46444444444444444FAFEFA64A955
:1043F000F2F2D1D2D1B1B1B1B1B1B1B1B18D8D8D36
:104400008D8D8D8D8D8868888D8D8D8D8D8D8D8D0B
:104410008D8D8D8DAD8D8DAD4949494949494949AC
:1044200049494949494949494949494949494949FC
:10443000494949494949494D4D6D6D6D6D6D6D6DE8
:104440006D6D6D6D6D6D6D6D6D6D71717171919243
:10445000929292929292929696969696929696B6FC
:104460009696929292929292929292929292929224
:1044700092B6B6B6B6B6B6B6B6B6B6B6B6B6B6B600
:10448000B6B6B6B6B6B6B6B6B6B6B6B6B6B6B6B6CC
:10449000B6B6B6B6B6B6B6B6B6B6B6B6B6B6B6B6BC
:1044A000B6B6B6B6B6B6B6B6B6B6B6B6B6B6B6B6AC
:1044B000B6B6B6B6B6B6B6B6B6B6B6B6B6B6B6B69C
:1044C000B6B6B6B6B69696B69696969692929696D4
:1044D000B6B6B6B6BADADBDBB1B1ADADAD8D6868F4
:1044E0008D68B1DADBDFB6DADAB6D6D6B6D6D6D68E
:1044F000D6B5B6DAFFFFFFFFFFFFFFFFFFFFFFFFAD
:10450000B20048D6D1D18468642044488D8D8D692D
:104510002024442044FFD5646468888888ACACA813
:10452000A8CD64404444444444444468FEFECDA4C1
:10453000C4C9A9CDD2D2B5B5D1B1B1B1B1B1AD8DEA
:104540008D8D89898D8888888D8D8D8D8D8D8D8DB2
:104550008D8D8D8D8D8D8D8D4949494949494949AB
:1045600049494949494949494949494949494949BB
:104570004949494949494949494D6D6D6D6D6D6DCF
:104580006D6D6D6D6D6D6D6D6D6D6D6D717191920A
:1045900092929292929292929696969296969696DF
:1045A00096929292929292929292929292929292E7
:1045B0009296B6B6B6B6B6B6B6B6B6B6B6B6B6B6DF
:1045C000B6B6B6B6B6B6B6B6B6B6B6B6B6B6B6B68B
:1045D000B6B6B6B6B6B6B6B6B6B6B6B6B6B6B6B67B
:1045E000B6B6B6B6B6B6B6B6B6B6B6B6B6B6B6B66B
:1045F000B6B6B6B6B6B6B6B6B6B6B6B6B6B6B6B65B
:10460000B6B6B6B6969696969696969292929292DE
:10461000B6B6B6B6BADADBDB918DB1AD8D89694835
:10462000D5FA68D6DAFADAB6D6B6D6D6B5D6D6D6AA
:10463000D6D6D6FAFFFFFF8DF6FFFFFFFFFFFFFF85
:104640006D00B1ADF5A88888644444442000202062
:1046500000242444FF8D446468648888A8A8CCCCD6
:10466000CCAC40444444244444444444D9FEF1C4C2
:10467000C4C4C4C4C9F2D1B5B5B1B1B1B1B1B1AD61
:10468000AD8D8D8D888888888D8D8D8D8DADB1B1E6
:10469000ADADADAD8D8D8D8D4949494949494949EA
:1046A000494949494949494949494949494949497A
:1046B0004949494949494949494D4D6D6D6D6D6DAE
:1046C0006D6D6D6D6D6D6D6D6D6D6D6D6D717192ED
:1046D000919292929292929696969692969696969B
:1046E00096929292929292929292929292929292A6
:1046F0009292B6B6B6B6B6B6B6B6B6B6B6B6B6B6A2
:10470000B6B6B6B6B6B6B6B6B6B6B6B6B6B6B6B649
:10471000B6B6B6B6B6B6B6B6B6B6B6B6B6B6B6B639
:10472000B6B6B6B6B6B6B6B6B6B6B6B6B6B6B6B629
:10473000B6B6B6B6B6B6B6B6B6B6B6B6B6B6B6B619
:10474000B6B6B6B69696969696969692929292929D
:104750009292B6B6BADADBDB8D8DAD8D8DB1B268D3
:10476000B1FAAD8CD6FADAD6D6D6B6D6B6B5D6D696
:10477000D6D6D6FAFFFFF6A989D2FFFFFFFFFFFFCB
:104780006D00B1D1F1A88888648D482420ADAD6456
:10479000202020FB8D4464888984888888A8C8C824
:1047A000CD64202424242424244444448CFAFAC4D0
:1047B000E4E4E4E4C4C9F2D6D1D5B1B1B1B1B1AD4C
:1047C000AD8D8D8D88888D8D8D8D8D8DADB1B1B177
:1047D000B1ADADAD8D8D8D8D4949494949494949A5
:1047E0004949494949494949494949494949494939
:1047F000494949494949494949494D4D6D6D6D6D91
:104800006D6D6D6D6D6D6D6D6D6D6D6D6D6D6D71D4
:104810007192929292929296929292929292929691
:104820009292929292929292929292929292929268
:104830009292B696B6B6B6B6B6B6B6B6B6B6B6B680
:10484000B6B6B6B6B6B6B6B6B6B6B6B6B6B6B6B608
:10485000B6B6B6B6B6B6B6B6B6B6B6B6B6B6B6B6F8
:10486000B6B6B6B6B6B6B6B6B6B6B6B6B6B6B6B6E8
:10487000B6B6B6B6B6B6B6B6B6B6B6B6B6B6B6B6D8
:10488000B6B6B6B696969696969692929292929260
:104890009292B6B6B6DADADB8D8D8D8D8DB2B268B6
:1048A000B1FAF58868FBD6B6D6D6B6B6B6B6D6D6C1
:1048B000D6D6DAFFFFFFF2A46089D2FFFFFFFFFF29
:1048C0006D00B1D5F1A88868D26944208DFAD1CDA8
:1048D0008840B1D64444646464888888A8A8C8A481
:1048E000A8404024242424242444444060F6EDC4F9
:1048F000E4E5E4E0E4C4C9F1D2D1B1B1B1B1ADAD08
:10490000AD8D8D8D8D8D8D8D8D8DADB1B1B1ADB1E7
:10491000B1B1ADADADADAD8D4949494949494949FF
:1049200049494949494949494949494949494949F7
:104930004949494949494949494949494D4D6D6D97
:104940006D6D6D6D6D6D6D6D6D6D6D6D6D6D6D6D97
:104950006D7171929292929292929292929292929E
:104960009292929292929292929292929292929227
:1049700092929692B6B6B6B6B6B6B6B6B6B6B6B663
:10498000B6B6B6B6B6B6B6B6B6B6B6B6B6B6B6B6C7
:10499000B6B6B6B6B6B6B6B6B6B6B6B6B6B6B6B6B7
:1049A000B6B6B6B6B6B6B6B6B6B6B6B6B6B6B6B6A7
:1049B000B6B6B6B6B6B6B6B6B6B6B6B6B6B6B6B697
:1049C000B6B6B6B69696969696969292929292921F
:1049D0009292B6B6B6DADADB8DB18D8D8DB691686E
:1049E0008CF9F5AD44FBD6D6B6B6B6B6B6B6D6D6C5
:1049F000D6D6FAFFFFFBC9C540406489FBFFFFFF25
:104A00004900D5F5F1A8886868680024D6F688AD15
:104A1000D1D1FA446864646468888888A8A8CD8481
:104A200084404424202424242444444084A4C4C432
:104A3000E5E4E5E4E4E4C4C9CDD1B1B1B1B1ADADD3
:104A40008D8D8D8D8D8D8DADADADB1B1B1B1B1B15E
:104A5000B1B1B1B1ADB1AD8D4949494949494949B2
:104A600049494949494949494949494949494949B6
:104A7000494949494949494949494949494D4D4D9A
:104A80004D4D6D6D6D6D6D6D6D6D6D6D6D6D6D6D96
:104A90006D6D6D9292929292929292929292929265
:104AA00092929292929292929292929292929292E6
:104AB0009292929296B6B6B6B6B6B6B6B6B6B6B646
:104AC000B6B6B6B6B6B6B6B6B6B6B6B6B6B6B6B686
:104AD000B6B6B6B6B6B6B6B6B6B6B6B6B6B6B6B676
:104AE000B6B6B6B6B6B6B6B6B6B6B6B6B6B6B6B666
:104AF000B6B6B6B6B6B6B6B6B6B6B6B6B6B6B6B656
:104B0000B6B6B6B6969696969692929292929292E1
:104B1000929292B6B6B6DADB8D8D8D8D91B2B26877
:104B200068ACD1AD48D6DAB6B6B6B6B5B5D6D5D539
:104B3000D6D6DAFEFFEDE4E56020204065AEFBFF4F
:104B40004900D6B1F1A888648D44000024000020FB
:104B500068F664446844646468888888A8A8F1ACEE
:104B600088442020242420244440648484A4A4A4D1
:104B7000A4C5C5E4E4E4E4E4C4CDD1B1B1B1B1ADC0
:104B80008D8D8D8D8D8DADB1B1B1B1B1B1B1B1B1F1
:104B9000B1B1B1B1B1B1B1AD494949494949494949
:104BA0004949494949494948494949494949494976
:104BB00049494949494949494949494949494D4D5D
:104BC000494D4D6D6D6D6D6D6D6D6D6D6D6D6D6D79
:104BD0006D6D6D7192929292929292929292929245
:104BE00092929292929292929292929292929292A5
:104BF0009292929292B6B6B6B6B6B6B6B6B6B6B609
:104C0000B6B6B6B6B6B6B6B6B6B6B6B6B6B6B6B644
:104C1000B6B6B6B6B6B6B6B6B6B6B6B6B6B6B6B634
:104C2000B6B6B6B6B6B6B6B6B6B6B6B6B6B6B6B624
:104C3000B6B6B6B6B6B6B6B6B6B6B6B6B6B6B6B614
:104C4000B6B69696969696929292929292929292E8
:104C5000929292B6B6B6DADA918D698D91B291449C
:104C600068AD88886868DAB6B6B1B6B5B5D6D5D5B8
:104C7000D6D6FAFAF6C4E4E5A5200020202044AEFA
:104C80004900D6F6CCCC8844692000000000000022
:104C900064D1446464646468688888A8ACACACF689
:104CA000F644202424202424208989406060606008
:104CB000606080C4C5C4E4E4C4C4CDD1B1B1B1ADB9
:104CC000ADAD8D8DADB1B1B1B1B1B1B1B1B1B1AD2C
:104CD000B1B1B1B1B1B1B1AD494949494949494908
:104CE0004949494949494948494949494949494935
:104CF0004949494949494949494949494949494924
:104D00004949494D4D6D6D6D6D6D6D6D6D6D6D6D7F
:104D10006D6D6D6D71719292929292929292929249
:104D20009292929292929292929292929292929263
:104D3000929292929296B6B6B6B6B6B6B6B6B6B6E7
:104D4000B6B6B6B6B6B6B6B6B6B6B6B6B6B6B6B603
:104D5000B6B6B6B6B6B6B6B6B6B6B6B6B6B6B6B6F3
:104D6000B6B6B6B6B6B6B6B6B6B6B6B6B6B6B6B6E3
:104D7000B6B6B6B6B6B6B6B6B6B6B6B6B6B6B6B6D3
:104D8000B6969696969696929692929292929292C3
:104D90009292B2B6B6D6DADA918D698D8D916D6840
:104DA0004444D1AD6844D6B2B1B1B1B5B5B1D5D6F0
:104DB000D6D6FAF6C8E4E0E5C940200000000000BD
:104DC0002400D5D1CDAD6469490000000000202049
:104DD000D6646864646464888888A8A8ACACACAD08
:104DE000AD4024202024242044B200002020204074
:104DF0004060606080A4C5C5E5C4C4C9CDB1B1AD93
:104E0000ADAD8DADB1B1B1B1B1B1B1B1B1B1B1B1C2
:104E1000B1B1B1B1B1B1B1B14949494949494949C2
:104E200049494949494948484848494949494949F6
:104E300049494949494949494949494949494949E2
:104E4000494949494D4D6D6D6D6D6D6D6D6D6D6D62
:104E50006D6D6D6D6D6D9192929292929292929211
:104E60009292929292929292929292929292929222
:104E700092719192929296B6B6B6B6B6B6B6B6B6EC
:104E8000B6B6B6B6B6B6B6B6B6B6B6B6B6B6B6B6C2
:104E9000B6B6B6B6B6B6B6B6B6B6B6B6B6B6B6B6B2
:104EA000B6B6B6B6B6B6B6B6B6B6B6B6B6B6B6B6A2
:104EB000B6B6B6B6B6B6B6B6B6B6B6B6B6B6B6B692
:104EC000B696969696969692929292929292929286
:104ED0009292B6B6B6DADAD68D6D696D8D8D69248B
:104EE0004868AC8CFAB1B1B18DB1B1B5B5D1D5D5F9
:104EF000D1F2F6C4E4E4E0E0E9A90000000000001B
:104F00002400D6AD886820690000000000244464B5
:104F1000D14468686464646488ACACACACA8A8A8EC
:104F2000AD20202024202020686800000000002000
:104F300020202040606080A0C4C4C4C4CDCDADADED
:104F4000ADB1ADB1B1B1B1B1B1B1B1B1B1B1B1B159
:104F5000B1B1B1B1B1B1B1B1494949494949494981
:104F600049494949494949494949494949494949B1
:104F700049494949494949494949494949494949A1
:104F800049494949494D4D4D6D6D6D6D6D6D6D6D65
:104F90006D6D6D6D6D6D9271719292929292929211
:104FA00092929292929292929292929292929292E1
:104FB0009171719292929696B6B6B6B6B6B6B6B6EC
:104FC000B6B6B6B6B6B6B6B6B6B6B6B6B6B6B6B681
:104FD000B6B6B6B6B6B6B6B6B6B6B6B6B6B6B6B671
:104FE000B6B6B6B6B6B6B6B6B6B6B6B6B6B6B6B661
:104FF000B6B6B6B6B6B6B6B6B6B6B6B6B6B6B6B651
:105000009696969696969696929292929292929260
:10501000929292B6B6DAB6B68D69698D8D8D8D2471
:105020004468ADF6FEFEFFB1FAB1B1B5B1B5D5D168
:10503000F1EDC4E4E4E4E0E4E9F220000000000063
:105040002400D6686920000000202044444440B178
:105050006868686864648CFAFEFAFAF9F5F1F1ACF4
:105060006820202020242020CD602000002491D61C
:10507000D6B24400204060606080A4C5A4CDCDAD10
:10508000B1B1B1B1B1B1B1B1B1B1B1B1B1B1B1B110
:10509000B1B1B1B1B1B1B1B1494949494949494940
:1050A0004949494949494949494949494949494970
:1050B0004949494949494949494949494949494960
:1050C0004949494949494D4D6D6D6D6D6D6D6D6D28
:1050D0006D6D6D6D6D6D92927192927171929292F1
:1050E00092929292929292929292929292929271C1
:1050F0006D71719192929296B6B696B6B6B6B6B6F4
:10510000B6B6B6B6B6B6B6B6B6B6B6B6B6B6B6B63F
:10511000B6B6B6B6B6B6B6B6B6B6B6B6B6B6B6B62F
:10512000B6B6B6B6B6B6B6B6B6B6B6B6B6B6B6B61F
:10513000B6B6B6B6B6B6B6B6B6B6B6B6B6B6B6B60F
:105140009696969696969692929292929292929223
:10515000929292B6B6B6B6B68D696D6D8D8D8D9103
:10516000208DD1F6FAFEFEADFFD5B1B1B6D5D6D1C0
:10517000C4C4E4E4E4E0E0E4E9F2A92000000000B3
:105180002400D6684400000020202089896460F64D
:105190004468686464F6F5D5FEFEF9F9F5F5F1F1B9
:1051A0004420202424202020CD84602000B2D6D6A4
:1051B000D6D6B62049202040606040608485ADB1DD
:1051C000B1B1B1B1B1ADB1B1B1B1B1B1B1B1B1B1D3
:1051D000B1B1B1B1B1B1B1B14949494949494949FF
:1051E0004949494949494949484949494848484834
:1051F000494949494949494949494949494949491F
:10520000494949494949494D4D4D4D6D6D6D6D6D4A
:105210006D6D6D6D6D6D71929291917171919292B2
:105220009292929292929292929292927192926DA4
:105230006D6D71717192929696969696B6B6B6B657
:10524000B6B6B6B6B6B6B6B6B6B6B696969696969E
:10525000B6B6B6B6B6B6B6B6B6B6B6B6B6B6B6B6EE
:10526000B6B6B6B6B6B6B6B6B6B6B6B6B6B6B6B6DE
:10527000B6B6B6B6B6B6B6B6B6B6B6B6B6B6B696EE
:1052800096969696969696929292929292929292E2
:10529000929192B6D6B6B6B66969686C918D91B6A0
:1052A000B2688889B18D8D88FE8DD1D1B1B1A9A8A0
:1052B000C4E0E5E4E4E4E4E4E9EDF26000000020A9
:1052C0000020B16800000020244464A9D18864B1A2
:1052D00064646488F6D1D0D1F9FAD1D1B1AC888DAB
:1052E0004420202024242040CDA4A484408DD2D664
:1052F000B6D6D66DD6D68D44202020202020408DD5
:10530000B1B1B1B1B1ADB1B1B1B1B1B1B1B1B1B191
:10531000B1B1B1B1B1D2B1B149494949494949499C
:105320004949494949494949284848482828284875
:1053300049494949494949494949494949494949DD
:1053400049494949494949494D4D4D6D6D6D6D6D0D
:105350006D6D6D6D6D6D6D92927171716D719292D9
:10536000929292929292929292929171716D6D6DCF
:105370006D6D6D6D7192929292929696969696B68A
:10538000B6B6B6B6B6B6B6B6B6969696969696969D
:10539000969696B6B6B6B6B6969696B6B6B6B6B66D
:1053A000B6B6B6B6B6B6B6B6B6B6B6B6B6B6B6B69D
:1053B000B6B6B6B6B6B6B6B6B6B6B6B6B6B6B696AD
:1053C00096969696969692929292929292929292A5
:1053D000919192B6B6B2B6B269696D8D919191B65E
:1053E0008D68646444B1FFB1FE68B1B1D68D20848C
:1053F000C4E4E5E4E4E4E4E4E9E9C4F22000246977
:105400002044B144200020444464ADA8F6A8AD88EF
:10541000646468F5CCD0F1F1F5F5FAFAD5B1B1D6FE
:105420004420202000202044CDA0A4A48484D2D2F3
:10543000B2D6B6D6D6D6D6B6B28D49200000002058
:10544000ADB1B1B1B1B1B1B1B1B1B1B1B1B1B1B150
:10545000B1B1B1D2D6D6D2B14949494949494949F0
:105460004949494949494948284848282828284855
:1054700048484848494949494949494949494949A0
:105480004949494949494949494D4D4D6D6D6D6DF0
:105490006D6D6D6D6D6D6D9192716D6D6D719292A1
:1054A000929292929292929292926D6D6D6D6D6DBA
:1054B0006D6D6D6D71929292929292929296969675
:1054C000969696969696969696969696969696967C
:1054D0009696969696969696969696B6B6B6B6B6CC
:1054E000B6B6B6B6B6B6B6B6B6B6B6B6B6B6B6B65C
:1054F000B6B6B6B6B6B6B6B6B6B6B6B6B6B6B6966C
:105500009696969696929292929292929292929168
:10551000919192B6B6B1B69169688D8D9191B6DAD6
:1055200089646464D6FEFFD1FE8CB1B1D6B140402F
:1055300084C5E5E4E4E4E5E9E5E5E4C4CD40D6442A
:1055400040688D64B240404444ADF1A8F284D16417
:10555000646488CDCCF1D1F5FAFEF6B1ADD1B16875
:105560006D49202400202044A980A0A0A4A4A9D291
:10557000D2B2B5D5D6D6D6D6D6D6D6B28D44202080
:10558000208DB1B1B1B1B1B1B1B1B1B1B1B1B1D29F
:10559000B1D2D2D6D6D6D6B1494949494949494965
:1055A0004949494949494948484828282828282834
:1055B00028282828484949494949494949494949E0
:1055C0004949494949494949494D4D4D6D6D6D6DAF
:1055D0006D6D6D6D6D6D6D6D92716D6D6D71929284
:1055E000929292929292929292926D6D6D6D6D6D79
:1055F0006D6D6D6D6D719292929292929296929261
:10560000969696969696969696969692929292924E
:10561000929696969696969696969696B6B6B6B6AE
:10562000B6B6B6B6B6B6B6B6B6B6B6B6B6B6B6B61A
:10563000B6B6B6B6B6B6B6B6B6B6B6B6B6B696964A
:10564000969696969292929292929292929292912B
:10565000919192B6B2B2B68D6969698D8D91DAFF7A
:10566000646488D6FEFEDAADFF8CB1B1D6D669404F
:105670004080C9E9E4E9EDE5E5E4E4E4C9F6646401
:1056800064AD896488D2ADAD88D1F6A8CD84D1440B
:10569000646864ACD0D1F5FEFAD5D5F6B1FAFE68EF
:1056A00044D6482020202044B14084A4A0A4A4A92A
:1056B000D2D2B5B5B5D5D5D5D6D6D5D1D2D2B18D74
:1056C0004820B1B1B1B1B1B1B1B1B1B1B1B1D2D67E
:1056D000D6D6D6D6D6D6D6B14949494949494949F7
:1056E00049494949494949484848282828282828F3
:1056F000282828284849494949494949494949499F
:10570000494949494949494949494D4D4D4D6D6DB1
:105710006D6D6D6D6D6D6D6D6D6D6D6D6D6D719290
:10572000929292929292929291716D6D6D6D6D6D59
:105730006D6D6D6D6D719292929292929292929223
:105740009292969696969696929292929292929221
:10575000929292929292969696969696B6B6B6B681
:10576000B6B6B6B6B6B6B6B6B6B6B6B6B6B6B6B6D9
:10577000B6B6B6B6B6B6B6B6B6B6B6B6B6B6B6B6C9
:1057800096969692929292929292929292929291EE
:10579000919191B2B1B6918D696969914800FFFB11
:1057A00064D1FAFAFA8C8D688D8DB1B5D5D6D664F0
:1057B000604060A9EEEDE9C4E4E5E4E4C4C5CD4091
:1057C00084AD846484CDF6D188F6FACD84844044D7
:1057D00044648488D1CCFED6B1D5FEFEFEFED6B19F
:1057E0008DB1D62020242044F6204084A4A4A4A473
:1057F000A9D1D1D6D5D5D6D5D5D5D6D1D1B1B1B1FE
:10580000B1AD68B1B1B1B1B1B1B1B1B1B1D2D6D66A
:10581000D6D6D6D6D6D6D6D6494949494949494990
:1058200049494949494949492828282828282848D0
:10583000282828284949494949494949494949495C
:10584000494949494949494949494D4D4D4D6D6D70
:105850006D6D6D6D6D6D6D6D6D6D6D717171719243
:1058600092929292929292916D6D6D6D6D6D6D6D41
:105870006D6D6D6D6D7192929292929292929296DE
:1058800092929296969696969292929292929292E4
:10589000929292929292969696969696B6B6B6B640
:1058A000B6B6B6B6B6B6B6B6B6B6B6B6B6B6B6B698
:1058B000B6B6B6B6B6B6B6B6B6B6B6B6B6B69696C8
:1058C00096969292929292929292929292929191B2
:1058D000919191B2B1B68D8D8D6969916900B6D6FD
:1058E00064D1F588B1FAFFD18DB1B1B5B5D5D6D6B1
:1058F0004440604060A4E9E4E4E5E5E4E4E4C9A4EC
:1059000084846464D184D1F6ADFAF6848460202066
:10591000446888A8F1D1D5B1D6DAFEFEFEFEB5B155
:10592000AD8DD1B120202420D620204084A4CDCD1F
:10593000A9A9B1D5D6D6D5D6D5D6D6D1D1D1B1B1E2
:10594000B1B1B1ADB1B1B1B1B1B1B1D1D6D6D6D697
:10595000D6D6D6D6D6D6D6D649494949494949494F
:1059600049494949494948282828282824282828D5
:10597000282828284849494949494949494949491C
:1059800049494949494949494949494D4D4D6D6D33
:105990006D6D6D6D6D6D6D6D6D6D6D6D6D916D92EE
:1059A00092929292927171716D6D6D6D6D6D6D6D62
:1059B0006D6D6D6D6D6D7171719292929292969204
:1059C00092929292969696929292929292929292AB
:1059D000929292929296969692969696B6B6B6B6FF
:1059E000B6B6B6B6B6B6B6B6B6B6B6B6B6B6B6B657
:1059F000B6B6B6B6B6B6B6B6B6B6B69696969696E7
:105A00009696929292929292929292929291919171
:105A100091919191B2B28D8D8D696DB2492424AD71
:105A200064D1F6FAFEFFFE88B1B1B1D5D5D6D6D68F
:105A3000F644206480A0C0A08080A4C5E4E4E4C44F
:105A4000C4A48488F6CDA8F6A9F2808484202020FE
:105A5000688864CDD1D1D5D5FEFFFEFFFEFED5B15D
:105A6000B1B18DD648202420D16400002088F6FAF8
:105A7000F5D1B1D5D6D6D6D6D6D6D5D5D5D1B1B124
:105A8000B1B1B1B1ADB1B1B1B1D1D1D1D6D6D6D616
:105A9000D6D6D6D6D6D6D6D649494949494949490E
:105AA000494949494949494828282828282848482F
:105AB00028282828484949494949494949494949DB
:105AC0004949494949494949494949494D4D6D6DF6
:105AD0006D6D6D6D6D6D6D6D6D6D6D6D6D719171CA
